{
  "_format": "hh-sol-artifact-1",
  "contractName": "DuelistKingDistributor",
  "sourceName": "contracts/dk/DuelistKingDistributor.sol",
  "abi": [
    {
      "inputs": [
        {
          "internalType": "address",
          "name": "_registry",
          "type": "address"
        },
        {
          "internalType": "bytes32",
          "name": "_domain",
          "type": "bytes32"
        },
        {
          "internalType": "address",
          "name": "divine",
          "type": "address"
        }
      ],
      "stateMutability": "nonpayable",
      "type": "constructor"
    },
    {
      "anonymous": false,
      "inputs": [
        {
          "indexed": true,
          "internalType": "uint256",
          "name": "campaginId",
          "type": "uint256"
        },
        {
          "indexed": true,
          "internalType": "uint256",
          "name": "generation",
          "type": "uint256"
        },
        {
          "indexed": true,
          "internalType": "uint64",
          "name": "designs",
          "type": "uint64"
        }
      ],
      "name": "NewCampaign",
      "type": "event"
    },
    {
      "anonymous": false,
      "inputs": [
        {
          "indexed": true,
          "internalType": "uint256",
          "name": "cardIndex",
          "type": "uint256"
        },
        {
          "indexed": true,
          "internalType": "address",
          "name": "cardAddress",
          "type": "address"
        },
        {
          "indexed": true,
          "internalType": "string",
          "name": "cardName",
          "type": "string"
        }
      ],
      "name": "NewCard",
      "type": "event"
    },
    {
      "inputs": [
        {
          "internalType": "bytes",
          "name": "data",
          "type": "bytes"
        }
      ],
      "name": "compute",
      "outputs": [
        {
          "internalType": "bool",
          "name": "",
          "type": "bool"
        }
      ],
      "stateMutability": "nonpayable",
      "type": "function"
    },
    {
      "inputs": [
        {
          "internalType": "uint256",
          "name": "index",
          "type": "uint256"
        }
      ],
      "name": "getCampaign",
      "outputs": [
        {
          "components": [
            {
              "internalType": "uint64",
              "name": "opened",
              "type": "uint64"
            },
            {
              "internalType": "uint64",
              "name": "softCap",
              "type": "uint64"
            },
            {
              "internalType": "uint64",
              "name": "deadline",
              "type": "uint64"
            },
            {
              "internalType": "uint64",
              "name": "generation",
              "type": "uint64"
            },
            {
              "internalType": "uint64",
              "name": "start",
              "type": "uint64"
            },
            {
              "internalType": "uint64",
              "name": "end",
              "type": "uint64"
            },
            {
              "internalType": "uint64",
              "name": "designs",
              "type": "uint64"
            },
            {
              "internalType": "uint256[]",
              "name": "distribution",
              "type": "uint256[]"
            }
          ],
          "internalType": "struct DuelistKingDistributor.Campaign",
          "name": "",
          "type": "tuple"
        }
      ],
      "stateMutability": "view",
      "type": "function"
    },
    {
      "inputs": [],
      "name": "getCampaignIndex",
      "outputs": [
        {
          "internalType": "uint256",
          "name": "",
          "type": "uint256"
        }
      ],
      "stateMutability": "view",
      "type": "function"
    },
    {
      "inputs": [
        {
          "internalType": "uint256",
          "name": "index",
          "type": "uint256"
        }
      ],
      "name": "getCard",
      "outputs": [
        {
          "internalType": "address",
          "name": "",
          "type": "address"
        }
      ],
      "stateMutability": "view",
      "type": "function"
    },
    {
      "inputs": [],
      "name": "getCardIndex",
      "outputs": [
        {
          "internalType": "uint256",
          "name": "",
          "type": "uint256"
        }
      ],
      "stateMutability": "view",
      "type": "function"
    },
    {
      "inputs": [],
      "name": "getDomain",
      "outputs": [
        {
          "internalType": "bytes32",
          "name": "",
          "type": "bytes32"
        }
      ],
      "stateMutability": "view",
      "type": "function"
    },
    {
      "inputs": [],
      "name": "getRegistry",
      "outputs": [
        {
          "internalType": "address",
          "name": "",
          "type": "address"
        }
      ],
      "stateMutability": "view",
      "type": "function"
    },
    {
      "inputs": [
        {
          "internalType": "string",
          "name": "name",
          "type": "string"
        },
        {
          "internalType": "string",
          "name": "symbol",
          "type": "string"
        }
      ],
      "name": "issueCard",
      "outputs": [
        {
          "internalType": "bool",
          "name": "",
          "type": "bool"
        }
      ],
      "stateMutability": "nonpayable",
      "type": "function"
    },
    {
      "inputs": [
        {
          "internalType": "uint256",
          "name": "cardId",
          "type": "uint256"
        },
        {
          "internalType": "address",
          "name": "owner",
          "type": "address"
        }
      ],
      "name": "issueGenesisEdittion",
      "outputs": [
        {
          "internalType": "bool",
          "name": "",
          "type": "bool"
        }
      ],
      "stateMutability": "nonpayable",
      "type": "function"
    },
    {
      "inputs": [
        {
          "components": [
            {
              "internalType": "uint64",
              "name": "opened",
              "type": "uint64"
            },
            {
              "internalType": "uint64",
              "name": "softCap",
              "type": "uint64"
            },
            {
              "internalType": "uint64",
              "name": "deadline",
              "type": "uint64"
            },
            {
              "internalType": "uint64",
              "name": "generation",
              "type": "uint64"
            },
            {
              "internalType": "uint64",
              "name": "start",
              "type": "uint64"
            },
            {
              "internalType": "uint64",
              "name": "end",
              "type": "uint64"
            },
            {
              "internalType": "uint64",
              "name": "designs",
              "type": "uint64"
            },
            {
              "internalType": "uint256[]",
              "name": "distribution",
              "type": "uint256[]"
            }
          ],
          "internalType": "struct DuelistKingDistributor.Campaign",
          "name": "campaign",
          "type": "tuple"
        }
      ],
      "name": "newCampaign",
      "outputs": [
        {
          "internalType": "uint256",
          "name": "",
          "type": "uint256"
        }
      ],
      "stateMutability": "nonpayable",
      "type": "function"
    },
    {
      "inputs": [
        {
          "internalType": "uint256",
          "name": "campaignId",
          "type": "uint256"
        },
        {
          "internalType": "address",
          "name": "buyer",
          "type": "address"
        },
        {
          "internalType": "uint256",
          "name": "numberOfBoxes",
          "type": "uint256"
        }
      ],
      "name": "openBox",
      "outputs": [
        {
          "internalType": "bool",
          "name": "",
          "type": "bool"
        }
      ],
      "stateMutability": "nonpayable",
      "type": "function"
    }
  ],
  "bytecode": "0x60a06040526001600160801b03196003553480156200001d57600080fd5b5060405162001d2538038062001d2583398101604081905262000040916200011a565b6200004c838362000066565b5060601b6001600160601b031916608052506200015b9050565b6001546000901580156200008357506000546001600160a01b0316155b620000d45760405162461bcd60e51b815260206004820181905260248201527f557365723a2049742773206f6e6c792061626c6520746f20736574206f6e6365604482015260640160405180910390fd5b50600080546001600160a01b0384166001600160a01b0319909116179055600181815592915050565b80516001600160a01b03811681146200011557600080fd5b919050565b6000806000606084860312156200013057600080fd5b6200013b84620000fd565b9250602084015191506200015260408501620000fd565b90509250925092565b60805160601c611bab6200017a60003960006107f40152611bab6000f3fe608060405234801561001057600080fd5b50600436106100a95760003560e01c80635598f8cc116100715780635598f8cc146101165780635ab1bd53146101365780639188d3121461015b578063b68d180914610184578063c856d86e1461018c578063f99fdebe1461019f57600080fd5b80630c0336ba146100ae57806318cdd746146100d65780631920a746146100e95780634122f997146100fb5780634d137f6a1461010e575b600080fd5b6100c16100bc366004611669565b6101b2565b60405190151581526020015b60405180910390f35b6100c16100e43660046117ea565b610447565b6004545b6040519081526020016100cd565b6100c16101093660046115d5565b610673565b6005546100ed565b6101296101243660046117b8565b6108a5565b6040516100cd9190611945565b6000546001600160a01b03165b6040516001600160a01b0390911681526020016100cd565b6101436101693660046117b8565b6000908152600660205260409020546001600160a01b031690565b6001546100ed565b6100c161019a36600461181a565b6109bd565b6100ed6101ad3660046116d4565b611021565b600080546001546040516369d1cb4360e11b81526004810191909152654f7261636c6560d01b60248201819052916001600160a01b03169063d3a396869060440160206040518083038186803b15801561020b57600080fd5b505afa15801561021f573d6000803e3d6000fd5b505050506040513d601f19601f82011682018060405250810190610243919061158f565b6001600160a01b0316336001600160a01b03161461027c5760405162461bcd60e51b8152600401610273906118ff565b60405180910390fd5b60016005600082825461028f9190611a53565b9091555050600080546040516369d1cb4360e11b815273444b44414f20496e66726173747275637475726560601b600482015264507265737360d81b60248201526001600160a01b039091169063d3a396869060440160206040518083038186803b1580156102fd57600080fd5b505afa158015610311573d6000803e3d6000fd5b505050506040513d601f19601f82011682018060405250810190610335919061158f565b6001600160a01b031663256d34fb600154898989896040518663ffffffff1660e01b815260040161036a9594939291906118c6565b602060405180830381600087803b15801561038457600080fd5b505af1158015610398573d6000803e3d6000fd5b505050506040513d601f19601f820116820180604052508101906103bc919061158f565b6005546000908152600660205260409081902080546001600160a01b0319166001600160a01b038416179055519091506103f990889088906118b6565b6040518091039020816001600160a01b03166005547f4c6dfd685cbecb6c0e9aa2e2dca562b4ae934a91b0142268742820a90d194e7660405160405180910390a45060019695505050505050565b600080546001546040516369d1cb4360e11b81526004810191909152654f7261636c6560d01b60248201819052916001600160a01b03169063d3a396869060440160206040518083038186803b1580156104a057600080fd5b505afa1580156104b4573d6000803e3d6000fd5b505050506040513d601f19601f820116820180604052508101906104d8919061158f565b6001600160a01b0316336001600160a01b0316146105085760405162461bcd60e51b8152600401610273906118ff565b6000848152600660209081526040808320546001600160a01b031683526007909152902054156105a05760405162461bcd60e51b815260206004820152603960248201527f4469737472696275746f723a204f6e6c79206f6e652067656e6573697320656460448201527f6974696f6e2077696c6c206265206469737472696275746564000000000000006064820152608401610273565b6001600360008282546105b39190611a53565b9091555050600354600085815260066020818152604080842080546001600160a01b03908116865260078452828620879055948a905292909152905490516340c10f1960e01b81528683166004820152602481019390935216906340c10f1990604401602060405180830381600087803b15801561063057600080fd5b505af1158015610644573d6000803e3d6000fd5b505050506040513d601f19601f8201168201806040525081019061066891906115b3565b506001949350505050565b600080546040516369d1cb4360e11b815273444b44414f20496e66726173747275637475726560601b6004820181905262524e4760e81b60248301819052909290916001600160a01b039091169063d3a396869060440160206040518083038186803b1580156106e257600080fd5b505afa1580156106f6573d6000803e3d6000fd5b505050506040513d601f19601f8201168201806040525081019061071a919061158f565b6001600160a01b0316336001600160a01b0316146107925760405162461bcd60e51b815260206004820152602f60248201527f557365723a204f6e6c7920616c6c6f772063616c6c2066726f6d20616c6c6f7760448201526e32b21031b937b9b9903237b6b0b4b760891b6064820152608401610273565b83516020146107f25760405162461bcd60e51b815260206004820152602660248201527f4469737472696275746f723a2044617461206d75737420626520333220696e206044820152650d8cadccee8d60d31b6064820152608401610273565b7f00000000000000000000000000000000000000000000000000000000000000006001600160a01b0316633b3dca766040518163ffffffff1660e01b8152600401602060405180830381600087803b15801561084d57600080fd5b505af1158015610861573d6000803e3d6000fd5b505050506040513d601f19601f8201168201806040525081019061088591906117d1565b610890856000611300565b60088054919092181890555060019392505050565b604080516101008101825260008082526020820181905291810182905260608082018390526080820183905260a0820183905260c082019290925260e081019190915260008281526009602090815260409182902082516101008101845281546001600160401b038082168352600160401b808304821684870152600160801b808404831685890152600160c01b9093048216606085015260018501548083166080860152908104821660a0850152919091041660c08201526002820180548551818602810186019096528086529194929360e086019392908301828280156109ad57602002820191906000526020600020905b815481526020019060010190808311610999575b5050505050815250509050919050565b600080546001546040516369d1cb4360e11b81526004810191909152654f7261636c6560d01b60248201819052916001600160a01b03169063d3a396869060440160206040518083038186803b158015610a1657600080fd5b505afa158015610a2a573d6000803e3d6000fd5b505050506040513d601f19601f82011682018060405250810190610a4e919061158f565b6001600160a01b0316336001600160a01b031614610a7e5760405162461bcd60e51b8152600401610273906118ff565b8260011480610a8d5750826005145b80610a98575082600a145b610af65760405162461bcd60e51b815260206004820152602960248201527f4469737472696275746f723a20496e76616c6964206e756d626572206f66206c6044820152686f6f7420626f78657360b81b6064820152608401610273565b600085118015610b0857506004548511155b610b545760405162461bcd60e51b815260206004820181905260248201527f4469737472696275746f723a20496e76616c69642063616d706169676e2049646044820152606401610273565b600085815260096020908152604080832081516101008101835281546001600160401b038082168352600160401b808304821684880152600160801b808404831685880152600160c01b9093048216606085015260018501548083166080860152908104821660a0850152919091041660c08201526002820180548451818702810187019095528085529194929360e0860193909290830182828015610c1957602002820191906000526020600020905b815481526020019060010190808311610c05575b50505050508152505090508381600001818151610c369190611a6b565b6001600160401b03908116909152604083015116159050610cad5780604001516001600160401b03164211610cad5760405162461bcd60e51b815260206004820152601e60248201527f4469737472696275746f723a20436172642073616c65206973206f76657200006044820152606401610273565b60408101516001600160401b0316158015610ce1575080602001516001600160401b031681600001516001600160401b0316115b15610d0257610cf3426203f480611a53565b6001600160401b031660408201525b600060085486604051602001610d3492919091825260601b6bffffffffffffffffffffffff1916602082015260340190565b60408051601f19818403018152919052805160209091012090506000610d5b866005611aaa565b90506000806000600254905060005b84811015610e95576040805160208101889052016040516020818303038152906040528051906020012060001c955060005b61010081108015610dac57508582105b15610e8f5763ffffffff87821c169450610dc68886611384565b93508315610e7d57610dd9600184611a53565b600085815260066020526040908190205490516340c10f1960e01b81526001600160a01b038f81166004830152602482018490529295509116906340c10f1990604401602060405180830381600087803b158015610e3657600080fd5b505af1158015610e4a573d6000803e3d6000fd5b505050506040513d601f19601f82011682018060405250810190610e6e91906115b3565b50610e7a600183611a53565b91505b610e88602082611a53565b9050610d9c565b50610d6a565b508060028190555085600960008d815260200190815260200160002060008201518160000160006101000a8154816001600160401b0302191690836001600160401b0316021790555060208201518160000160086101000a8154816001600160401b0302191690836001600160401b0316021790555060408201518160000160106101000a8154816001600160401b0302191690836001600160401b0316021790555060608201518160000160186101000a8154816001600160401b0302191690836001600160401b0316021790555060808201518160010160006101000a8154816001600160401b0302191690836001600160401b0316021790555060a08201518160010160086101000a8154816001600160401b0302191690836001600160401b0316021790555060c08201518160010160106101000a8154816001600160401b0302191690836001600160401b0316021790555060e0820151816002019080519060200190611008929190611446565b5050506008949094555060019998505050505050505050565b600080546001546040516369d1cb4360e11b81526004810191909152654f7261636c6560d01b60248201819052916001600160a01b03169063d3a396869060440160206040518083038186803b15801561107a57600080fd5b505afa15801561108e573d6000803e3d6000fd5b505050506040513d601f19601f820116820180604052508101906110b2919061158f565b6001600160a01b0316336001600160a01b0316146110e25760405162461bcd60e51b8152600401610273906118ff565b8260c001516001600160401b031683608001518460a001516111049190611ac9565b6001600160401b0316146111925760405162461bcd60e51b815260206004820152604960248201527f4469737472696275746f723a204e756d626572206f662064656973676e73206160448201527f6e64206e756d626572206f6620697373756564204e465473206d757374206265606482015268207468652073616d6560b81b608482015260a401610273565b6001600460008282546111a59190611a53565b90915550506004546111b990601990611a96565b6001600160401b039081166060850190815260045460009081526009602090815260409182902087518154838a0151948a015195519187166fffffffffffffffffffffffffffffffff1991821617600160401b9588168602176fffffffffffffffffffffffffffffffff16600160801b96881687026001600160c01b031617600160c01b92881692909202919091178255608089015160018301805460a08c015160c08d015167ffffffffffffffff60801b19948b1692909516919091179089169096029590951716951690930293909317905560e0850151805186936112a7926002850192910190611446565b509050508260c001516001600160401b031683606001516001600160401b03166004547f2f3adbf67e0b50264700cb357fb47fff4ae564b62f96dd15e0ae2b8acc45526260405160405180910390a45050600454919050565b8151600090611310836020611a53565b111561137b5760405162461bcd60e51b815260206004820152603460248201527f42797465733a204f7572206f662072616e67652c2063616e206e6f7420726561604482015273642075696e743235362066726f6d20627974657360601b6064820152608401610273565b50016020015190565b6000805b8360e001515181101561143a5760008460e0015182815181106113ad576113ad611b31565b602090810291909101015190506001600160401b0380821690604083901c811690608084901c81169060c085901c9088861616831115611421576113f18289611af1565b818a608001516001600160401b031661140a9190611a53565b6114149190611a53565b9650505050505050611440565b50505050506001816114339190611a53565b9050611388565b50600090505b92915050565b828054828255906000526020600020908101928215611481579160200282015b82811115611481578251825591602001919060010190611466565b5061148d929150611491565b5090565b5b8082111561148d5760008155600101611492565b600082601f8301126114b757600080fd5b813560206001600160401b038211156114d2576114d2611b47565b8160051b6114e1828201611a23565b8381528281019086840183880185018910156114fc57600080fd5b600093505b8584101561151f578035835260019390930192918401918401611501565b50979650505050505050565b60008083601f84011261153d57600080fd5b5081356001600160401b0381111561155457600080fd5b60208301915083602082850101111561156c57600080fd5b9250929050565b80356001600160401b038116811461158a57600080fd5b919050565b6000602082840312156115a157600080fd5b81516115ac81611b5d565b9392505050565b6000602082840312156115c557600080fd5b815180151581146115ac57600080fd5b600060208083850312156115e857600080fd5b82356001600160401b03808211156115ff57600080fd5b818501915085601f83011261161357600080fd5b81358181111561162557611625611b47565b611637601f8201601f19168501611a23565b9150808252868482850101111561164d57600080fd5b8084840185840137600090820190930192909252509392505050565b6000806000806040858703121561167f57600080fd5b84356001600160401b038082111561169657600080fd5b6116a28883890161152b565b909650945060208701359150808211156116bb57600080fd5b506116c88782880161152b565b95989497509550505050565b6000602082840312156116e657600080fd5b81356001600160401b03808211156116fd57600080fd5b90830190610100828603121561171257600080fd5b61171a6119fa565b61172383611573565b815261173160208401611573565b602082015261174260408401611573565b604082015261175360608401611573565b606082015261176460808401611573565b608082015261177560a08401611573565b60a082015261178660c08401611573565b60c082015260e08301358281111561179d57600080fd5b6117a9878286016114a6565b60e08301525095945050505050565b6000602082840312156117ca57600080fd5b5035919050565b6000602082840312156117e357600080fd5b5051919050565b600080604083850312156117fd57600080fd5b82359150602083013561180f81611b5d565b809150509250929050565b60008060006060848603121561182f57600080fd5b83359250602084013561184181611b5d565b929592945050506040919091013590565b600081518084526020808501945080840160005b8381101561188257815187529582019590820190600101611866565b509495945050505050565b81835281816020850137506000828201602090810191909152601f909101601f19169091010190565b8183823760009101908152919050565b8581526060602082015260006118e060608301868861188d565b82810360408401526118f381858761188d565b98975050505050505050565b60208082526026908201527f557365723a204f6e6c7920616c6c6f772063616c6c2066726f6d2073616d65206040820152653237b6b0b4b760d11b606082015260800190565b6020815260006001600160401b0380845116602084015280602085015116604084015250604083015161198360608401826001600160401b03169052565b5060608301516001600160401b03811660808401525060808301516001600160401b03811660a08401525060a08301516001600160401b03811660c08401525060c08301516001600160401b03811660e08401525060e0830151610100838101526119f2610120840182611852565b949350505050565b60405161010081016001600160401b0381118282101715611a1d57611a1d611b47565b60405290565b604051601f8201601f191681016001600160401b0381118282101715611a4b57611a4b611b47565b604052919050565b60008219821115611a6657611a66611b05565b500190565b60006001600160401b03808316818516808303821115611a8d57611a8d611b05565b01949350505050565b600082611aa557611aa5611b1b565b500490565b6000816000190483118215151615611ac457611ac4611b05565b500290565b60006001600160401b0383811690831681811015611ae957611ae9611b05565b039392505050565b600082611b0057611b00611b1b565b500690565b634e487b7160e01b600052601160045260246000fd5b634e487b7160e01b600052601260045260246000fd5b634e487b7160e01b600052603260045260246000fd5b634e487b7160e01b600052604160045260246000fd5b6001600160a01b0381168114611b7257600080fd5b5056fea2646970667358221220179fafe0e822840b64cfa6312bc464fc02ab496394810b9c01e93d928ca65d7764736f6c63430008060033",
  "linkReferences": {},
  "deployedLinkReferences": {}
}