{
  "_format": "hh-sol-artifact-1",
  "contractName": "DuelistKingDistributor",
  "sourceName": "contracts/dk/DuelistKingDistributor.sol",
  "abi": [
    {
      "inputs": [
        {
          "internalType": "address",
          "name": "_registry",
          "type": "address"
        },
        {
          "internalType": "bytes32",
          "name": "_domain",
          "type": "bytes32"
        },
        {
          "internalType": "address",
          "name": "divine",
          "type": "address"
        }
      ],
      "stateMutability": "nonpayable",
      "type": "constructor"
    },
    {
      "anonymous": false,
      "inputs": [
        {
          "indexed": true,
          "internalType": "uint256",
          "name": "campaginId",
          "type": "uint256"
        },
        {
          "indexed": true,
          "internalType": "uint256",
          "name": "generation",
          "type": "uint256"
        },
        {
          "indexed": true,
          "internalType": "uint64",
          "name": "softcap",
          "type": "uint64"
        }
      ],
      "name": "NewCampaign",
      "type": "event"
    },
    {
      "inputs": [
        {
          "internalType": "bytes",
          "name": "data",
          "type": "bytes"
        }
      ],
      "name": "compute",
      "outputs": [
        {
          "internalType": "bool",
          "name": "",
          "type": "bool"
        }
      ],
      "stateMutability": "nonpayable",
      "type": "function"
    },
    {
      "inputs": [
        {
          "internalType": "uint256",
          "name": "index",
          "type": "uint256"
        }
      ],
      "name": "getCampaign",
      "outputs": [
        {
          "components": [
            {
              "internalType": "uint64",
              "name": "opened",
              "type": "uint64"
            },
            {
              "internalType": "uint64",
              "name": "softCap",
              "type": "uint64"
            },
            {
              "internalType": "uint64",
              "name": "deadline",
              "type": "uint64"
            },
            {
              "internalType": "uint64",
              "name": "generation",
              "type": "uint64"
            },
            {
              "internalType": "uint64",
              "name": "start",
              "type": "uint64"
            },
            {
              "internalType": "uint64",
              "name": "end",
              "type": "uint64"
            },
            {
              "internalType": "uint256[]",
              "name": "distribution",
              "type": "uint256[]"
            }
          ],
          "internalType": "struct DuelistKingDistributor.Campaign",
          "name": "",
          "type": "tuple"
        }
      ],
      "stateMutability": "view",
      "type": "function"
    },
    {
      "inputs": [],
      "name": "getCampaignIndex",
      "outputs": [
        {
          "internalType": "uint256",
          "name": "",
          "type": "uint256"
        }
      ],
      "stateMutability": "view",
      "type": "function"
    },
    {
      "inputs": [],
      "name": "getDomain",
      "outputs": [
        {
          "internalType": "bytes32",
          "name": "",
          "type": "bytes32"
        }
      ],
      "stateMutability": "view",
      "type": "function"
    },
    {
      "inputs": [],
      "name": "getRegistry",
      "outputs": [
        {
          "internalType": "address",
          "name": "",
          "type": "address"
        }
      ],
      "stateMutability": "view",
      "type": "function"
    },
    {
      "inputs": [
        {
          "internalType": "address",
          "name": "owner",
          "type": "address"
        },
        {
          "internalType": "uint256",
          "name": "id",
          "type": "uint256"
        }
      ],
      "name": "issueGenesisEdittion",
      "outputs": [
        {
          "internalType": "bool",
          "name": "",
          "type": "bool"
        }
      ],
      "stateMutability": "nonpayable",
      "type": "function"
    },
    {
      "inputs": [
        {
          "components": [
            {
              "internalType": "uint64",
              "name": "opened",
              "type": "uint64"
            },
            {
              "internalType": "uint64",
              "name": "softCap",
              "type": "uint64"
            },
            {
              "internalType": "uint64",
              "name": "deadline",
              "type": "uint64"
            },
            {
              "internalType": "uint64",
              "name": "generation",
              "type": "uint64"
            },
            {
              "internalType": "uint64",
              "name": "start",
              "type": "uint64"
            },
            {
              "internalType": "uint64",
              "name": "end",
              "type": "uint64"
            },
            {
              "internalType": "uint256[]",
              "name": "distribution",
              "type": "uint256[]"
            }
          ],
          "internalType": "struct DuelistKingDistributor.Campaign",
          "name": "campaign",
          "type": "tuple"
        }
      ],
      "name": "newCampaign",
      "outputs": [
        {
          "internalType": "uint256",
          "name": "",
          "type": "uint256"
        }
      ],
      "stateMutability": "nonpayable",
      "type": "function"
    },
    {
      "inputs": [
        {
          "internalType": "uint256",
          "name": "campaignId",
          "type": "uint256"
        },
        {
          "internalType": "address",
          "name": "owner",
          "type": "address"
        },
        {
          "internalType": "uint256",
          "name": "numberOfBoxes",
          "type": "uint256"
        }
      ],
      "name": "openBox",
      "outputs": [
        {
          "internalType": "bool",
          "name": "",
          "type": "bool"
        }
      ],
      "stateMutability": "nonpayable",
      "type": "function"
    }
  ],
  "bytecode": "0x60a06040523480156200001157600080fd5b50604051620019093803806200190983398101604081905262000034916200010e565b6200004083836200005a565b5060601b6001600160601b031916608052506200014f9050565b6001546000901580156200007757506000546001600160a01b0316155b620000c85760405162461bcd60e51b815260206004820181905260248201527f557365723a2049742773206f6e6c792061626c6520746f20736574206f6e6365604482015260640160405180910390fd5b50600080546001600160a01b0384166001600160a01b0319909116179055600181815592915050565b80516001600160a01b03811681146200010957600080fd5b919050565b6000806000606084860312156200012457600080fd5b6200012f84620000f1565b9250602084015191506200014660408501620000f1565b90509250925092565b60805160601c61179b6200016e600039600061057a015261179b6000f3fe608060405234801561001057600080fd5b50600436106100885760003560e01c80635ab1bd531161005b5780635ab1bd53146100fa578063af161ac914610115578063b68d180914610128578063c856d86e1461013057600080fd5b806311a547341461008d5780631920a746146100b55780634122f997146100c75780635598f8cc146100da575b600080fd5b6100a061009b3660046112c9565b610143565b60405190151581526020015b60405180910390f35b6003545b6040519081526020016100ac565b6100a06100d5366004611317565b6103f9565b6100ed6100e836600461147d565b61062b565b6040516100ac919061155b565b6000546040516001600160a01b0390911681526020016100ac565b6100b96101233660046113ab565b61072f565b6001546100b9565b6100a061013e3660046114af565b610918565b600080546001546040516369d1cb4360e11b81526004810191909152654f7261636c6560d01b60248201819052916001600160a01b03169063d3a396869060440160206040518083038186803b15801561019c57600080fd5b505afa1580156101b0573d6000803e3d6000fd5b505050506040513d601f19601f820116820180604052508101906101d491906112a5565b6001600160a01b0316336001600160a01b03161461020d5760405162461bcd60e51b815260040161020490611515565b60405180910390fd5b600061021e61ffff60b01b85610f5a565b600081815260046020526040902054909150156102a35760405162461bcd60e51b815260206004820152603960248201527f4469737472696275746f723a204f6e6c79206f6e652067656e6573697320656460448201527f6974696f6e2077696c6c206265206469737472696275746564000000000000006064820152608401610204565b6001600260008282546102b69190611658565b90915550506002546000906102cc908390610f79565b6000838152600460208190526040808320849055915491516369d1cb4360e11b81529293506001600160a01b039091169163d3a396869161030d91016114e7565b60206040518083038186803b15801561032557600080fd5b505afa158015610339573d6000803e3d6000fd5b505050506040513d601f19601f8201168201806040525081019061035d91906112a5565b6001546040516305604b4360e31b815260048101919091526001600160a01b038881166024830152604482018490529190911690632b025a1890606401602060405180830381600087803b1580156103b457600080fd5b505af11580156103c8573d6000803e3d6000fd5b505050506040513d601f19601f820116820180604052508101906103ec91906112f5565b5060019695505050505050565b600080546040516369d1cb4360e11b815273444b44414f20496e66726173747275637475726560601b6004820181905262524e4760e81b60248301819052909290916001600160a01b039091169063d3a396869060440160206040518083038186803b15801561046857600080fd5b505afa15801561047c573d6000803e3d6000fd5b505050506040513d601f19601f820116820180604052508101906104a091906112a5565b6001600160a01b0316336001600160a01b0316146105185760405162461bcd60e51b815260206004820152602f60248201527f557365723a204f6e6c7920616c6c6f772063616c6c2066726f6d20616c6c6f7760448201526e32b21031b937b9b9903237b6b0b4b760891b6064820152608401610204565b83516020146105785760405162461bcd60e51b815260206004820152602660248201527f4469737472696275746f723a2044617461206d75737420626520333220696e206044820152650d8cadccee8d60d31b6064820152608401610204565b7f00000000000000000000000000000000000000000000000000000000000000006001600160a01b0316633b3dca766040518163ffffffff1660e01b8152600401602060405180830381600087803b1580156105d357600080fd5b505af11580156105e7573d6000803e3d6000fd5b505050506040513d601f19601f8201168201806040525081019061060b9190611496565b610616856000610f8f565b60058054919092181890555060019392505050565b6040805160e08101825260008082526020820181905291810182905260608082018390526080820183905260a082019290925260c0810191909152600082815260066020908152604091829020825160e08101845281546001600160401b038082168352600160401b808304821684870152600160801b8304821684880152600160c01b9092048116606084015260018401548082166080850152919091041660a08201526002820180548551818602810186019096528086529194929360c0860193929083018282801561071f57602002820191906000526020600020905b81548152602001906001019080831161070b575b5050505050815250509050919050565b600080546001546040516369d1cb4360e11b81526004810191909152654f7261636c6560d01b60248201819052916001600160a01b03169063d3a396869060440160206040518083038186803b15801561078857600080fd5b505afa15801561079c573d6000803e3d6000fd5b505050506040513d601f19601f820116820180604052508101906107c091906112a5565b6001600160a01b0316336001600160a01b0316146107f05760405162461bcd60e51b815260040161020490611515565b6001600360008282546108039190611658565b909155505060035460009081526006602090815260409182902085518154878401519488015160608901516001600160401b039384166001600160801b031993841617600160401b9785168802176001600160801b0316600160801b928516929092026001600160c01b031691909117600160c01b91841691909102178355608088015160018401805460a08b015192851693169290921792169094021790925560c085015180518693926108bf9260028501929101906111a4565b5090505082602001516001600160401b031683606001516001600160401b03166003547f2f3adbf67e0b50264700cb357fb47fff4ae564b62f96dd15e0ae2b8acc45526260405160405180910390a45050600354919050565b600080546001546040516369d1cb4360e11b81526004810191909152654f7261636c6560d01b60248201819052916001600160a01b03169063d3a396869060440160206040518083038186803b15801561097157600080fd5b505afa158015610985573d6000803e3d6000fd5b505050506040513d601f19601f820116820180604052508101906109a991906112a5565b6001600160a01b0316336001600160a01b0316146109d95760405162461bcd60e51b815260040161020490611515565b600a831115610a3c5760405162461bcd60e51b815260206004820152602960248201527f4469737472696275746f723a20496e76616c6964206e756d626572206f66206c6044820152686f6f7420626f78657360b81b6064820152608401610204565b600080546040516369d1cb4360e11b81526001600160a01b039091169063d3a3968690610a6b906004016114e7565b60206040518083038186803b158015610a8357600080fd5b505afa158015610a97573d6000803e3d6000fd5b505050506040513d601f19601f82011682018060405250810190610abb91906112a5565b9050600086118015610acf57506003548611155b610b1b5760405162461bcd60e51b815260206004820181905260248201527f4469737472696275746f723a20496e76616c69642063616d706169676e2049646044820152606401610204565b6000868152600660209081526040808320815160e08101835281546001600160401b038082168352600160401b808304821684880152600160801b8304821684870152600160c01b9092048116606084015260018401548082166080850152919091041660a08201526002820180548451818702810187019095528085529194929360c0860193909290830182828015610bd457602002820191906000526020600020905b815481526020019060010190808311610bc0575b50505050508152505090508481600001818151610bf19190611670565b6001600160401b03908116909152604083015116159050610c685780604001516001600160401b03164211610c685760405162461bcd60e51b815260206004820152601e60248201527f4469737472696275746f723a20436172642073616c65206973206f76657200006044820152606401610204565b60408101516001600160401b0316158015610c9c575080602001516001600160401b031681600001516001600160401b0316115b15610cbd57610cae426203f480611658565b6001600160401b031660408201525b600060055487604051602001610cef92919091825260601b6bffffffffffffffffffffffff1916602082015260340190565b60408051601f19818403018152919052805160209091012090506000610d1687600561169b565b9050600080610d3c85606001516001600160401b0316600061101390919063ffffffff16565b60025490915060005b84811015610e89576040805160208101889052016040516020818303038152906040528051906020012060001c955060005b61010081108015610d8757508582105b15610e835763ffffffff87821c169450610da18886611024565b93508315610e7157610db4600184611658565b9250886001600160a01b0316632b025a186001548f610ddc8789610f7990919063ffffffff16565b6040516001600160e01b031960e086901b16815260048101939093526001600160a01b0390911660248301526044820152606401602060405180830381600087803b158015610e2a57600080fd5b505af1158015610e3e573d6000803e3d6000fd5b505050506040513d601f19601f82011682018060405250810190610e6291906112f5565b50610e6e600183611658565b91505b610e7c602082611658565b9050610d77565b50610d45565b50600281815560008d815260066020908152604091829020895181548b840151948c015160608d01516001600160401b039384166001600160801b031993841617600160401b9785168802176001600160801b0316600160801b928516929092026001600160c01b031691909117600160c01b9184169190910217835560808c015160018401805460a08f015192851693169290921792169094021790925560c089015180518a94610f40939085019201906111a4565b5050506005949094555060019a9950505050505050505050565b6000610f708360406001600160401b0385611132565b90505b92915050565b6000610f708360006001600160401b0385611132565b8151600090610f9f836020611658565b111561100a5760405162461bcd60e51b815260206004820152603460248201527f42797465733a204f7572206f662072616e67652c2063616e206e6f7420726561604482015273642075696e743235362066726f6d20627974657360601b6064820152608401610204565b50016020015190565b6000610f708360a061ffff85611132565b6000808360200151600561103891906116ba565b61104b906001600160401b0316846116e9565b905060005b8460c00151518110156111275760008560c00151828151811061107557611075611721565b602090810291909101810151915063ffffffff8083169183901c811690604084901c811690606085901c811690608086901c168388108015906110b85750848811155b1561110d576110fe6110ca828c6116e9565b838d608001516001600160401b03166110e39190611658565b6110ed9190611658565b6110f8600086611193565b90610f5a565b98505050505050505050610f73565b5050505050506001816111209190611658565b9050611050565b506000949350505050565b600081831783146111855760405162461bcd60e51b815260206004820152601c60248201527f436172643a204e65772076616c7565206973206f75742072616e6765000000006044820152606401610204565b50821b911b19919091161790565b6000610f7083609061ffff85611132565b8280548282559060005260206000209081019282156111df579160200282015b828111156111df5782518255916020019190600101906111c4565b506111eb9291506111ef565b5090565b5b808211156111eb57600081556001016111f0565b600082601f83011261121557600080fd5b813560206001600160401b0382111561123057611230611737565b8160051b61123f828201611628565b83815282810190868401838801850189101561125a57600080fd5b600093505b8584101561127d57803583526001939093019291840191840161125f565b50979650505050505050565b80356001600160401b03811681146112a057600080fd5b919050565b6000602082840312156112b757600080fd5b81516112c28161174d565b9392505050565b600080604083850312156112dc57600080fd5b82356112e78161174d565b946020939093013593505050565b60006020828403121561130757600080fd5b815180151581146112c257600080fd5b6000602080838503121561132a57600080fd5b82356001600160401b038082111561134157600080fd5b818501915085601f83011261135557600080fd5b81358181111561136757611367611737565b611379601f8201601f19168501611628565b9150808252868482850101111561138f57600080fd5b8084840185840137600090820190930192909252509392505050565b6000602082840312156113bd57600080fd5b81356001600160401b03808211156113d457600080fd5b9083019060e082860312156113e857600080fd5b6113f0611600565b6113f983611289565b815261140760208401611289565b602082015261141860408401611289565b604082015261142960608401611289565b606082015261143a60808401611289565b608082015261144b60a08401611289565b60a082015260c08301358281111561146257600080fd5b61146e87828601611204565b60c08301525095945050505050565b60006020828403121561148f57600080fd5b5035919050565b6000602082840312156114a857600080fd5b5051919050565b6000806000606084860312156114c457600080fd5b8335925060208401356114d68161174d565b929592945050506040919091013590565b73444b44414f20496e66726173747275637475726560601b815264507265737360d81b602082015260400190565b60208082526026908201527f557365723a204f6e6c7920616c6c6f772063616c6c2066726f6d2073616d65206040820152653237b6b0b4b760d11b606082015260800190565b6000602080835261010083016001600160401b03808651168386015280838701511660408601528060408701511660608601528060608701511660808601528060808701511660a08601528060a08701511660c08601525060c085015160e080860152818151808452610120870191508483019350600092505b808310156115f557835182529284019260019290920191908401906115d5565b509695505050505050565b60405160e081016001600160401b038111828210171561162257611622611737565b60405290565b604051601f8201601f191681016001600160401b038111828210171561165057611650611737565b604052919050565b6000821982111561166b5761166b61170b565b500190565b60006001600160401b038083168185168083038211156116925761169261170b565b01949350505050565b60008160001904831182151516156116b5576116b561170b565b500290565b60006001600160401b03808316818516818304811182151516156116e0576116e061170b565b02949350505050565b60008261170657634e487b7160e01b600052601260045260246000fd5b500690565b634e487b7160e01b600052601160045260246000fd5b634e487b7160e01b600052603260045260246000fd5b634e487b7160e01b600052604160045260246000fd5b6001600160a01b038116811461176257600080fd5b5056fea2646970667358221220480e7a7349b84ed4e686fbadd0e4b6e1d9ea492e85867f2d5a00b7c385be29d764736f6c63430008060033",
  "linkReferences": {},
  "deployedLinkReferences": {}
}