{
  "_format": "hh-sol-artifact-1",
  "contractName": "DuelistKingDistributor",
  "sourceName": "contracts/dk/DuelistKingDistributor.sol",
  "abi": [
    {
      "inputs": [
        {
          "internalType": "address",
          "name": "_registry",
          "type": "address"
        },
        {
          "internalType": "bytes32",
          "name": "_domain",
          "type": "bytes32"
        },
        {
          "internalType": "address",
          "name": "divine",
          "type": "address"
        }
      ],
      "stateMutability": "nonpayable",
      "type": "constructor"
    },
    {
      "anonymous": false,
      "inputs": [
        {
          "indexed": true,
          "internalType": "uint256",
          "name": "campaginId",
          "type": "uint256"
        },
        {
          "indexed": true,
          "internalType": "uint256",
          "name": "generation",
          "type": "uint256"
        },
        {
          "indexed": true,
          "internalType": "uint64",
          "name": "designs",
          "type": "uint64"
        }
      ],
      "name": "NewCampaign",
      "type": "event"
    },
    {
      "anonymous": false,
      "inputs": [
        {
          "indexed": true,
          "internalType": "uint256",
          "name": "cardIndex",
          "type": "uint256"
        },
        {
          "indexed": true,
          "internalType": "address",
          "name": "cardAddress",
          "type": "address"
        },
        {
          "indexed": true,
          "internalType": "string",
          "name": "cardName",
          "type": "string"
        }
      ],
      "name": "NewCard",
      "type": "event"
    },
    {
      "inputs": [
        {
          "internalType": "bytes",
          "name": "data",
          "type": "bytes"
        }
      ],
      "name": "compute",
      "outputs": [
        {
          "internalType": "bool",
          "name": "",
          "type": "bool"
        }
      ],
      "stateMutability": "nonpayable",
      "type": "function"
    },
    {
      "inputs": [
        {
          "internalType": "uint256",
          "name": "index",
          "type": "uint256"
        }
      ],
      "name": "getCampaign",
      "outputs": [
        {
          "components": [
            {
              "internalType": "uint64",
              "name": "opened",
              "type": "uint64"
            },
            {
              "internalType": "uint64",
              "name": "softCap",
              "type": "uint64"
            },
            {
              "internalType": "uint64",
              "name": "deadline",
              "type": "uint64"
            },
            {
              "internalType": "uint64",
              "name": "generation",
              "type": "uint64"
            },
            {
              "internalType": "uint64",
              "name": "start",
              "type": "uint64"
            },
            {
              "internalType": "uint64",
              "name": "end",
              "type": "uint64"
            },
            {
              "internalType": "uint64",
              "name": "designs",
              "type": "uint64"
            },
            {
              "internalType": "uint256[]",
              "name": "distribution",
              "type": "uint256[]"
            }
          ],
          "internalType": "struct DuelistKingDistributor.Campaign",
          "name": "",
          "type": "tuple"
        }
      ],
      "stateMutability": "view",
      "type": "function"
    },
    {
      "inputs": [],
      "name": "getCampaignIndex",
      "outputs": [
        {
          "internalType": "uint256",
          "name": "",
          "type": "uint256"
        }
      ],
      "stateMutability": "view",
      "type": "function"
    },
    {
      "inputs": [
        {
          "internalType": "uint256",
          "name": "index",
          "type": "uint256"
        }
      ],
      "name": "getCard",
      "outputs": [
        {
          "internalType": "address",
          "name": "",
          "type": "address"
        }
      ],
      "stateMutability": "view",
      "type": "function"
    },
    {
      "inputs": [],
      "name": "getCardIndex",
      "outputs": [
        {
          "internalType": "uint256",
          "name": "",
          "type": "uint256"
        }
      ],
      "stateMutability": "view",
      "type": "function"
    },
    {
      "inputs": [],
      "name": "getDomain",
      "outputs": [
        {
          "internalType": "bytes32",
          "name": "",
          "type": "bytes32"
        }
      ],
      "stateMutability": "view",
      "type": "function"
    },
    {
      "inputs": [],
      "name": "getRegistry",
      "outputs": [
        {
          "internalType": "address",
          "name": "",
          "type": "address"
        }
      ],
      "stateMutability": "view",
      "type": "function"
    },
    {
      "inputs": [
        {
          "internalType": "string",
          "name": "name",
          "type": "string"
        },
        {
          "internalType": "string",
          "name": "symbol",
          "type": "string"
        }
      ],
      "name": "issueCard",
      "outputs": [
        {
          "internalType": "bool",
          "name": "",
          "type": "bool"
        }
      ],
      "stateMutability": "nonpayable",
      "type": "function"
    },
    {
      "inputs": [
        {
          "internalType": "uint256",
          "name": "cardId",
          "type": "uint256"
        },
        {
          "internalType": "address",
          "name": "owner",
          "type": "address"
        }
      ],
      "name": "issueGenesisEdittion",
      "outputs": [
        {
          "internalType": "bool",
          "name": "",
          "type": "bool"
        }
      ],
      "stateMutability": "nonpayable",
      "type": "function"
    },
    {
      "inputs": [
        {
          "components": [
            {
              "internalType": "uint64",
              "name": "opened",
              "type": "uint64"
            },
            {
              "internalType": "uint64",
              "name": "softCap",
              "type": "uint64"
            },
            {
              "internalType": "uint64",
              "name": "deadline",
              "type": "uint64"
            },
            {
              "internalType": "uint64",
              "name": "generation",
              "type": "uint64"
            },
            {
              "internalType": "uint64",
              "name": "start",
              "type": "uint64"
            },
            {
              "internalType": "uint64",
              "name": "end",
              "type": "uint64"
            },
            {
              "internalType": "uint64",
              "name": "designs",
              "type": "uint64"
            },
            {
              "internalType": "uint256[]",
              "name": "distribution",
              "type": "uint256[]"
            }
          ],
          "internalType": "struct DuelistKingDistributor.Campaign",
          "name": "campaign",
          "type": "tuple"
        }
      ],
      "name": "newCampaign",
      "outputs": [
        {
          "internalType": "uint256",
          "name": "",
          "type": "uint256"
        }
      ],
      "stateMutability": "nonpayable",
      "type": "function"
    },
    {
      "inputs": [
        {
          "internalType": "uint256",
          "name": "campaignId",
          "type": "uint256"
        },
        {
          "internalType": "address",
          "name": "buyer",
          "type": "address"
        },
        {
          "internalType": "uint256",
          "name": "numberOfBoxes",
          "type": "uint256"
        }
      ],
      "name": "openBox",
      "outputs": [
        {
          "internalType": "bool",
          "name": "",
          "type": "bool"
        }
      ],
      "stateMutability": "nonpayable",
      "type": "function"
    }
  ],
  "bytecode": "0x60a06040523480156200001157600080fd5b5060405162001cd538038062001cd583398101604081905262000034916200010e565b6200004083836200005a565b5060601b6001600160601b031916608052506200014f9050565b6001546000901580156200007757506000546001600160a01b0316155b620000c85760405162461bcd60e51b815260206004820181905260248201527f557365723a2049742773206f6e6c792061626c6520746f20736574206f6e6365604482015260640160405180910390fd5b50600080546001600160a01b0384166001600160a01b0319909116179055600181815592915050565b80516001600160a01b03811681146200010957600080fd5b919050565b6000806000606084860312156200012457600080fd5b6200012f84620000f1565b9250602084015191506200014660408501620000f1565b90509250925092565b60805160601c611b676200016e60003960006108020152611b676000f3fe608060405234801561001057600080fd5b50600436106100a95760003560e01c80635598f8cc116100715780635598f8cc146101165780635ab1bd53146101365780639188d3121461015b578063b68d180914610184578063c856d86e1461018c578063f99fdebe1461019f57600080fd5b80630c0336ba146100ae57806318cdd746146100d65780631920a746146100e95780634122f997146100fb5780634d137f6a1461010e575b600080fd5b6100c16100bc366004611625565b6101b2565b60405190151581526020015b60405180910390f35b6100c16100e43660046117a6565b610447565b6004545b6040519081526020016100cd565b6100c1610109366004611591565b610681565b6005546100ed565b610129610124366004611774565b6108b3565b6040516100cd9190611901565b6000546001600160a01b03165b6040516001600160a01b0390911681526020016100cd565b610143610169366004611774565b6000908152600660205260409020546001600160a01b031690565b6001546100ed565b6100c161019a3660046117d6565b6109cb565b6100ed6101ad366004611690565b610fe6565b600080546001546040516369d1cb4360e11b81526004810191909152654f7261636c6560d01b60248201819052916001600160a01b03169063d3a396869060440160206040518083038186803b15801561020b57600080fd5b505afa15801561021f573d6000803e3d6000fd5b505050506040513d601f19601f82011682018060405250810190610243919061154b565b6001600160a01b0316336001600160a01b03161461027c5760405162461bcd60e51b8152600401610273906118bb565b60405180910390fd5b60016005600082825461028f9190611a0f565b9091555050600080546040516369d1cb4360e11b815273444b44414f20496e66726173747275637475726560601b600482015264507265737360d81b60248201526001600160a01b039091169063d3a396869060440160206040518083038186803b1580156102fd57600080fd5b505afa158015610311573d6000803e3d6000fd5b505050506040513d601f19601f82011682018060405250810190610335919061154b565b6001600160a01b031663256d34fb600154898989896040518663ffffffff1660e01b815260040161036a959493929190611882565b602060405180830381600087803b15801561038457600080fd5b505af1158015610398573d6000803e3d6000fd5b505050506040513d601f19601f820116820180604052508101906103bc919061154b565b6005546000908152600660205260409081902080546001600160a01b0319166001600160a01b038416179055519091506103f99088908890611872565b6040518091039020816001600160a01b03166005547f4c6dfd685cbecb6c0e9aa2e2dca562b4ae934a91b0142268742820a90d194e7660405160405180910390a45060019695505050505050565b600080546001546040516369d1cb4360e11b81526004810191909152654f7261636c6560d01b60248201819052916001600160a01b03169063d3a396869060440160206040518083038186803b1580156104a057600080fd5b505afa1580156104b4573d6000803e3d6000fd5b505050506040513d601f19601f820116820180604052508101906104d8919061154b565b6001600160a01b0316336001600160a01b0316146105085760405162461bcd60e51b8152600401610273906118bb565b6000848152600660209081526040808320546001600160a01b031683526007909152902054156105a05760405162461bcd60e51b815260206004820152603960248201527f4469737472696275746f723a204f6e6c79206f6e652067656e6573697320656460448201527f6974696f6e2077696c6c206265206469737472696275746564000000000000006064820152608401610273565b6001600360008282546105b39190611a0f565b9091555050600354600085815260066020818152604080842080546001600160a01b039081168652600784528286206001600160801b031990971796879055948a905292909152905490516340c10f1960e01b81528683166004820152602481018490529116906340c10f1990604401602060405180830381600087803b15801561063d57600080fd5b505af1158015610651573d6000803e3d6000fd5b505050506040513d601f19601f82011682018060405250810190610675919061156f565b50600195945050505050565b600080546040516369d1cb4360e11b815273444b44414f20496e66726173747275637475726560601b6004820181905262524e4760e81b60248301819052909290916001600160a01b039091169063d3a396869060440160206040518083038186803b1580156106f057600080fd5b505afa158015610704573d6000803e3d6000fd5b505050506040513d601f19601f82011682018060405250810190610728919061154b565b6001600160a01b0316336001600160a01b0316146107a05760405162461bcd60e51b815260206004820152602f60248201527f557365723a204f6e6c7920616c6c6f772063616c6c2066726f6d20616c6c6f7760448201526e32b21031b937b9b9903237b6b0b4b760891b6064820152608401610273565b83516020146108005760405162461bcd60e51b815260206004820152602660248201527f4469737472696275746f723a2044617461206d75737420626520333220696e206044820152650d8cadccee8d60d31b6064820152608401610273565b7f00000000000000000000000000000000000000000000000000000000000000006001600160a01b0316633b3dca766040518163ffffffff1660e01b8152600401602060405180830381600087803b15801561085b57600080fd5b505af115801561086f573d6000803e3d6000fd5b505050506040513d601f19601f82011682018060405250810190610893919061178d565b61089e8560006112bc565b60088054919092181890555060019392505050565b604080516101008101825260008082526020820181905291810182905260608082018390526080820183905260a0820183905260c082019290925260e081019190915260008281526009602090815260409182902082516101008101845281546001600160401b038082168352600160401b808304821684870152600160801b808404831685890152600160c01b9093048216606085015260018501548083166080860152908104821660a0850152919091041660c08201526002820180548551818602810186019096528086529194929360e086019392908301828280156109bb57602002820191906000526020600020905b8154815260200190600101908083116109a7575b5050505050815250509050919050565b600080546001546040516369d1cb4360e11b81526004810191909152654f7261636c6560d01b60248201819052916001600160a01b03169063d3a396869060440160206040518083038186803b158015610a2457600080fd5b505afa158015610a38573d6000803e3d6000fd5b505050506040513d601f19601f82011682018060405250810190610a5c919061154b565b6001600160a01b0316336001600160a01b031614610a8c5760405162461bcd60e51b8152600401610273906118bb565b8260011480610a9b5750826005145b80610aa6575082600a145b610b045760405162461bcd60e51b815260206004820152602960248201527f4469737472696275746f723a20496e76616c6964206e756d626572206f66206c6044820152686f6f7420626f78657360b81b6064820152608401610273565b600085118015610b1657506004548511155b610b625760405162461bcd60e51b815260206004820181905260248201527f4469737472696275746f723a20496e76616c69642063616d706169676e2049646044820152606401610273565b600085815260096020908152604080832081516101008101835281546001600160401b038082168352600160401b808304821684880152600160801b808404831685880152600160c01b9093048216606085015260018501548083166080860152908104821660a0850152919091041660c08201526002820180548451818702810187019095528085529194929360e0860193909290830182828015610c2757602002820191906000526020600020905b815481526020019060010190808311610c13575b50505050508152505090508381600001818151610c449190611a27565b6001600160401b03908116909152604083015116159050610cbb5780604001516001600160401b03164211610cbb5760405162461bcd60e51b815260206004820152601e60248201527f4469737472696275746f723a20436172642073616c65206973206f76657200006044820152606401610273565b60408101516001600160401b0316158015610cef575080602001516001600160401b031681600001516001600160401b0316115b15610d1057610d01426203f480611a0f565b6001600160401b031660408201525b6008546000610d20866005611a66565b90506000806000600254905060005b84811015610e5a576040805160208101889052016040516020818303038152906040528051906020012060001c955060005b61010081108015610d7157508582105b15610e545763ffffffff87821c169450610d8b8886611340565b93508315610e4257610d9e600184611a0f565b600085815260066020526040908190205490516340c10f1960e01b81526001600160a01b038f81166004830152602482018490529295509116906340c10f1990604401602060405180830381600087803b158015610dfb57600080fd5b505af1158015610e0f573d6000803e3d6000fd5b505050506040513d601f19601f82011682018060405250810190610e33919061156f565b50610e3f600183611a0f565b91505b610e4d602082611a0f565b9050610d61565b50610d2f565b508060028190555085600960008d815260200190815260200160002060008201518160000160006101000a8154816001600160401b0302191690836001600160401b0316021790555060208201518160000160086101000a8154816001600160401b0302191690836001600160401b0316021790555060408201518160000160106101000a8154816001600160401b0302191690836001600160401b0316021790555060608201518160000160186101000a8154816001600160401b0302191690836001600160401b0316021790555060808201518160010160006101000a8154816001600160401b0302191690836001600160401b0316021790555060a08201518160010160086101000a8154816001600160401b0302191690836001600160401b0316021790555060c08201518160010160106101000a8154816001600160401b0302191690836001600160401b0316021790555060e0820151816002019080519060200190610fcd929190611402565b5050506008949094555060019998505050505050505050565b600080546001546040516369d1cb4360e11b81526004810191909152654f7261636c6560d01b60248201819052916001600160a01b03169063d3a396869060440160206040518083038186803b15801561103f57600080fd5b505afa158015611053573d6000803e3d6000fd5b505050506040513d601f19601f82011682018060405250810190611077919061154b565b6001600160a01b0316336001600160a01b0316146110a75760405162461bcd60e51b8152600401610273906118bb565b8260c001516001600160401b031683608001518460a001516110c99190611a85565b6001600160401b0316146111575760405162461bcd60e51b815260206004820152604960248201527f4469737472696275746f723a204e756d626572206f662064656973676e73206160448201527f6e64206e756d626572206f6620697373756564204e465473206d757374206265606482015268207468652073616d6560b81b608482015260a401610273565b60016004600082825461116a9190611a0f565b909155505060045461117e90601990611a52565b6001600160401b039081166060850190815260045460009081526009602090815260409182902087518154838a0151948a015195519187166001600160801b031991821617600160401b9588168602176fffffffffffffffffffffffffffffffff16600160801b96881687026001600160c01b031617600160c01b92881692909202919091178255608089015160018301805460a08c015160c08d015167ffffffffffffffff60801b19948b1692909516919091179089169096029590951716951690930293909317905560e085015180518693611263926002850192910190611402565b509050508260c001516001600160401b031683606001516001600160401b03166004547f2f3adbf67e0b50264700cb357fb47fff4ae564b62f96dd15e0ae2b8acc45526260405160405180910390a45050600454919050565b81516000906112cc836020611a0f565b11156113375760405162461bcd60e51b815260206004820152603460248201527f42797465733a204f7572206f662072616e67652c2063616e206e6f7420726561604482015273642075696e743235362066726f6d20627974657360601b6064820152608401610273565b50016020015190565b6000805b8360e00151518110156113f65760008460e00151828151811061136957611369611aed565b602090810291909101015190506001600160401b0380821690604083901c811690608084901c81169060c085901c90888616168311156113dd576113ad8289611aad565b818a608001516001600160401b03166113c69190611a0f565b6113d09190611a0f565b96505050505050506113fc565b50505050506001816113ef9190611a0f565b9050611344565b50600090505b92915050565b82805482825590600052602060002090810192821561143d579160200282015b8281111561143d578251825591602001919060010190611422565b5061144992915061144d565b5090565b5b80821115611449576000815560010161144e565b600082601f83011261147357600080fd5b813560206001600160401b0382111561148e5761148e611b03565b8160051b61149d8282016119df565b8381528281019086840183880185018910156114b857600080fd5b600093505b858410156114db5780358352600193909301929184019184016114bd565b50979650505050505050565b60008083601f8401126114f957600080fd5b5081356001600160401b0381111561151057600080fd5b60208301915083602082850101111561152857600080fd5b9250929050565b80356001600160401b038116811461154657600080fd5b919050565b60006020828403121561155d57600080fd5b815161156881611b19565b9392505050565b60006020828403121561158157600080fd5b8151801515811461156857600080fd5b600060208083850312156115a457600080fd5b82356001600160401b03808211156115bb57600080fd5b818501915085601f8301126115cf57600080fd5b8135818111156115e1576115e1611b03565b6115f3601f8201601f191685016119df565b9150808252868482850101111561160957600080fd5b8084840185840137600090820190930192909252509392505050565b6000806000806040858703121561163b57600080fd5b84356001600160401b038082111561165257600080fd5b61165e888389016114e7565b9096509450602087013591508082111561167757600080fd5b50611684878288016114e7565b95989497509550505050565b6000602082840312156116a257600080fd5b81356001600160401b03808211156116b957600080fd5b9083019061010082860312156116ce57600080fd5b6116d66119b6565b6116df8361152f565b81526116ed6020840161152f565b60208201526116fe6040840161152f565b604082015261170f6060840161152f565b60608201526117206080840161152f565b608082015261173160a0840161152f565b60a082015261174260c0840161152f565b60c082015260e08301358281111561175957600080fd5b61176587828601611462565b60e08301525095945050505050565b60006020828403121561178657600080fd5b5035919050565b60006020828403121561179f57600080fd5b5051919050565b600080604083850312156117b957600080fd5b8235915060208301356117cb81611b19565b809150509250929050565b6000806000606084860312156117eb57600080fd5b8335925060208401356117fd81611b19565b929592945050506040919091013590565b600081518084526020808501945080840160005b8381101561183e57815187529582019590820190600101611822565b509495945050505050565b81835281816020850137506000828201602090810191909152601f909101601f19169091010190565b8183823760009101908152919050565b85815260606020820152600061189c606083018688611849565b82810360408401526118af818587611849565b98975050505050505050565b60208082526026908201527f557365723a204f6e6c7920616c6c6f772063616c6c2066726f6d2073616d65206040820152653237b6b0b4b760d11b606082015260800190565b6020815260006001600160401b0380845116602084015280602085015116604084015250604083015161193f60608401826001600160401b03169052565b5060608301516001600160401b03811660808401525060808301516001600160401b03811660a08401525060a08301516001600160401b03811660c08401525060c08301516001600160401b03811660e08401525060e0830151610100838101526119ae61012084018261180e565b949350505050565b60405161010081016001600160401b03811182821017156119d9576119d9611b03565b60405290565b604051601f8201601f191681016001600160401b0381118282101715611a0757611a07611b03565b604052919050565b60008219821115611a2257611a22611ac1565b500190565b60006001600160401b03808316818516808303821115611a4957611a49611ac1565b01949350505050565b600082611a6157611a61611ad7565b500490565b6000816000190483118215151615611a8057611a80611ac1565b500290565b60006001600160401b0383811690831681811015611aa557611aa5611ac1565b039392505050565b600082611abc57611abc611ad7565b500690565b634e487b7160e01b600052601160045260246000fd5b634e487b7160e01b600052601260045260246000fd5b634e487b7160e01b600052603260045260246000fd5b634e487b7160e01b600052604160045260246000fd5b6001600160a01b0381168114611b2e57600080fd5b5056fea2646970667358221220f0e42c135d2b44d36b6fcdca7eda303d05d2aa5f536e1e2170eafd3996e3cf3b64736f6c63430008060033",
  "linkReferences": {},
  "deployedLinkReferences": {}
}