{
  "_format": "hh-sol-artifact-1",
  "contractName": "DuelistKingStaking",
  "sourceName": "contracts/dk/DuelistKingStaking.sol",
  "abi": [
    {
      "inputs": [],
      "stateMutability": "nonpayable",
      "type": "constructor"
    },
    {
      "anonymous": false,
      "inputs": [
        {
          "indexed": false,
          "internalType": "address",
          "name": "operator",
          "type": "address"
        }
      ],
      "name": "AddOperator",
      "type": "event"
    },
    {
      "anonymous": false,
      "inputs": [
        {
          "indexed": true,
          "internalType": "address",
          "name": "owner",
          "type": "address"
        },
        {
          "indexed": true,
          "internalType": "uint256",
          "name": "numberOfBoxes",
          "type": "uint256"
        },
        {
          "indexed": true,
          "internalType": "uint128",
          "name": "rewardPhaseId",
          "type": "uint128"
        },
        {
          "indexed": false,
          "internalType": "uint256",
          "name": "campaignId",
          "type": "uint256"
        },
        {
          "indexed": false,
          "internalType": "uint256",
          "name": "withdrawAmount",
          "type": "uint256"
        },
        {
          "indexed": false,
          "internalType": "bool",
          "name": "isPenalty",
          "type": "bool"
        }
      ],
      "name": "ClaimReward",
      "type": "event"
    },
    {
      "anonymous": false,
      "inputs": [
        {
          "indexed": true,
          "internalType": "uint256",
          "name": "campaignId",
          "type": "uint256"
        },
        {
          "indexed": true,
          "internalType": "uint64",
          "name": "startDate",
          "type": "uint64"
        },
        {
          "indexed": true,
          "internalType": "address",
          "name": "tokenAddress",
          "type": "address"
        }
      ],
      "name": "NewCampaign",
      "type": "event"
    },
    {
      "anonymous": false,
      "inputs": [
        {
          "indexed": true,
          "internalType": "address",
          "name": "previousOwner",
          "type": "address"
        },
        {
          "indexed": true,
          "internalType": "address",
          "name": "newOwner",
          "type": "address"
        }
      ],
      "name": "OwnershipTransferred",
      "type": "event"
    },
    {
      "anonymous": false,
      "inputs": [
        {
          "indexed": false,
          "internalType": "address",
          "name": "operator",
          "type": "address"
        }
      ],
      "name": "RemoveOperator",
      "type": "event"
    },
    {
      "anonymous": false,
      "inputs": [
        {
          "indexed": true,
          "internalType": "uint256",
          "name": "campaignId",
          "type": "uint256"
        },
        {
          "indexed": true,
          "internalType": "address",
          "name": "owner",
          "type": "address"
        },
        {
          "indexed": true,
          "internalType": "uint256",
          "name": "amount",
          "type": "uint256"
        }
      ],
      "name": "Staking",
      "type": "event"
    },
    {
      "anonymous": false,
      "inputs": [
        {
          "indexed": true,
          "internalType": "uint256",
          "name": "campaignId",
          "type": "uint256"
        },
        {
          "indexed": true,
          "internalType": "address",
          "name": "beneficiary",
          "type": "address"
        },
        {
          "indexed": true,
          "internalType": "uint256",
          "name": "amount",
          "type": "uint256"
        }
      ],
      "name": "Withdrawal",
      "type": "event"
    },
    {
      "inputs": [
        {
          "internalType": "address",
          "name": "operator_",
          "type": "address"
        }
      ],
      "name": "addOperator",
      "outputs": [],
      "stateMutability": "nonpayable",
      "type": "function"
    },
    {
      "inputs": [
        {
          "components": [
            {
              "internalType": "uint64",
              "name": "startDate",
              "type": "uint64"
            },
            {
              "internalType": "uint64",
              "name": "endDate",
              "type": "uint64"
            },
            {
              "internalType": "uint128",
              "name": "rewardPhaseId",
              "type": "uint128"
            },
            {
              "internalType": "uint256",
              "name": "returnRate",
              "type": "uint256"
            },
            {
              "internalType": "uint256",
              "name": "maxAmountOfToken",
              "type": "uint256"
            },
            {
              "internalType": "uint256",
              "name": "stakedAmountOfToken",
              "type": "uint256"
            },
            {
              "internalType": "uint256",
              "name": "limitStakingAmountForUser",
              "type": "uint256"
            },
            {
              "internalType": "address",
              "name": "tokenAddress",
              "type": "address"
            },
            {
              "internalType": "uint128",
              "name": "maxNumberOfBoxes",
              "type": "uint128"
            },
            {
              "internalType": "uint128",
              "name": "totalReceivedBoxes",
              "type": "uint128"
            }
          ],
          "internalType": "struct DuelistKingStaking.StakingCampaign",
          "name": "newCampaign",
          "type": "tuple"
        }
      ],
      "name": "createNewStakingCampaign",
      "outputs": [
        {
          "internalType": "bool",
          "name": "",
          "type": "bool"
        }
      ],
      "stateMutability": "nonpayable",
      "type": "function"
    },
    {
      "inputs": [],
      "name": "getBlockTime",
      "outputs": [
        {
          "internalType": "uint256",
          "name": "",
          "type": "uint256"
        }
      ],
      "stateMutability": "view",
      "type": "function"
    },
    {
      "inputs": [
        {
          "internalType": "uint256",
          "name": "campaignId",
          "type": "uint256"
        }
      ],
      "name": "getCampaignInfo",
      "outputs": [
        {
          "components": [
            {
              "internalType": "uint64",
              "name": "startDate",
              "type": "uint64"
            },
            {
              "internalType": "uint64",
              "name": "endDate",
              "type": "uint64"
            },
            {
              "internalType": "uint128",
              "name": "rewardPhaseId",
              "type": "uint128"
            },
            {
              "internalType": "uint256",
              "name": "returnRate",
              "type": "uint256"
            },
            {
              "internalType": "uint256",
              "name": "maxAmountOfToken",
              "type": "uint256"
            },
            {
              "internalType": "uint256",
              "name": "stakedAmountOfToken",
              "type": "uint256"
            },
            {
              "internalType": "uint256",
              "name": "limitStakingAmountForUser",
              "type": "uint256"
            },
            {
              "internalType": "address",
              "name": "tokenAddress",
              "type": "address"
            },
            {
              "internalType": "uint128",
              "name": "maxNumberOfBoxes",
              "type": "uint128"
            },
            {
              "internalType": "uint128",
              "name": "totalReceivedBoxes",
              "type": "uint128"
            }
          ],
          "internalType": "struct DuelistKingStaking.StakingCampaign",
          "name": "",
          "type": "tuple"
        }
      ],
      "stateMutability": "view",
      "type": "function"
    },
    {
      "inputs": [
        {
          "internalType": "address",
          "name": "tokenAddress",
          "type": "address"
        }
      ],
      "name": "getTotalPenaltyAmount",
      "outputs": [
        {
          "internalType": "uint256",
          "name": "",
          "type": "uint256"
        }
      ],
      "stateMutability": "view",
      "type": "function"
    },
    {
      "inputs": [
        {
          "internalType": "uint256",
          "name": "campaignId",
          "type": "uint256"
        },
        {
          "internalType": "address",
          "name": "owner",
          "type": "address"
        }
      ],
      "name": "getUserStakingSlot",
      "outputs": [
        {
          "components": [
            {
              "internalType": "uint256",
              "name": "stakingAmountOfToken",
              "type": "uint256"
            },
            {
              "internalType": "uint256",
              "name": "stakedReward",
              "type": "uint256"
            },
            {
              "internalType": "uint128",
              "name": "startStakingDate",
              "type": "uint128"
            },
            {
              "internalType": "uint128",
              "name": "lastStakingDate",
              "type": "uint128"
            }
          ],
          "internalType": "struct DuelistKingStaking.UserStakingSlot",
          "name": "",
          "type": "tuple"
        }
      ],
      "stateMutability": "view",
      "type": "function"
    },
    {
      "inputs": [
        {
          "internalType": "address",
          "name": "operator_",
          "type": "address"
        }
      ],
      "name": "isOperator",
      "outputs": [
        {
          "internalType": "bool",
          "name": "",
          "type": "bool"
        }
      ],
      "stateMutability": "view",
      "type": "function"
    },
    {
      "inputs": [],
      "name": "owner",
      "outputs": [
        {
          "internalType": "address",
          "name": "",
          "type": "address"
        }
      ],
      "stateMutability": "view",
      "type": "function"
    },
    {
      "inputs": [
        {
          "internalType": "address",
          "name": "operator_",
          "type": "address"
        }
      ],
      "name": "removeOperator",
      "outputs": [],
      "stateMutability": "nonpayable",
      "type": "function"
    },
    {
      "inputs": [],
      "name": "renounceOwnership",
      "outputs": [],
      "stateMutability": "nonpayable",
      "type": "function"
    },
    {
      "inputs": [
        {
          "internalType": "uint256",
          "name": "campaignId",
          "type": "uint256"
        },
        {
          "internalType": "uint256",
          "name": "amountOfToken",
          "type": "uint256"
        }
      ],
      "name": "staking",
      "outputs": [
        {
          "internalType": "bool",
          "name": "",
          "type": "bool"
        }
      ],
      "stateMutability": "nonpayable",
      "type": "function"
    },
    {
      "inputs": [
        {
          "internalType": "address",
          "name": "newOwner",
          "type": "address"
        }
      ],
      "name": "transferOwnership",
      "outputs": [],
      "stateMutability": "nonpayable",
      "type": "function"
    },
    {
      "inputs": [
        {
          "internalType": "uint256",
          "name": "campaignId",
          "type": "uint256"
        }
      ],
      "name": "unStaking",
      "outputs": [
        {
          "internalType": "bool",
          "name": "",
          "type": "bool"
        }
      ],
      "stateMutability": "nonpayable",
      "type": "function"
    },
    {
      "inputs": [
        {
          "internalType": "uint256",
          "name": "campaignId",
          "type": "uint256"
        },
        {
          "internalType": "address",
          "name": "beneficiary",
          "type": "address"
        }
      ],
      "name": "withdrawPenaltyToken",
      "outputs": [
        {
          "internalType": "bool",
          "name": "",
          "type": "bool"
        }
      ],
      "stateMutability": "nonpayable",
      "type": "function"
    }
  ],
  "bytecode": "0x608060405234801561001057600080fd5b5061001a33610039565b336000908152600560205260409020805460ff19166001179055610089565b600080546001600160a01b038381166001600160a01b0319831681178455604051919092169283917f8be0079c531659141344cd1fd0a4f28419497f9722a3daafe3b4186f6b6457e09190a35050565b6122cb806100986000396000f3fe608060405234801561001057600080fd5b50600436106100ea5760003560e01c80638da5cb5b1161008c578063a0c82c9e11610066578063a0c82c9e14610217578063ac8a584a1461022a578063e38e2b821461023d578063f2fde38b1461035157600080fd5b80638da5cb5b146101d6578063964671a7146101f15780639870d7fe1461020457600080fd5b8063715018a6116100c8578063715018a61461019657806381ad1430146101a057806386f43a41146101b357806387ceff09146101c657600080fd5b80632e9f411e146100ef57806368db78c6146101175780636d70f7ae1461016a575b600080fd5b6101026100fd366004611d4d565b610364565b60405190151581526020015b60405180910390f35b61012a610125366004611d21565b61098d565b604080518251815260208084015190820152828201516001600160801b03908116928201929092526060928301519091169181019190915260800161010e565b610102610178366004611c06565b6001600160a01b031660009081526005602052604090205460ff1690565b61019e610aae565b005b6101026101ae366004611c43565b610ae4565b6101026101c1366004611cef565b610eba565b425b60405190815260200161010e565b6000546040516001600160a01b03909116815260200161010e565b6101026101ff366004611d21565b61122e565b61019e610212366004611c06565b6113f0565b6101c8610225366004611c06565b61149b565b61019e610238366004611c06565b6114e0565b61034461024b366004611cef565b6040805161014081018252600080825260208201819052918101829052606081018290526080810182905260a0810182905260c0810182905260e0810182905261010081018290526101208101919091525060009081526002602081815260409283902083516101408101855281546001600160401b038082168352600160401b820416938201939093526001600160801b03600160801b9384900481169582019590955260018201546060820152928101546080840152600381015460a0840152600481015460c084015260058101546001600160a01b031660e0840152600601548084166101008401520490911661012082015290565b60405161010e9190611f35565b61019e61035f366004611c06565b611581565b600082815260026020818152604080842081516101408101835281546001600160401b038082168352600160401b82048116838701526001600160801b03600160801b92839004811684870152600180860154606080870191909152868a015460808088019190915260038089015460a0890152600489015460c089015260058901546001600160a01b031660e089019081526006909901548086166101008a015287900485166101208901528e8d528a52888c20338d528a52888c2089519182018a52805482529283015499810199909952980154808216968801969096529190940416948401949094525183519091164211801561047e575062015f9083602001516104729190612215565b6001600160401b031642105b6104cf5760405162461bcd60e51b815260206004820152601c60248201527f444b5374616b696e673a204e6f7420696e206576656e742074696d650000000060448201526064015b60405180910390fd5b60c083015182516104e190879061204e565b11156105405760405162461bcd60e51b815260206004820152602860248201527f444b5374616b696e673a20546f6b656e206c696d697420706572207573657220604482015267195e18d95959195960c21b60648201526084016104c6565b8260800151858460a00151610555919061204e565b11156105b85760405162461bcd60e51b815260206004820152602c60248201527f444b5374616b696e673a20546f6b656e206c696d6974207065722063616d706160448201526b1a59db88195e18d95959195960a21b60648201526084016104c6565b81516105ce576001600160801b03421660408301525b6040516370a0823160e01b81523060048201526000906001600160a01b038316906370a082319060240160206040518083038186803b15801561061057600080fd5b505afa158015610624573d6000803e3d6000fd5b505050506040513d601f19601f820116820180604052508101906106489190611d08565b905061065f6001600160a01b03831633308961161c565b6040516370a0823160e01b81523060048201526000906001600160a01b038416906370a082319060240160206040518083038186803b1580156106a157600080fd5b505afa1580156106b5573d6000803e3d6000fd5b505050506040513d601f19601f820116820180604052508101906106d99190611d08565b9050866106e683836121fe565b146107035760405162461bcd60e51b81526004016104c690611ef4565b868560a001818151610715919061204e565b905250610722858561168d565b60208501526001600160801b034216606085015283518790859061074790839061204e565b9150818152505084600260008a815260200190815260200160002060008201518160000160006101000a8154816001600160401b0302191690836001600160401b0316021790555060208201518160000160086101000a8154816001600160401b0302191690836001600160401b0316021790555060408201518160000160106101000a8154816001600160801b0302191690836001600160801b03160217905550606082015181600101556080820151816002015560a0820151816003015560c0820151816004015560e08201518160050160006101000a8154816001600160a01b0302191690836001600160a01b031602179055506101008201518160060160006101000a8154816001600160801b0302191690836001600160801b031602179055506101208201518160060160106101000a8154816001600160801b0302191690836001600160801b0316021790555090505083600360008a81526020019081526020016000206000336001600160a01b03166001600160a01b03168152602001908152602001600020600082015181600001556020820151816001015560408201518160020160006101000a8154816001600160801b0302191690836001600160801b0316021790555060608201518160020160106101000a8154816001600160801b0302191690836001600160801b0316021790555090505086336001600160a01b0316897f8906dd77c8a91b470550f0f832fd5d150c22abb60ce13807ad4990352351c31960405160405180910390a46001955050505050505b92915050565b6040805160808082018352600080835260208084018290528385018290526060808501839052878352600280835286842087516101408101895281546001600160401b038082168352600160401b820416828701526001600160801b03600160801b918290048116838c01526001808501548488015284860154848b015260038086015460a0860152600486015460c086015260058601546001600160a01b0390811660e087015260069096015480841661010087015284900483166101208601528e8a5288528b8920948d168952938752968a90208a519889018b52805489529283015495880195909552910154808516978601979097529190950490911693820193909352909190610aa1828261168d565b6020820152949350505050565b6000546001600160a01b03163314610ad85760405162461bcd60e51b81526004016104c690611e7c565b610ae260006117a5565b565b3360009081526005602052604081205460ff16610b135760405162461bcd60e51b81526004016104c690611eb1565b4282600001516001600160401b0316118015610b5357508151610b39906213c680612066565b6001600160401b031682602001516001600160401b031610155b610baa5760405162461bcd60e51b815260206004820152602260248201527f444b5374616b696e673a20496e76616c69642074696d656c696e6520666f726d604482015261185d60f21b60648201526084016104c6565b60006201518083600001518460200151610bc49190612215565b610bce919061209c565b9050605a816001600160401b03161115610c405760405162461bcd60e51b815260206004820152602d60248201527f444b5374616b696e673a204475726174696f6e206d757374206265206c65737360448201526c207468616e203930206461797360981b60648201526084016104c6565b600183604001516001600160801b03161015610c9e5760405162461bcd60e51b815260206004820152601b60248201527f444b5374616b696e673a20496e76616c6964207068617365206964000000000060448201526064016104c6565b60e08301516001600160a01b03163b610cc95760405162461bcd60e51b81526004016104c690611de1565b60008360e001516001600160a01b031663313ce5676040518163ffffffff1660e01b815260040160206040518083038186803b158015610d0857600080fd5b505afa158015610d1c573d6000803e3d6000fd5b505050506040513d601f19601f82011682018060405250810190610d409190611d6f565b610d4b90600a612105565b8460800151610d5a9190612088565b9050610d6f6001600160401b038316826121df565b610100850151610d8790670de0b6b3a76400006121b0565b6001600160801b0316610d9a9190612088565b606085019081526001805460009081526002602081815260408084208a518154938c0151838d01516001600160401b039283166001600160801b03199096168617600160401b9390921692909202176001600160801b03908116600160801b928216830217835597518288015560808c01519482019490945560a08b0151600382015560c08b0151600482015560e08b01516005820180546001600160a01b0319166001600160a01b0390921691821790556101008c01516101208d0151908916981690940296909617600690960195909555925493519093917fde5600cc97553ee39a21a7d3b911e3a41ca6dd60b1ec8b02e4194d0b4266f2c591a46001806000828254610ea9919061204e565b90915550600193505050505b919050565b6000818152600360208181526040808420338552825280842081516080808201845282548252600180840154838701526002938401546001600160801b0380821685880152600160801b9182900481166060808701919091528b8b52868952878b20885161014081018a5281546001600160401b038082168352600160401b8204169b82019b909b52998490048316988a0198909852928701549288019290925293850154918601919091529483015460a0850152600483015460c085015260058301546001600160a01b031660e085015260069092015480851661010085015204909216610120820152815183670de0b6b3a7640000610fbb848661168d565b610fc59190612088565b60208401519091506001600160401b03164210826110305760405162461bcd60e51b815260206004820152602260248201527f444b5374616b696e673a204e6f20746f6b656e20746f20626520756e7374616b604482015261195960f21b60648201526084016104c6565b8015611094576000611043603285612088565b905061104f81856121fe565b935061105c600284612088565b60e08601516001600160a01b031660009081526004602052604081208054929550839290919061108d90849061204e565b9091555050505b6110a38460e0015133856117f5565b50604080850151815189815260208101869052831515928101929092526001600160801b031690839033907f253b363dbbe1b6bbac1dbf9274c4c7c1bd3edeeb017c91385460f3af93703b4e9060600160405180910390a4845160a08501805161110e9083906121fe565b90525061012084018051839190611126908390612023565b6001600160801b0390811690915260008981526003602081815260408084203385528252808420848155600180820186905560029182018690559d8552808352938190208a518154938c0151928c01516001600160401b039182166001600160801b031990951694909417600160401b9190931602919091178516600160801b928616830217815560608a0151818e015560808a01519381019390935560a08901519183019190915560c0880151600483015560e08801516005830180546001600160a01b0319166001600160a01b03909216919091179055610100880151610120909801519783169790921690910295909517600690950194909455509495945050505050565b3360009081526005602052604081205460ff1661125d5760405162461bcd60e51b81526004016104c690611eb1565b60008381526002602081815260409283902083516101408101855281546001600160401b038082168352600160401b8204169382018490526001600160801b03600160801b9182900481169683019690965260018301546060830152938201546080820152600382015460a0820152600482015460c082015260058201546001600160a01b031660e08201526006909101548085166101008301529290920490921661012082015290611313906203f480612066565b6001600160401b03164210156113815760405162461bcd60e51b815260206004820152602d60248201527f444b5374616b696e673a204f6e6c792061626c6520746f20776974686472617760448201526c2061667465722033206461797360981b60648201526084016104c6565b60e0810180516001600160a01b031660009081526004602052604090205490516113ac9085836117f5565b5080846001600160a01b0316867f37e8063b72a944a76de602f32b82fd8c2a1c6f99564c727ffaf913c7762cd42060405160405180910390a4506001949350505050565b6000546001600160a01b0316331461141a5760405162461bcd60e51b81526004016104c690611e7c565b6001600160a01b0381166114405760405162461bcd60e51b81526004016104c690611e31565b6001600160a01b038116600081815260056020908152604091829020805460ff1916600117905590519182527f4c141abccf173677929dea054f218ed87362117834a8869ec9f68d8bdaaea1dc91015b60405180910390a150565b60006001600160a01b0382163b6114c45760405162461bcd60e51b81526004016104c690611de1565b506001600160a01b031660009081526004602052604090205490565b6000546001600160a01b0316331461150a5760405162461bcd60e51b81526004016104c690611e7c565b6001600160a01b0381166115305760405162461bcd60e51b81526004016104c690611e31565b6001600160a01b038116600081815260056020908152604091829020805460ff1916905590519182527f6b4be2dd49eba45ba43390fbe7da13e2b965d255db41d6a0fcf6d2e15ac1fccb9101611490565b6000546001600160a01b031633146115ab5760405162461bcd60e51b81526004016104c690611e7c565b6001600160a01b0381166116105760405162461bcd60e51b815260206004820152602660248201527f4f776e61626c653a206e6577206f776e657220697320746865207a65726f206160448201526564647265737360d01b60648201526084016104c6565b611619816117a5565b50565b6040516001600160a01b03808516602483015283166044820152606481018290526116879085906323b872dd60e01b906084015b60408051601f198184030181529190526020810180516001600160e01b03166001600160e01b031990931692909217909152611942565b50505050565b602082015160009042906001600160401b03168111156116b7575060208301516001600160401b03165b60008460e001516001600160a01b031663313ce5676040518163ffffffff1660e01b815260040160206040518083038186803b1580156116f657600080fd5b505afa15801561170a573d6000803e3d6000fd5b505050506040513d601f19601f8201168201806040525081019061172e9190611d6f565b61173990600a612105565b84516117459190612088565b9050600062015180866060015186606001516001600160801b03168561176b91906121fe565b61177590856121df565b61177f91906121df565b6117899190612088565b905080856020015161179b919061204e565b9695505050505050565b600080546001600160a01b038381166001600160a01b0319831681178455604051919092169283917f8be0079c531659141344cd1fd0a4f28419497f9722a3daafe3b4186f6b6457e09190a35050565b6040516370a0823160e01b81526001600160a01b03838116600483015260009185918391908316906370a082319060240160206040518083038186803b15801561183e57600080fd5b505afa158015611852573d6000803e3d6000fd5b505050506040513d601f19601f820116820180604052508101906118769190611d08565b905061188c6001600160a01b0383168686611a19565b6040516370a0823160e01b81526001600160a01b038681166004830152600091908416906370a082319060240160206040518083038186803b1580156118d157600080fd5b505afa1580156118e5573d6000803e3d6000fd5b505050506040513d601f19601f820116820180604052508101906119099190611d08565b90508461191683836121fe565b146119335760405162461bcd60e51b81526004016104c690611ef4565b600193505050505b9392505050565b6000611997826040518060400160405280602081526020017f5361666545524332303a206c6f772d6c6576656c2063616c6c206661696c6564815250856001600160a01b0316611a499092919063ffffffff16565b805190915015611a1457808060200190518101906119b59190611c21565b611a145760405162461bcd60e51b815260206004820152602a60248201527f5361666545524332303a204552433230206f7065726174696f6e20646964206e6044820152691bdd081cdd58d8d9595960b21b60648201526084016104c6565b505050565b6040516001600160a01b038316602482015260448101829052611a1490849063a9059cbb60e01b90606401611650565b6060611a588484600085611a60565b949350505050565b606082471015611ac15760405162461bcd60e51b815260206004820152602660248201527f416464726573733a20696e73756666696369656e742062616c616e636520666f6044820152651c8818d85b1b60d21b60648201526084016104c6565b843b611b0f5760405162461bcd60e51b815260206004820152601d60248201527f416464726573733a2063616c6c20746f206e6f6e2d636f6e747261637400000060448201526064016104c6565b600080866001600160a01b03168587604051611b2b9190611d92565b60006040518083038185875af1925050503d8060008114611b68576040519150601f19603f3d011682016040523d82523d6000602084013e611b6d565b606091505b5091509150611b7d828286611b88565b979650505050505050565b60608315611b9757508161193b565b825115611ba75782518084602001fd5b8160405162461bcd60e51b81526004016104c69190611dae565b80356001600160a01b0381168114610eb557600080fd5b80356001600160801b0381168114610eb557600080fd5b80356001600160401b0381168114610eb557600080fd5b600060208284031215611c1857600080fd5b61193b82611bc1565b600060208284031215611c3357600080fd5b8151801515811461193b57600080fd5b60006101408284031215611c5657600080fd5b611c5e611fec565b611c6783611bef565b8152611c7560208401611bef565b6020820152611c8660408401611bd8565b6040820152606083013560608201526080830135608082015260a083013560a082015260c083013560c0820152611cbf60e08401611bc1565b60e0820152610100611cd2818501611bd8565b90820152610120611ce4848201611bd8565b908201529392505050565b600060208284031215611d0157600080fd5b5035919050565b600060208284031215611d1a57600080fd5b5051919050565b60008060408385031215611d3457600080fd5b82359150611d4460208401611bc1565b90509250929050565b60008060408385031215611d6057600080fd5b50508035926020909101359150565b600060208284031215611d8157600080fd5b815160ff8116811461193b57600080fd5b60008251611da481846020870161223d565b9190910192915050565b6020815260008251806020840152611dcd81604085016020870161223d565b601f01601f19169190910160400192915050565b60208082526030908201527f444b5374616b696e673a20546f6b656e2061646472657373206973206e6f742060408201526f18481cdb585c9d0818dbdb9d1c9858dd60821b606082015260800190565b6020808252602b908201527f444b5374616b696e673a206f70657261746f722063616e206e6f74206265207a60408201526a65726f206164647265737360a81b606082015260800190565b6020808252818101527f4f776e61626c653a2063616c6c6572206973206e6f7420746865206f776e6572604082015260600190565b60208082526023908201527f444b5374616b696e673a204f6e6c79206f70657261746f7220697320616c6c6f6040820152621dd95960ea1b606082015260800190565b60208082526021908201527f444b5374616b696e673a20496e76616c696420746f6b656e207472616e7366656040820152603960f91b606082015260800190565b81516001600160401b0316815261014081016020830151611f6160208401826001600160401b03169052565b506040830151611f7c60408401826001600160801b03169052565b50606083015160608301526080830151608083015260a083015160a083015260c083015160c083015260e0830151611fbf60e08401826001600160a01b03169052565b50610100838101516001600160801b03908116918401919091526101209384015116929091019190915290565b60405161014081016001600160401b038111828210171561201d57634e487b7160e01b600052604160045260246000fd5b60405290565b60006001600160801b0380831681851680830382111561204557612045612269565b01949350505050565b6000821982111561206157612061612269565b500190565b60006001600160401b0380831681851680830382111561204557612045612269565b6000826120975761209761227f565b500490565b60006001600160401b03808416806120b6576120b661227f565b92169190910492915050565b600181815b808511156120fd5781600019048211156120e3576120e3612269565b808516156120f057918102915b93841c93908002906120c7565b509250929050565b600061193b60ff84168360008261211e57506001610987565b8161212b57506000610987565b8160018114612141576002811461214b57612167565b6001915050610987565b60ff84111561215c5761215c612269565b50506001821b610987565b5060208310610133831016604e8410600b841016171561218a575081810a610987565b61219483836120c2565b80600019048211156121a8576121a8612269565b029392505050565b60006001600160801b03808316818516818304811182151516156121d6576121d6612269565b02949350505050565b60008160001904831182151516156121f9576121f9612269565b500290565b60008282101561221057612210612269565b500390565b60006001600160401b038381169083168181101561223557612235612269565b039392505050565b60005b83811015612258578181015183820152602001612240565b838111156116875750506000910152565b634e487b7160e01b600052601160045260246000fd5b634e487b7160e01b600052601260045260246000fdfea264697066735822122056db8bc58b63d0a102be7638b503569542e3a2da1349de9a52ec4b4e1f74563e64736f6c63430008070033",
  "linkReferences": {},
  "deployedLinkReferences": {}
}