{
  "_format": "hh-sol-artifact-1",
  "contractName": "DuelistKingDistributor",
  "sourceName": "contracts/dk/DuelistKingDistributor.sol",
  "abi": [
    {
      "inputs": [
        {
          "internalType": "address",
          "name": "registry_",
          "type": "address"
        },
        {
          "internalType": "bytes32",
          "name": "domain_",
          "type": "bytes32"
        },
        {
          "internalType": "address",
          "name": "divine",
          "type": "address"
        }
      ],
      "stateMutability": "nonpayable",
      "type": "constructor"
    },
    {
      "anonymous": false,
      "inputs": [
        {
          "indexed": true,
          "internalType": "address",
          "name": "owner",
          "type": "address"
        },
        {
          "indexed": true,
          "internalType": "uint256",
          "name": "carId",
          "type": "uint256"
        },
        {
          "indexed": true,
          "internalType": "uint256",
          "name": "nftTokenId",
          "type": "uint256"
        }
      ],
      "name": "NewGenesisCard",
      "type": "event"
    },
    {
      "anonymous": false,
      "inputs": [
        {
          "indexed": true,
          "internalType": "uint256",
          "name": "phaseId",
          "type": "uint256"
        },
        {
          "indexed": true,
          "internalType": "uint256",
          "name": "remainingBoxes",
          "type": "uint256"
        }
      ],
      "name": "SetRemainingBoxes",
      "type": "event"
    },
    {
      "inputs": [
        {
          "internalType": "address",
          "name": "owner",
          "type": "address"
        },
        {
          "internalType": "bytes",
          "name": "nftIds",
          "type": "bytes"
        }
      ],
      "name": "claimCards",
      "outputs": [],
      "stateMutability": "nonpayable",
      "type": "function"
    },
    {
      "inputs": [
        {
          "internalType": "bytes",
          "name": "data",
          "type": "bytes"
        }
      ],
      "name": "compute",
      "outputs": [
        {
          "internalType": "bool",
          "name": "",
          "type": "bool"
        }
      ],
      "stateMutability": "nonpayable",
      "type": "function"
    },
    {
      "inputs": [],
      "name": "getDomain",
      "outputs": [
        {
          "internalType": "bytes32",
          "name": "",
          "type": "bytes32"
        }
      ],
      "stateMutability": "view",
      "type": "function"
    },
    {
      "inputs": [
        {
          "internalType": "uint256",
          "name": "cardId",
          "type": "uint256"
        }
      ],
      "name": "getGenesisEdittion",
      "outputs": [
        {
          "internalType": "uint256",
          "name": "",
          "type": "uint256"
        }
      ],
      "stateMutability": "view",
      "type": "function"
    },
    {
      "inputs": [],
      "name": "getRegistry",
      "outputs": [
        {
          "internalType": "address",
          "name": "",
          "type": "address"
        }
      ],
      "stateMutability": "view",
      "type": "function"
    },
    {
      "inputs": [
        {
          "internalType": "uint256",
          "name": "phaseId",
          "type": "uint256"
        }
      ],
      "name": "getRemainingBox",
      "outputs": [
        {
          "internalType": "uint256",
          "name": "",
          "type": "uint256"
        }
      ],
      "stateMutability": "view",
      "type": "function"
    },
    {
      "inputs": [
        {
          "internalType": "address",
          "name": "owner",
          "type": "address"
        },
        {
          "internalType": "uint256",
          "name": "id",
          "type": "uint256"
        }
      ],
      "name": "issueGenesisCard",
      "outputs": [
        {
          "internalType": "uint256",
          "name": "",
          "type": "uint256"
        }
      ],
      "stateMutability": "nonpayable",
      "type": "function"
    },
    {
      "inputs": [
        {
          "internalType": "address",
          "name": "owner",
          "type": "address"
        },
        {
          "internalType": "uint256",
          "name": "numberOfBoxes",
          "type": "uint256"
        },
        {
          "internalType": "uint256",
          "name": "phaseId",
          "type": "uint256"
        }
      ],
      "name": "mintBoxes",
      "outputs": [
        {
          "internalType": "bool",
          "name": "",
          "type": "bool"
        }
      ],
      "stateMutability": "nonpayable",
      "type": "function"
    },
    {
      "inputs": [
        {
          "internalType": "bytes",
          "name": "nftIds",
          "type": "bytes"
        }
      ],
      "name": "openBoxes",
      "outputs": [],
      "stateMutability": "nonpayable",
      "type": "function"
    },
    {
      "inputs": [
        {
          "internalType": "uint256",
          "name": "phaseId",
          "type": "uint256"
        },
        {
          "internalType": "uint256",
          "name": "numberOfBoxes",
          "type": "uint256"
        }
      ],
      "name": "setRemainingBoxes",
      "outputs": [
        {
          "internalType": "bool",
          "name": "",
          "type": "bool"
        }
      ],
      "stateMutability": "nonpayable",
      "type": "function"
    }
  ],
  "bytecode": "0x60a06040526002805460ff19169055620f42406005553480156200002257600080fd5b50604051620020a1380380620020a183398101604081905262000045916200012d565b6001600160a01b0381166080526200005e838362000068565b505050506200016e565b60025460009060ff1615620000db5760405162461bcd60e51b815260206004820152602f60248201527f5573657252656769737472793a2049742773206f6e6c792061626c6520746f2060448201526e696e697469616c697a65206f6e636560881b606482015260840160405180910390fd5b50600080546001600160a01b0384166001600160a01b031990911617905560018181556002805460ff19168217905592915050565b80516001600160a01b03811681146200012857600080fd5b919050565b6000806000606084860312156200014357600080fd5b6200014e8462000110565b925060208401519150620001656040850162000110565b90509250925092565b608051611f176200018a600039600061066b0152611f176000f3fe608060405234801561001057600080fd5b506004361061009e5760003560e01c806386d413621161006657806386d413621461013a5780638c05d96f1461014f578063b68d180914610162578063da389e1f1461016a578063e42a85331461017d57600080fd5b80633d1d47d9146100a35780634122f997146100c957806345fc36a2146100ec5780635ab1bd53146100ff57806361afee3d1461011a575b600080fd5b6100b66100b1366004611b02565b610190565b6040519081526020015b60405180910390f35b6100dc6100d7366004611bd1565b6104e2565b60405190151581526020016100c0565b6100dc6100fa366004611c0e565b61079b565b6000546040516001600160a01b0390911681526020016100c0565b6100b6610128366004611c30565b60009081526006602052604090205490565b61014d610148366004611c49565b61093a565b005b6100dc61015d366004611c99565b610ced565b6001546100b6565b6100b6610178366004611c30565b6110d9565b61014d61018b366004611bd1565b6110fb565b600080546001546040516369d1cb4360e11b81526004810191909152654f7261636c6560d01b60248201819052916001600160a01b03169063d3a396869060440160206040518083038186803b1580156101e957600080fd5b505afa1580156101fd573d6000803e3d6000fd5b505050506040513d601f19601f820116820180604052508101906102219190611cce565b6001600160a01b0316336001600160a01b03161461025a5760405162461bcd60e51b815260040161025190611ceb565b60405180910390fd5b600083815260066020526040902054156102dc5760405162461bcd60e51b815260206004820152603960248201527f4469737472696275746f723a204f6e6c79206f6e652067656e6573697320656460448201527f6974696f6e2077696c6c206265206469737472696275746564000000000000006064820152608401610251565b6001600460008282546102ef9190611d4f565b9091555050600454600090610329906103238661031d61031161019083611d7d565b61ffff60b01b906115a2565b906115ba565b906115d1565b6000546001546040516369d1cb4360e11b81526004810191909152671391950810d85c9960c21b60248201529192506001600160a01b03169063d3a396869060440160206040518083038186803b15801561038357600080fd5b505afa158015610397573d6000803e3d6000fd5b505050506040513d601f19601f820116820180604052508101906103bb9190611cce565b6040516340c10f1960e01b81526001600160a01b0387811660048301526024820184905291909116906340c10f1990604401602060405180830381600087803b15801561040757600080fd5b505af115801561041b573d6000803e3d6000fd5b505050506040513d601f19601f8201168201806040525081019061043f9190611d91565b6104955760405162461bcd60e51b815260206004820152602160248201527f4469737472696275746f723a20556e61626c6520746f206973737565206361726044820152601960fa1b6064820152608401610251565b60008481526006602052604080822083905551829186916001600160a01b038916917f9be1694aa4891afe0a9ac63dbe4253db17799c2edc4426a34f387b3d95f76d3991a4949350505050565b600080546040516369d1cb4360e11b81526d496e66726173747275637475726560901b6004820181905262524e4760e81b60248301819052909290916001600160a01b039091169063d3a396869060440160206040518083038186803b15801561054b57600080fd5b505afa15801561055f573d6000803e3d6000fd5b505050506040513d601f19601f820116820180604052508101906105839190611cce565b6001600160a01b0316336001600160a01b0316146106095760405162461bcd60e51b815260206004820152603760248201527f5573657252656769737472793a204f6e6c7920616c6c6f772063616c6c20667260448201527f6f6d20616c6c6f7765642063726f737320646f6d61696e0000000000000000006064820152608401610251565b83516020146106695760405162461bcd60e51b815260206004820152602660248201527f4469737472696275746f723a2044617461206d75737420626520333220696e206044820152650d8cadccee8d60d31b6064820152608401610251565b7f00000000000000000000000000000000000000000000000000000000000000006001600160a01b0316633b3dca766040518163ffffffff1660e01b8152600401602060405180830381600087803b1580156106c457600080fd5b505af11580156106d8573d6000803e3d6000fd5b505050506040513d601f19601f820116820180604052508101906106fc9190611db3565b60405163e02da32760e01b815273__$8b56843b825aa1dc3815df035c53fdeeb9$__9063e02da32790610736908890600090600401611e19565b60206040518083038186803b15801561074e57600080fd5b505af4158015610762573d6000803e3d6000fd5b505050506040513d601f19601f820116820180604052508101906107869190611db3565b60088054919092181890555060019392505050565b600080546001546040516369d1cb4360e11b81526004810191909152654f7261636c6560d01b60248201819052916001600160a01b03169063d3a396869060440160206040518083038186803b1580156107f457600080fd5b505afa158015610808573d6000803e3d6000fd5b505050506040513d601f19601f8201168201806040525081019061082c9190611cce565b6001600160a01b0316336001600160a01b03161461085c5760405162461bcd60e51b815260040161025190611ceb565b6000848152600760205260409020541580156108785750600083115b8015610885575060055483105b6108e55760405162461bcd60e51b815260206004820152602b60248201527f4469737472696275746f723a204f6e636520746869732073657420796f75206360448201526a616e2774206368616e676560a81b6064820152608401610251565b826005546108f39190611e3b565b600085815260076020526040808220929092559051849186917ff364e445aa9b4d6dcd156f9b39d6bdd93050a0cc7565f28cfb54b9d3cde02af09190a35060019392505050565b600080546001546040516369d1cb4360e11b81526001600160a01b039092169163d3a396869161098191600401908152674e4654204974656d60c01b602082015260400190565b60206040518083038186803b15801561099957600080fd5b505afa1580156109ad573d6000803e3d6000fd5b505050506040513d601f19601f820116820180604052508101906109d19190611cce565b9050602082516109e19190611e52565b156109fe5760405162461bcd60e51b815260040161025190611e66565b60005b8251811015610ce75760405163e02da32760e01b815260009073__$8b56843b825aa1dc3815df035c53fdeeb9$__9063e02da32790610a469087908690600401611e19565b60206040518083038186803b158015610a5e57600080fd5b505af4158015610a72573d6000803e3d6000fd5b505050506040513d601f19601f82011682018060405250810190610a969190611db3565b9050610aa1816115e8565b6001148015610ab857506000610ab6826115f8565b115b610b045760405162461bcd60e51b815260206004820152601b60248201527f4469737472696275746f723a20496e76616c696420626f7820696400000000006044820152606401610251565b610b0e8582611604565b610b705760405162461bcd60e51b815260206004820152602d60248201527f4469737472696275746f723a20556e61626c6520746f20636c61696d2063617260448201526c0c8e640d2dc40e8d0ca40c4def609b1b6064820152608401610251565b6040516331a9108f60e11b8152600481018290526001600160a01b038087169190851690636352211e9060240160206040518083038186803b158015610bb557600080fd5b505afa158015610bc9573d6000803e3d6000fd5b505050506040513d601f19601f82011682018060405250810190610bed9190611cce565b6001600160a01b0316148015610c785750604051630852cd8d60e31b8152600481018290526001600160a01b038416906342966c6890602401602060405180830381600087803b158015610c4057600080fd5b505af1158015610c54573d6000803e3d6000fd5b505050506040513d601f19601f82011682018060405250810190610c789190611d91565b610cd45760405162461bcd60e51b815260206004820152602760248201527f4469737472696275746f723a20556e61626c6520746f206275726e20636c61696044820152660dacac840c4def60cb1b6064820152608401610251565b50610ce0602082611d4f565b9050610a01565b50505050565b600080546001546040516369d1cb4360e11b81526004810191909152654f7261636c6560d01b60248201819052916001600160a01b03169063d3a396869060440160206040518083038186803b158015610d4657600080fd5b505afa158015610d5a573d6000803e3d6000fd5b505050506040513d601f19601f82011682018060405250810190610d7e9190611cce565b6001600160a01b0316336001600160a01b031614610dae5760405162461bcd60e51b815260040161025190611ceb565b600084118015610dc057506103e88411155b610e185760405162461bcd60e51b8152602060048201526024808201527f4469737472696275746f723a20496e76616c6964206e756d626572206f6620626044820152636f78657360e01b6064820152608401610251565b6001831015610e695760405162461bcd60e51b815260206004820152601d60248201527f4469737472696275746f723a20496e76616c69642070686173652069640000006044820152606401610251565b60055460008481526007602052604090205410610ed45760405162461bcd60e51b815260206004820152602360248201527f4469737472696275746f723a2057652072756e206f7574206f662074686973206044820152620c4def60eb1b6064820152608401610251565b6003546000610ee88561031d8360016118b1565b9050600160005b8781101561104d57610f02600185611d4f565b935081801561103957506000546001546040516369d1cb4360e11b81526001600160a01b039092169163d3a3968691610f5291600401908152674e4654204974656d60c01b602082015260400190565b60206040518083038186803b158015610f6a57600080fd5b505afa158015610f7e573d6000803e3d6000fd5b505050506040513d601f19601f82011682018060405250810190610fa29190611cce565b6001600160a01b03166340c10f198a610fbb86886115d1565b6040516001600160e01b031960e085901b1681526001600160a01b0390921660048301526024820152604401602060405180830381600087803b15801561100157600080fd5b505af1158015611015573d6000803e3d6000fd5b505050506040513d601f19601f820116820180604052508101906110399190611d91565b9150611046600182611d4f565b9050610eef565b50806110a55760405162461bcd60e51b815260206004820152602160248201527f4469737472696275746f723a20556e61626c6520746f206973737565206974656044820152606d60f81b6064820152608401610251565b6003839055600086815260076020526040812080548992906110c8908490611d4f565b909155509098975050505050505050565b6000818152600760205260408120546005546110f59190611e3b565b92915050565b600080546001546040516369d1cb4360e11b81526001600160a01b039092169163d3a396869161114291600401908152674e4654204974656d60c01b602082015260400190565b60206040518083038186803b15801561115a57600080fd5b505afa15801561116e573d6000803e3d6000fd5b505050506040513d601f19601f820116820180604052508101906111929190611cce565b825190915033906111a590602090611e52565b156111c25760405162461bcd60e51b815260040161025190611e66565b6000600854826040516020016111f492919091825260601b6bffffffffffffffffffffffff1916602082015260340190565b6040516020818303038152906040528051906020012060001c90506000805b855181101561159a5760405163e02da32760e01b815260009073__$8b56843b825aa1dc3815df035c53fdeeb9$__9063e02da32790611258908a908690600401611e19565b60206040518083038186803b15801561127057600080fd5b505af4158015611284573d6000803e3d6000fd5b505050506040513d601f19601f820116820180604052508101906112a89190611db3565b90506112b3816115f8565b156113165760405162461bcd60e51b815260206004820152602d60248201527f4469737472696275746f723a204f6e6c792061626c6520746f206f70656e207560448201526c6e6f70656e656420626f78657360981b6064820152608401610251565b61010083106113545760085460405160200161133491815260200190565b6040516020818303038152906040528051906020012060001c9350600092505b6040516331a9108f60e11b8152600481018290526001600160a01b038087169190881690636352211e9060240160206040518083038186803b15801561139957600080fd5b505afa1580156113ad573d6000803e3d6000fd5b505050506040513d601f19601f820116820180604052508101906113d19190611cce565b6001600160a01b031614801561145c5750604051630852cd8d60e31b8152600481018290526001600160a01b038716906342966c6890602401602060405180830381600087803b15801561142457600080fd5b505af1158015611438573d6000803e3d6000fd5b505050506040513d601f19601f8201168201806040525081019061145c9190611d91565b801561150757506001600160a01b0386166340c10f19866114898467ffffffffffffffff89891c166118c2565b6040516001600160e01b031960e085901b1681526001600160a01b0390921660048301526024820152604401602060405180830381600087803b1580156114cf57600080fd5b505af11580156114e3573d6000803e3d6000fd5b505050506040513d601f19601f820116820180604052508101906115079190611d91565b6115795760405162461bcd60e51b815260206004820152603860248201527f4469737472696275746f723a20556e61626c6520746f206275726e206f6c642060448201527f626f7820616e64206973737565206f70656e656420626f7800000000000000006064820152608401610251565b611584604084611d4f565b92506115939050602082611d4f565b9050611213565b505050505050565b60006115b38360a061ffff856118d5565b9392505050565b60006115b383604067ffffffffffffffff856118d5565b60006115b383600067ffffffffffffffff856118d5565b6000608082901c61ffff166110f5565b600060c082901c6110f5565b600080546001546040516369d1cb4360e11b81526004810191909152671391950810d85c9960c21b602482015282916001600160a01b03169063d3a396869060440160206040518083038186803b15801561165e57600080fd5b505afa158015611672573d6000803e3d6000fd5b505050506040513d601f19601f820116820180604052508101906116969190611cce565b905060006116a3846115f8565b6040516020016116b591815260200190565b6040516020818303038152906040528051906020012060001c905060006116db85611946565b9050600060146116eb8382611eac565b6116f59190611e3b565b9050600061170561019083611d7d565b60045490915060005b600581101561189d576040805160208101889052016040516020818303038152906040528051906020012060001c955060005b610100811080156117525750600582105b156118975763ffffffff87821c16600061176c878361195c565b905080156118825761177f600186611d4f565b94506001600160a01b038a166340c10f198e61179f88610323868c6115a2565b6040516001600160e01b031960e085901b1681526001600160a01b0390921660048301526024820152604401602060405180830381600087803b1580156117e557600080fd5b505af11580156117f9573d6000803e3d6000fd5b505050506040513d601f19601f8201168201806040525081019061181d9190611d91565b6118745760405162461bcd60e51b815260206004820152602260248201527f4469737472696275746f723a2043616e206e6f74206d696e74204e46542063616044820152611c9960f21b6064820152608401610251565b61187f600185611d4f565b93505b506118909050602082611d4f565b9050611741565b5061170e565b506004555050506008555060019392505050565b60006115b383608061ffff856118d5565b60006115b38360c067ffffffffffffffff855b600081831783146119385760405162461bcd60e51b815260206004820152602760248201527f4475656c6973744b696e674974656d3a204e65772076616c7565206973206f75604482015266742072616e676560c81b6064820152608401610251565b50821b911b19919091161790565b6000604082901c67ffffffffffffffff166110f5565b600080600554600561196e9190611eac565b6119789084611e52565b905060006040518060c001604052807001000000000000000600000000000009c4815260200170020000000100000005000009c400006b6c81526020017003000000030000000400006b6c00043bfc81526020017004000000060000000300043bfc000fadac815260200170050000000a00000002000fadac0026910c815260200170050000000f000000010026910c004c4b40815250905060005b6006811015611acd576000828260068110611a3157611a31611ecb565b60209081029190910151915063ffffffff8083169183901c811690604084901c811690606085901c811690608086901c16838910801590611a725750848911155b15611ab357611aa3611a84828d611e52565b611a8e848f611d4f565b611a989190611d4f565b61031d600086611ad9565b99505050505050505050506110f5565b505050505050600181611ac69190611d4f565b9050611a14565b50600095945050505050565b60006115b383609061ffff856118d5565b6001600160a01b0381168114611aff57600080fd5b50565b60008060408385031215611b1557600080fd5b8235611b2081611aea565b946020939093013593505050565b634e487b7160e01b600052604160045260246000fd5b600082601f830112611b5557600080fd5b813567ffffffffffffffff80821115611b7057611b70611b2e565b604051601f8301601f19908116603f01168101908282118183101715611b9857611b98611b2e565b81604052838152866020858801011115611bb157600080fd5b836020870160208301376000602085830101528094505050505092915050565b600060208284031215611be357600080fd5b813567ffffffffffffffff811115611bfa57600080fd5b611c0684828501611b44565b949350505050565b60008060408385031215611c2157600080fd5b50508035926020909101359150565b600060208284031215611c4257600080fd5b5035919050565b60008060408385031215611c5c57600080fd5b8235611c6781611aea565b9150602083013567ffffffffffffffff811115611c8357600080fd5b611c8f85828601611b44565b9150509250929050565b600080600060608486031215611cae57600080fd5b8335611cb981611aea565b95602085013595506040909401359392505050565b600060208284031215611ce057600080fd5b81516115b381611aea565b6020808252602e908201527f5573657252656769737472793a204f6e6c7920616c6c6f772063616c6c20667260408201526d37b69039b0b6b2903237b6b0b4b760911b606082015260800190565b634e487b7160e01b600052601160045260246000fd5b60008219821115611d6257611d62611d39565b500190565b634e487b7160e01b600052601260045260246000fd5b600082611d8c57611d8c611d67565b500490565b600060208284031215611da357600080fd5b815180151581146115b357600080fd5b600060208284031215611dc557600080fd5b5051919050565b6000815180845260005b81811015611df257602081850181015186830182015201611dd6565b81811115611e04576000602083870101525b50601f01601f19169290920160200192915050565b604081526000611e2c6040830185611dcc565b90508260208301529392505050565b600082821015611e4d57611e4d611d39565b500390565b600082611e6157611e61611d67565b500690565b60208082526026908201527f4469737472696275746f723a20496e76616c6964206c656e677468206f66204e60408201526546542049447360d01b606082015260800190565b6000816000190483118215151615611ec657611ec6611d39565b500290565b634e487b7160e01b600052603260045260246000fdfea264697066735822122088b5d34fe293bca6189046493e9e7b2d9da7c8aa4ca779613840a43275c6c7c364736f6c63430008090033",
  "linkReferences": {
    "contracts/libraries/Bytes.sol": {
      "Bytes": [
        {
          "length": 20,
          "start": 2197
        },
        {
          "length": 20,
          "start": 2982
        },
        {
          "length": 20,
          "start": 5048
        }
      ]
    }
  },
  "deployedLinkReferences": {
    "contracts/libraries/Bytes.sol": {
      "Bytes": [
        {
          "length": 20,
          "start": 1803
        },
        {
          "length": 20,
          "start": 2588
        },
        {
          "length": 20,
          "start": 4654
        }
      ]
    }
  }
}