{
  "_format": "hh-sol-artifact-1",
  "contractName": "DuelistKingDistributor",
  "sourceName": "contracts/dk/DuelistKingDistributor.sol",
  "abi": [
    {
      "inputs": [
        {
          "internalType": "address",
          "name": "registry_",
          "type": "address"
        },
        {
          "internalType": "bytes32",
          "name": "domain_",
          "type": "bytes32"
        },
        {
          "internalType": "address",
          "name": "divine",
          "type": "address"
        }
      ],
      "stateMutability": "nonpayable",
      "type": "constructor"
    },
    {
      "anonymous": false,
      "inputs": [
        {
          "indexed": true,
          "internalType": "address",
          "name": "owner",
          "type": "address"
        },
        {
          "indexed": true,
          "internalType": "uint256",
          "name": "carId",
          "type": "uint256"
        },
        {
          "indexed": true,
          "internalType": "uint256",
          "name": "nftTokenId",
          "type": "uint256"
        }
      ],
      "name": "NewGenesisCard",
      "type": "event"
    },
    {
      "anonymous": false,
      "inputs": [
        {
          "indexed": true,
          "internalType": "uint256",
          "name": "phaseId",
          "type": "uint256"
        },
        {
          "indexed": true,
          "internalType": "uint256",
          "name": "remainingBoxes",
          "type": "uint256"
        }
      ],
      "name": "SetRemainingBoxes",
      "type": "event"
    },
    {
      "inputs": [
        {
          "internalType": "bytes",
          "name": "data",
          "type": "bytes"
        }
      ],
      "name": "compute",
      "outputs": [
        {
          "internalType": "bool",
          "name": "",
          "type": "bool"
        }
      ],
      "stateMutability": "nonpayable",
      "type": "function"
    },
    {
      "inputs": [],
      "name": "getDomain",
      "outputs": [
        {
          "internalType": "bytes32",
          "name": "",
          "type": "bytes32"
        }
      ],
      "stateMutability": "view",
      "type": "function"
    },
    {
      "inputs": [
        {
          "internalType": "uint256",
          "name": "cardId",
          "type": "uint256"
        }
      ],
      "name": "getGenesisEdition",
      "outputs": [
        {
          "internalType": "uint256",
          "name": "",
          "type": "uint256"
        }
      ],
      "stateMutability": "view",
      "type": "function"
    },
    {
      "inputs": [],
      "name": "getRegistry",
      "outputs": [
        {
          "internalType": "address",
          "name": "",
          "type": "address"
        }
      ],
      "stateMutability": "view",
      "type": "function"
    },
    {
      "inputs": [
        {
          "internalType": "uint256",
          "name": "phaseId",
          "type": "uint256"
        }
      ],
      "name": "getRemainingBox",
      "outputs": [
        {
          "internalType": "uint256",
          "name": "",
          "type": "uint256"
        }
      ],
      "stateMutability": "view",
      "type": "function"
    },
    {
      "inputs": [
        {
          "internalType": "address",
          "name": "owner",
          "type": "address"
        },
        {
          "internalType": "uint256",
          "name": "id",
          "type": "uint256"
        }
      ],
      "name": "issueGenesisCard",
      "outputs": [
        {
          "internalType": "uint256",
          "name": "",
          "type": "uint256"
        }
      ],
      "stateMutability": "nonpayable",
      "type": "function"
    },
    {
      "inputs": [
        {
          "internalType": "address",
          "name": "owner",
          "type": "address"
        },
        {
          "internalType": "uint256",
          "name": "numberOfBoxes",
          "type": "uint256"
        },
        {
          "internalType": "uint256",
          "name": "phaseId",
          "type": "uint256"
        }
      ],
      "name": "mintBoxes",
      "outputs": [
        {
          "internalType": "bool",
          "name": "",
          "type": "bool"
        }
      ],
      "stateMutability": "nonpayable",
      "type": "function"
    },
    {
      "inputs": [
        {
          "internalType": "bytes",
          "name": "nftIds",
          "type": "bytes"
        }
      ],
      "name": "openBoxes",
      "outputs": [],
      "stateMutability": "nonpayable",
      "type": "function"
    },
    {
      "inputs": [
        {
          "internalType": "uint256",
          "name": "phaseId",
          "type": "uint256"
        },
        {
          "internalType": "uint256",
          "name": "numberOfBoxes",
          "type": "uint256"
        }
      ],
      "name": "setRemainingBoxes",
      "outputs": [
        {
          "internalType": "bool",
          "name": "",
          "type": "bool"
        }
      ],
      "stateMutability": "nonpayable",
      "type": "function"
    }
  ],
  "bytecode": "0x60a06040526002805460ff19169055620f42406005553480156200002257600080fd5b5060405162001c4538038062001c4583398101604081905262000045916200012d565b6001600160a01b0381166080526200005e838362000068565b505050506200016e565b60025460009060ff1615620000db5760405162461bcd60e51b815260206004820152602f60248201527f5573657252656769737472793a2049742773206f6e6c792061626c6520746f2060448201526e696e697469616c697a65206f6e636560881b606482015260840160405180910390fd5b50600080546001600160a01b0384166001600160a01b031990911617905560018181556002805460ff19168217905592915050565b80516001600160a01b03811681146200012857600080fd5b919050565b6000806000606084860312156200014357600080fd5b6200014e8462000110565b925060208401519150620001656040850162000110565b90509250925092565b608051611abb6200018a600039600061064d0152611abb6000f3fe608060405234801561001057600080fd5b50600436106100935760003560e01c80635ab1bd53116100665780635ab1bd53146101145780638c05d96f1461012f578063b68d180914610142578063da389e1f1461014a578063e42a85331461015d57600080fd5b806314197922146100985780633d1d47d9146100cb5780634122f997146100de57806345fc36a214610101575b600080fd5b6100b86100a63660046116e7565b60009081526006602052604090205490565b6040519081526020015b60405180910390f35b6100b86100d9366004611718565b610172565b6100f16100ec36600461175a565b6104c4565b60405190151581526020016100c2565b6100f161010f36600461180b565b61077d565b6000546040516001600160a01b0390911681526020016100c2565b6100f161013d36600461182d565b61091c565b6001546100b8565b6100b86101583660046116e7565b610d5f565b61017061016b36600461175a565b610d81565b005b600080546001546040516369d1cb4360e11b81526004810191909152654f7261636c6560d01b60248201819052916001600160a01b03169063d3a396869060440160206040518083038186803b1580156101cb57600080fd5b505afa1580156101df573d6000803e3d6000fd5b505050506040513d601f19601f820116820180604052508101906102039190611862565b6001600160a01b0316336001600160a01b03161461023c5760405162461bcd60e51b81526004016102339061187f565b60405180910390fd5b600083815260066020526040902054156102be5760405162461bcd60e51b815260206004820152603960248201527f4469737472696275746f723a204f6e6c79206f6e652067656e6573697320656460448201527f6974696f6e2077696c6c206265206469737472696275746564000000000000006064820152608401610233565b6001600460008282546102d191906118e3565b909155505060045460009061030b90610305866102ff6102f361019083611911565b61ffff60b01b9061119f565b906111b7565b906111ce565b6000546001546040516369d1cb4360e11b81526004810191909152671391950810d85c9960c21b60248201529192506001600160a01b03169063d3a396869060440160206040518083038186803b15801561036557600080fd5b505afa158015610379573d6000803e3d6000fd5b505050506040513d601f19601f8201168201806040525081019061039d9190611862565b6040516340c10f1960e01b81526001600160a01b0387811660048301526024820184905291909116906340c10f1990604401602060405180830381600087803b1580156103e957600080fd5b505af11580156103fd573d6000803e3d6000fd5b505050506040513d601f19601f820116820180604052508101906104219190611925565b6104775760405162461bcd60e51b815260206004820152602160248201527f4469737472696275746f723a20556e61626c6520746f206973737565206361726044820152601960fa1b6064820152608401610233565b60008481526006602052604080822083905551829186916001600160a01b038916917f9be1694aa4891afe0a9ac63dbe4253db17799c2edc4426a34f387b3d95f76d3991a4949350505050565b600080546040516369d1cb4360e11b81526d496e66726173747275637475726560901b6004820181905262524e4760e81b60248301819052909290916001600160a01b039091169063d3a396869060440160206040518083038186803b15801561052d57600080fd5b505afa158015610541573d6000803e3d6000fd5b505050506040513d601f19601f820116820180604052508101906105659190611862565b6001600160a01b0316336001600160a01b0316146105eb5760405162461bcd60e51b815260206004820152603760248201527f5573657252656769737472793a204f6e6c7920616c6c6f772063616c6c20667260448201527f6f6d20616c6c6f7765642063726f737320646f6d61696e0000000000000000006064820152608401610233565b835160201461064b5760405162461bcd60e51b815260206004820152602660248201527f4469737472696275746f723a2044617461206d75737420626520333220696e206044820152650d8cadccee8d60d31b6064820152608401610233565b7f00000000000000000000000000000000000000000000000000000000000000006001600160a01b0316633b3dca766040518163ffffffff1660e01b8152600401602060405180830381600087803b1580156106a657600080fd5b505af11580156106ba573d6000803e3d6000fd5b505050506040513d601f19601f820116820180604052508101906106de9190611947565b60405163e02da32760e01b815273__$8b56843b825aa1dc3815df035c53fdeeb9$__9063e02da327906107189088906000906004016119ad565b60206040518083038186803b15801561073057600080fd5b505af4158015610744573d6000803e3d6000fd5b505050506040513d601f19601f820116820180604052508101906107689190611947565b60088054919092181890555060019392505050565b600080546001546040516369d1cb4360e11b81526004810191909152654f7261636c6560d01b60248201819052916001600160a01b03169063d3a396869060440160206040518083038186803b1580156107d657600080fd5b505afa1580156107ea573d6000803e3d6000fd5b505050506040513d601f19601f8201168201806040525081019061080e9190611862565b6001600160a01b0316336001600160a01b03161461083e5760405162461bcd60e51b81526004016102339061187f565b60008481526007602052604090205415801561085a5750600083115b8015610867575060055483105b6108c75760405162461bcd60e51b815260206004820152602b60248201527f4469737472696275746f723a204f6e636520746869732073657420796f75206360448201526a616e2774206368616e676560a81b6064820152608401610233565b826005546108d591906119cf565b600085815260076020526040808220929092559051849186917ff364e445aa9b4d6dcd156f9b39d6bdd93050a0cc7565f28cfb54b9d3cde02af09190a35060019392505050565b600080546001546040516369d1cb4360e11b81526004810191909152654f7261636c6560d01b60248201819052916001600160a01b03169063d3a396869060440160206040518083038186803b15801561097557600080fd5b505afa158015610989573d6000803e3d6000fd5b505050506040513d601f19601f820116820180604052508101906109ad9190611862565b6001600160a01b0316336001600160a01b0316146109dd5760405162461bcd60e51b81526004016102339061187f565b6000841180156109ef57506103e88411155b610a475760405162461bcd60e51b8152602060048201526024808201527f4469737472696275746f723a20496e76616c6964206e756d626572206f6620626044820152636f78657360e01b6064820152608401610233565b6001831015610a985760405162461bcd60e51b815260206004820152601d60248201527f4469737472696275746f723a20496e76616c69642070686173652069640000006044820152606401610233565b600554600084815260076020526040902054610ab59086906118e3565b1115610b0f5760405162461bcd60e51b815260206004820152602360248201527f4469737472696275746f723a2057652072756e206f7574206f662074686973206044820152620c4def60eb1b6064820152608401610233565b6003546000610b23856102ff8360016111e5565b905060008667ffffffffffffffff811115610b4057610b40611744565b604051908082528060200260200182016040528015610b69578160200160208202803683370190505b50905060005b87811015610bbd57610b826001856118e3565b9350610b8e83856111ce565b828281518110610ba057610ba06119e6565b6020908102919091010152610bb66001826118e3565b9050610b6f565b506000546001546040516369d1cb4360e11b81526001600160a01b039092169163d3a3968691610c0491600401908152674e4654204974656d60c01b602082015260400190565b60206040518083038186803b158015610c1c57600080fd5b505afa158015610c30573d6000803e3d6000fd5b505050506040513d601f19601f82011682018060405250810190610c549190611862565b6001600160a01b0316634684d7e989836040518363ffffffff1660e01b8152600401610c819291906119fc565b602060405180830381600087803b158015610c9b57600080fd5b505af1158015610caf573d6000803e3d6000fd5b505050506040513d601f19601f82011682018060405250810190610cd39190611925565b610d295760405162461bcd60e51b815260206004820152602160248201527f4469737472696275746f723a20556e61626c6520746f206973737565206974656044820152606d60f81b6064820152608401610233565b600383905560008681526007602052604081208054899290610d4c9084906118e3565b9091555060019998505050505050505050565b600081815260076020526040812054600554610d7b91906119cf565b92915050565b600080546001546040516369d1cb4360e11b81526001600160a01b039092169163d3a3968691610dc891600401908152674e4654204974656d60c01b602082015260400190565b60206040518083038186803b158015610de057600080fd5b505afa158015610df4573d6000803e3d6000fd5b505050506040513d601f19601f82011682018060405250810190610e189190611862565b8251909150339015801590610e38575060208351610e369190611a52565b155b610e935760405162461bcd60e51b815260206004820152602660248201527f4469737472696275746f723a20496e76616c6964206c656e677468206f66204e60448201526546542049447360d01b6064820152608401610233565b600060208451610ea39190611911565b67ffffffffffffffff811115610ebb57610ebb611744565b604051908082528060200260200182016040528015610ee4578160200160208202803683370190505b50905060005b84518110156110bc5760405163e02da32760e01b815260009073__$8b56843b825aa1dc3815df035c53fdeeb9$__9063e02da32790610f2f90899086906004016119ad565b60206040518083038186803b158015610f4757600080fd5b505af4158015610f5b573d6000803e3d6000fd5b505050506040513d601f19601f82011682018060405250810190610f7f9190611947565b90508083610f8e602085611911565b81518110610f9e57610f9e6119e6565b60209081029190910101526040516331a9108f60e11b8152600481018290526001600160a01b038086169190871690636352211e9060240160206040518083038186803b158015610fee57600080fd5b505afa158015611002573d6000803e3d6000fd5b505050506040513d601f19601f820116820180604052508101906110269190611862565b6001600160a01b0316148015611041575061104184826111f6565b6110a95760405162461bcd60e51b815260206004820152603360248201527f4469737472696275746f723a20556e61626c6520746f206275726e206f6c6420604482015272626f7820616e6420697373756520636172647360681b6064820152608401610233565b506110b56020826118e3565b9050610eea565b5060405162f75a4760e71b81526001600160a01b03841690637bad2380906110ea90859085906004016119fc565b602060405180830381600087803b15801561110457600080fd5b505af1158015611118573d6000803e3d6000fd5b505050506040513d601f19601f8201168201806040525081019061113c9190611925565b6111995760405162461bcd60e51b815260206004820152602860248201527f4469737472696275746f723a20556e61626c6520746f206275726e206f70656e604482015267656420626f78657360c01b6064820152608401610233565b50505050565b60006111b08360a061ffff856114d2565b9392505050565b60006111b083604067ffffffffffffffff856114d2565b60006111b083600067ffffffffffffffff856114d2565b60006111b083608061ffff856114d2565b600080546001546040516369d1cb4360e11b81526004810191909152671391950810d85c9960c21b602482015282916001600160a01b03169063d3a396869060440160206040518083038186803b15801561125057600080fd5b505afa158015611264573d6000803e3d6000fd5b505050506040513d601f19601f820116820180604052508101906112889190611862565b60408051600580825260c08201909252919250600091906020820160a08036833701905050905060006008546040516020016112c691815260200190565b6040516020818303038152906040528051906020012060001c905060006112ec86611543565b9050600060146112fc8382611a66565b61130691906119cf565b9050600061131661019083611911565b60045490915060005b60058110156113e6576040805160208101889052016040516020818303038152906040528051906020012060001c955060005b610100811080156113635750600582105b156113e05763ffffffff87821c16600061137d8783611559565b905080156113cb576113906001866118e3565b94506113a085610305838961119f565b8a85815181106113b2576113b26119e6565b60209081029190910101526113c86001856118e3565b93505b506113d990506020826118e3565b9050611352565b5061131f565b50604051634684d7e960e01b81526001600160a01b03881690634684d7e990611415908d908a906004016119fc565b602060405180830381600087803b15801561142f57600080fd5b505af1158015611443573d6000803e3d6000fd5b505050506040513d601f19601f820116820180604052508101906114679190611925565b6114be5760405162461bcd60e51b815260206004820152602260248201527f4469737472696275746f723a2043616e206e6f74206d696e74204e46542063616044820152611c9960f21b6064820152608401610233565b600455505050600855506001949350505050565b600081831783146115355760405162461bcd60e51b815260206004820152602760248201527f4475656c6973744b696e674974656d3a204e65772076616c7565206973206f75604482015266742072616e676560c81b6064820152608401610233565b50821b911b19919091161790565b6000604082901c67ffffffffffffffff16610d7b565b600080600554600561156b9190611a66565b6115759084611a52565b905060006040518060c001604052807001000000000000000600000000000009c4815260200170020000000100000005000009c400006b6c81526020017003000000030000000400006b6c00043bfc81526020017004000000060000000300043bfc000fadac815260200170050000000a00000002000fadac0026910c815260200170050000000f000000010026910c004c4b40815250905060005b60068110156116ca57600082826006811061162e5761162e6119e6565b60209081029190910151915063ffffffff8083169183901c811690604084901c811690606085901c811690608086901c1683891080159061166f5750848911155b156116b0576116a0611681828d611a52565b61168b848f6118e3565b61169591906118e3565b6102ff6000866116d6565b9950505050505050505050610d7b565b5050505050506001816116c391906118e3565b9050611611565b50600095945050505050565b60006111b083609061ffff856114d2565b6000602082840312156116f957600080fd5b5035919050565b6001600160a01b038116811461171557600080fd5b50565b6000806040838503121561172b57600080fd5b823561173681611700565b946020939093013593505050565b634e487b7160e01b600052604160045260246000fd5b60006020828403121561176c57600080fd5b813567ffffffffffffffff8082111561178457600080fd5b818401915084601f83011261179857600080fd5b8135818111156117aa576117aa611744565b604051601f8201601f19908116603f011681019083821181831017156117d2576117d2611744565b816040528281528760208487010111156117eb57600080fd5b826020860160208301376000928101602001929092525095945050505050565b6000806040838503121561181e57600080fd5b50508035926020909101359150565b60008060006060848603121561184257600080fd5b833561184d81611700565b95602085013595506040909401359392505050565b60006020828403121561187457600080fd5b81516111b081611700565b6020808252602e908201527f5573657252656769737472793a204f6e6c7920616c6c6f772063616c6c20667260408201526d37b69039b0b6b2903237b6b0b4b760911b606082015260800190565b634e487b7160e01b600052601160045260246000fd5b600082198211156118f6576118f66118cd565b500190565b634e487b7160e01b600052601260045260246000fd5b600082611920576119206118fb565b500490565b60006020828403121561193757600080fd5b815180151581146111b057600080fd5b60006020828403121561195957600080fd5b5051919050565b6000815180845260005b818110156119865760208185018101518683018201520161196a565b81811115611998576000602083870101525b50601f01601f19169290920160200192915050565b6040815260006119c06040830185611960565b90508260208301529392505050565b6000828210156119e1576119e16118cd565b500390565b634e487b7160e01b600052603260045260246000fd5b6001600160a01b038316815260406020808301829052835191830182905260009184820191906060850190845b81811015611a4557845183529383019391830191600101611a29565b5090979650505050505050565b600082611a6157611a616118fb565b500690565b6000816000190483118215151615611a8057611a806118cd565b50029056fea26469706673582212207a36dabe820c7febe6114131f37718d550f465ad6219fb0962a7473b74a2716864736f6c63430008090033",
  "linkReferences": {
    "contracts/libraries/Bytes.sol": {
      "Bytes": [
        {
          "length": 20,
          "start": 2167
        },
        {
          "length": 20,
          "start": 4239
        }
      ]
    }
  },
  "deployedLinkReferences": {
    "contracts/libraries/Bytes.sol": {
      "Bytes": [
        {
          "length": 20,
          "start": 1773
        },
        {
          "length": 20,
          "start": 3845
        }
      ]
    }
  }
}