{
  "_format": "hh-sol-artifact-1",
  "contractName": "NFT",
  "sourceName": "contracts/infrastructure/NFT.sol",
  "abi": [
    {
      "anonymous": false,
      "inputs": [
        {
          "indexed": true,
          "internalType": "address",
          "name": "owner",
          "type": "address"
        },
        {
          "indexed": true,
          "internalType": "address",
          "name": "approved",
          "type": "address"
        },
        {
          "indexed": true,
          "internalType": "uint256",
          "name": "tokenId",
          "type": "uint256"
        }
      ],
      "name": "Approval",
      "type": "event"
    },
    {
      "anonymous": false,
      "inputs": [
        {
          "indexed": true,
          "internalType": "address",
          "name": "owner",
          "type": "address"
        },
        {
          "indexed": true,
          "internalType": "address",
          "name": "operator",
          "type": "address"
        },
        {
          "indexed": false,
          "internalType": "bool",
          "name": "approved",
          "type": "bool"
        }
      ],
      "name": "ApprovalForAll",
      "type": "event"
    },
    {
      "anonymous": false,
      "inputs": [
        {
          "indexed": true,
          "internalType": "address",
          "name": "from",
          "type": "address"
        },
        {
          "indexed": true,
          "internalType": "address",
          "name": "to",
          "type": "address"
        },
        {
          "indexed": true,
          "internalType": "uint256",
          "name": "tokenId",
          "type": "uint256"
        }
      ],
      "name": "Transfer",
      "type": "event"
    },
    {
      "inputs": [
        {
          "internalType": "address",
          "name": "to",
          "type": "address"
        },
        {
          "internalType": "uint256",
          "name": "tokenId",
          "type": "uint256"
        }
      ],
      "name": "approve",
      "outputs": [],
      "stateMutability": "nonpayable",
      "type": "function"
    },
    {
      "inputs": [
        {
          "internalType": "address",
          "name": "owner",
          "type": "address"
        }
      ],
      "name": "balanceOf",
      "outputs": [
        {
          "internalType": "uint256",
          "name": "",
          "type": "uint256"
        }
      ],
      "stateMutability": "view",
      "type": "function"
    },
    {
      "inputs": [
        {
          "internalType": "address",
          "name": "to",
          "type": "address"
        },
        {
          "internalType": "uint256[]",
          "name": "tokenIds",
          "type": "uint256[]"
        }
      ],
      "name": "batchBurn",
      "outputs": [
        {
          "internalType": "bool",
          "name": "",
          "type": "bool"
        }
      ],
      "stateMutability": "nonpayable",
      "type": "function"
    },
    {
      "inputs": [
        {
          "internalType": "address",
          "name": "to",
          "type": "address"
        },
        {
          "internalType": "uint256[]",
          "name": "tokenIds",
          "type": "uint256[]"
        }
      ],
      "name": "batchMint",
      "outputs": [
        {
          "internalType": "bool",
          "name": "",
          "type": "bool"
        }
      ],
      "stateMutability": "nonpayable",
      "type": "function"
    },
    {
      "inputs": [
        {
          "internalType": "uint256",
          "name": "tokenId",
          "type": "uint256"
        }
      ],
      "name": "burn",
      "outputs": [
        {
          "internalType": "bool",
          "name": "",
          "type": "bool"
        }
      ],
      "stateMutability": "nonpayable",
      "type": "function"
    },
    {
      "inputs": [
        {
          "internalType": "string",
          "name": "uri_",
          "type": "string"
        }
      ],
      "name": "changeBaseURI",
      "outputs": [
        {
          "internalType": "bool",
          "name": "",
          "type": "bool"
        }
      ],
      "stateMutability": "nonpayable",
      "type": "function"
    },
    {
      "inputs": [
        {
          "internalType": "uint256",
          "name": "tokenId",
          "type": "uint256"
        }
      ],
      "name": "getApproved",
      "outputs": [
        {
          "internalType": "address",
          "name": "",
          "type": "address"
        }
      ],
      "stateMutability": "view",
      "type": "function"
    },
    {
      "inputs": [],
      "name": "getDomain",
      "outputs": [
        {
          "internalType": "bytes32",
          "name": "",
          "type": "bytes32"
        }
      ],
      "stateMutability": "view",
      "type": "function"
    },
    {
      "inputs": [],
      "name": "getRegistry",
      "outputs": [
        {
          "internalType": "address",
          "name": "",
          "type": "address"
        }
      ],
      "stateMutability": "view",
      "type": "function"
    },
    {
      "inputs": [
        {
          "internalType": "address",
          "name": "registry_",
          "type": "address"
        },
        {
          "internalType": "bytes32",
          "name": "domain_",
          "type": "bytes32"
        },
        {
          "internalType": "string",
          "name": "name_",
          "type": "string"
        },
        {
          "internalType": "string",
          "name": "symbol_",
          "type": "string"
        },
        {
          "internalType": "string",
          "name": "uri_",
          "type": "string"
        }
      ],
      "name": "init",
      "outputs": [
        {
          "internalType": "bool",
          "name": "",
          "type": "bool"
        }
      ],
      "stateMutability": "nonpayable",
      "type": "function"
    },
    {
      "inputs": [
        {
          "internalType": "address",
          "name": "owner",
          "type": "address"
        },
        {
          "internalType": "address",
          "name": "operator",
          "type": "address"
        }
      ],
      "name": "isApprovedForAll",
      "outputs": [
        {
          "internalType": "bool",
          "name": "",
          "type": "bool"
        }
      ],
      "stateMutability": "view",
      "type": "function"
    },
    {
      "inputs": [
        {
          "internalType": "address",
          "name": "to",
          "type": "address"
        },
        {
          "internalType": "uint256",
          "name": "tokenId",
          "type": "uint256"
        }
      ],
      "name": "mint",
      "outputs": [
        {
          "internalType": "bool",
          "name": "",
          "type": "bool"
        }
      ],
      "stateMutability": "nonpayable",
      "type": "function"
    },
    {
      "inputs": [],
      "name": "name",
      "outputs": [
        {
          "internalType": "string",
          "name": "",
          "type": "string"
        }
      ],
      "stateMutability": "view",
      "type": "function"
    },
    {
      "inputs": [
        {
          "internalType": "uint256",
          "name": "tokenId",
          "type": "uint256"
        }
      ],
      "name": "ownerOf",
      "outputs": [
        {
          "internalType": "address",
          "name": "",
          "type": "address"
        }
      ],
      "stateMutability": "view",
      "type": "function"
    },
    {
      "inputs": [
        {
          "internalType": "address",
          "name": "from",
          "type": "address"
        },
        {
          "internalType": "address",
          "name": "to",
          "type": "address"
        },
        {
          "internalType": "uint256",
          "name": "tokenId",
          "type": "uint256"
        }
      ],
      "name": "safeTransfer",
      "outputs": [
        {
          "internalType": "bool",
          "name": "",
          "type": "bool"
        }
      ],
      "stateMutability": "nonpayable",
      "type": "function"
    },
    {
      "inputs": [
        {
          "internalType": "address",
          "name": "from",
          "type": "address"
        },
        {
          "internalType": "address",
          "name": "to",
          "type": "address"
        },
        {
          "internalType": "uint256",
          "name": "tokenId",
          "type": "uint256"
        }
      ],
      "name": "safeTransferFrom",
      "outputs": [],
      "stateMutability": "nonpayable",
      "type": "function"
    },
    {
      "inputs": [
        {
          "internalType": "address",
          "name": "from",
          "type": "address"
        },
        {
          "internalType": "address",
          "name": "to",
          "type": "address"
        },
        {
          "internalType": "uint256",
          "name": "tokenId",
          "type": "uint256"
        },
        {
          "internalType": "bytes",
          "name": "_data",
          "type": "bytes"
        }
      ],
      "name": "safeTransferFrom",
      "outputs": [],
      "stateMutability": "nonpayable",
      "type": "function"
    },
    {
      "inputs": [
        {
          "internalType": "address",
          "name": "operator",
          "type": "address"
        },
        {
          "internalType": "bool",
          "name": "approved",
          "type": "bool"
        }
      ],
      "name": "setApprovalForAll",
      "outputs": [],
      "stateMutability": "nonpayable",
      "type": "function"
    },
    {
      "inputs": [
        {
          "internalType": "bytes4",
          "name": "interfaceId",
          "type": "bytes4"
        }
      ],
      "name": "supportsInterface",
      "outputs": [
        {
          "internalType": "bool",
          "name": "",
          "type": "bool"
        }
      ],
      "stateMutability": "view",
      "type": "function"
    },
    {
      "inputs": [],
      "name": "symbol",
      "outputs": [
        {
          "internalType": "string",
          "name": "",
          "type": "string"
        }
      ],
      "stateMutability": "view",
      "type": "function"
    },
    {
      "inputs": [
        {
          "internalType": "uint256",
          "name": "tokenId",
          "type": "uint256"
        }
      ],
      "name": "tokenURI",
      "outputs": [
        {
          "internalType": "string",
          "name": "",
          "type": "string"
        }
      ],
      "stateMutability": "view",
      "type": "function"
    },
    {
      "inputs": [],
      "name": "totalSupply",
      "outputs": [
        {
          "internalType": "uint256",
          "name": "",
          "type": "uint256"
        }
      ],
      "stateMutability": "view",
      "type": "function"
    },
    {
      "inputs": [
        {
          "internalType": "address",
          "name": "from",
          "type": "address"
        },
        {
          "internalType": "address",
          "name": "to",
          "type": "address"
        },
        {
          "internalType": "uint256",
          "name": "tokenId",
          "type": "uint256"
        }
      ],
      "name": "transferFrom",
      "outputs": [],
      "stateMutability": "nonpayable",
      "type": "function"
    }
  ],
  "bytecode": "0x60806040526002805460ff1990811690915560068054909116905534801561002657600080fd5b5061215b806100366000396000f3fe608060405234801561001057600080fd5b506004361061014d5760003560e01c80635ab1bd53116100c3578063b68d18091161007c578063b68d1809146102b8578063b88d4fde146102c0578063c87b56dd146102d3578063d1660f99146102e6578063e985e9c5146102f9578063f45a9b071461033557600080fd5b80635ab1bd53146102535780636352211e1461026457806370a08231146102775780637bad23801461028a57806395d89b411461029d578063a22cb465146102a557600080fd5b806323b872dd1161011557806323b872dd146101e157806339a0c6f9146101f457806340c10f191461020757806342842e0e1461021a57806342966c681461022d5780634684d7e91461024057600080fd5b806301ffc9a71461015257806306fdde031461017a578063081812fc1461018f578063095ea7b3146101ba57806318160ddd146101cf575b600080fd5b610165610160366004611a25565b610348565b60405190151581526020015b60405180910390f35b61018261039a565b6040516101719190611a9a565b6101a261019d366004611aad565b61042c565b6040516001600160a01b039091168152602001610171565b6101cd6101c8366004611adb565b6104b9565b005b600b545b604051908152602001610171565b6101cd6101ef366004611b07565b6105cf565b610165610202366004611c07565b610600565b610165610215366004611adb565b6106e5565b6101cd610228366004611b07565b6107df565b61016561023b366004611aad565b6107fa565b61016561024e366004611c3c565b61093f565b6000546001600160a01b03166101a2565b6101a2610272366004611aad565b610aea565b6101d3610285366004611cf7565b610b61565b610165610298366004611c3c565b610be8565b610182610dd2565b6101cd6102b3366004611d14565b610de1565b6001546101d3565b6101cd6102ce366004611d52565b610ea6565b6101826102e1366004611aad565b610ede565b6101656102f4366004611b07565b610fa9565b610165610307366004611dd2565b6001600160a01b039182166000908152600a6020908152604080832093909416825291909152205460ff1690565b610165610343366004611e00565b6110dc565b60006001600160e01b031982166380ac58cd60e01b148061037957506001600160e01b03198216635b5e139f60e01b145b8061039457506301ffc9a760e01b6001600160e01b03198316145b92915050565b6060600480546103a990611ea5565b80601f01602080910402602001604051908101604052809291908181526020018280546103d590611ea5565b80156104225780601f106103f757610100808354040283529160200191610422565b820191906000526020600020905b81548152906001019060200180831161040557829003601f168201915b5050505050905090565b600061043782611101565b61049d5760405162461bcd60e51b815260206004820152602c60248201527f4552433732313a20617070726f76656420717565727920666f72206e6f6e657860448201526b34b9ba32b73a103a37b5b2b760a11b60648201526084015b60405180910390fd5b506000908152600960205260409020546001600160a01b031690565b60006104c482610aea565b9050806001600160a01b0316836001600160a01b031614156105325760405162461bcd60e51b815260206004820152602160248201527f4552433732313a20617070726f76616c20746f2063757272656e74206f776e656044820152603960f91b6064820152608401610494565b336001600160a01b038216148061054e575061054e8133610307565b6105c05760405162461bcd60e51b815260206004820152603860248201527f4552433732313a20617070726f76652063616c6c6572206973206e6f74206f7760448201527f6e6572206e6f7220617070726f76656420666f7220616c6c00000000000000006064820152608401610494565b6105ca838361111e565b505050565b6105d9338261118c565b6105f55760405162461bcd60e51b815260040161049490611eda565b6105ca838383611272565b600080546001546040516369d1cb4360e11b815260048101919091526a2234b9ba3934b13aba37b960a91b60248201819052916001600160a01b03169063d3a396869060440160206040518083038186803b15801561065e57600080fd5b505afa158015610672573d6000803e3d6000fd5b505050506040513d601f19601f820116820180604052508101906106969190611f2b565b6001600160a01b0316336001600160a01b0316146106c65760405162461bcd60e51b815260040161049490611f48565b82516106d9906003906020860190611973565b50600191505b50919050565b600080546001546040516369d1cb4360e11b815260048101919091526a2234b9ba3934b13aba37b960a91b60248201819052916001600160a01b03169063d3a396869060440160206040518083038186803b15801561074357600080fd5b505afa158015610757573d6000803e3d6000fd5b505050506040513d601f19601f8201168201806040525081019061077b9190611f2b565b6001600160a01b0316336001600160a01b0316146107ab5760405162461bcd60e51b815260040161049490611f48565b6001600b60008282546107be9190611fac565b909155506107ce90508484611412565b6107d783611101565b949350505050565b6105ca83838360405180602001604052806000815250610ea6565b600080546001546040516369d1cb4360e11b815260048101919091526a2234b9ba3934b13aba37b960a91b60248201819052916001600160a01b03169063d3a396869060440160206040518083038186803b15801561085857600080fd5b505afa15801561086c573d6000803e3d6000fd5b505050506040513d601f19601f820116820180604052508101906108909190611f2b565b6001600160a01b0316336001600160a01b0316146108c05760405162461bcd60e51b815260040161049490611f48565b6000600b541161090c5760405162461bcd60e51b81526020600482015260176024820152761391950e88155b99195c999b1bddc819195d1958dd1959604a1b6044820152606401610494565b6001600b600082825461091f9190611fc4565b9091555061092e905083611545565b61093783611101565b159392505050565b600080546001546040516369d1cb4360e11b815260048101919091526a2234b9ba3934b13aba37b960a91b60248201819052916001600160a01b03169063d3a396869060440160206040518083038186803b15801561099d57600080fd5b505afa1580156109b1573d6000803e3d6000fd5b505050506040513d601f19601f820116820180604052508101906109d59190611f2b565b6001600160a01b0316336001600160a01b031614610a055760405162461bcd60e51b815260040161049490611f48565b6000610a1085610b61565b905060005b8451811015610a5357610a4186868381518110610a3457610a34611fdb565b6020026020010151611412565b610a4c600182611fac565b9050610a15565b506000610a5f86610b61565b90508451600b6000828254610a749190611fac565b90915550508451610a858383611fc4565b14610ade5760405162461bcd60e51b815260206004820152602360248201527f4e46543a204d696e74656420616d6f756e7420646f6573206e6f7420636f72726044820152621958dd60ea1b6064820152608401610494565b50600195945050505050565b6000818152600760205260408120546001600160a01b0316806103945760405162461bcd60e51b815260206004820152602960248201527f4552433732313a206f776e657220717565727920666f72206e6f6e657869737460448201526832b73a103a37b5b2b760b91b6064820152608401610494565b60006001600160a01b038216610bcc5760405162461bcd60e51b815260206004820152602a60248201527f4552433732313a2062616c616e636520717565727920666f7220746865207a65604482015269726f206164647265737360b01b6064820152608401610494565b506001600160a01b031660009081526008602052604090205490565b600080546001546040516369d1cb4360e11b815260048101919091526a2234b9ba3934b13aba37b960a91b60248201819052916001600160a01b03169063d3a396869060440160206040518083038186803b158015610c4657600080fd5b505afa158015610c5a573d6000803e3d6000fd5b505050506040513d601f19601f82011682018060405250810190610c7e9190611f2b565b6001600160a01b0316336001600160a01b031614610cae5760405162461bcd60e51b815260040161049490611f48565b8251600b541015610cfb5760405162461bcd60e51b81526020600482015260176024820152761391950e88155b99195c999b1bddc819195d1958dd1959604a1b6044820152606401610494565b6000610d0685610b61565b905060005b8451811015610d4857610d36858281518110610d2957610d29611fdb565b6020026020010151611545565b610d41600182611fac565b9050610d0b565b506000610d5486610b61565b90508451600b6000828254610d699190611fc4565b90915550508451610d7a8284611fc4565b14610ade5760405162461bcd60e51b815260206004820152602260248201527f4e46543a204275726e7420616d6f756e7420646f6573206e6f7420636f72726560448201526118dd60f21b6064820152608401610494565b6060600580546103a990611ea5565b6001600160a01b038216331415610e3a5760405162461bcd60e51b815260206004820152601960248201527f4552433732313a20617070726f766520746f2063616c6c6572000000000000006044820152606401610494565b336000818152600a602090815260408083206001600160a01b03871680855290835292819020805460ff191686151590811790915590519081529192917f17307eab39ab6107e8899845ad3d59bd9653f200f220920489ca2b5937696c31910160405180910390a35050565b610eb0338361118c565b610ecc5760405162461bcd60e51b815260040161049490611eda565b610ed8848484846115e0565b50505050565b6060610ee982611101565b610f4d5760405162461bcd60e51b815260206004820152602f60248201527f4552433732314d657461646174613a2055524920717565727920666f72206e6f60448201526e3732bc34b9ba32b73a103a37b5b2b760891b6064820152608401610494565b6000610f57611613565b90506000815111610f775760405180602001604052806000815250610fa2565b80610f8184611622565b604051602001610f92929190611ff1565b6040516020818303038152906040525b9392505050565b600080546040516369d1cb4360e11b81526d496e66726173747275637475726560901b60048201819052630537761760e41b60248301819052909290916001600160a01b039091169063d3a396869060440160206040518083038186803b15801561101357600080fd5b505afa158015611027573d6000803e3d6000fd5b505050506040513d601f19601f8201168201806040525081019061104b9190611f2b565b6001600160a01b0316336001600160a01b0316146110d15760405162461bcd60e51b815260206004820152603760248201527f5573657252656769737472793a204f6e6c7920616c6c6f772063616c6c20667260448201527f6f6d20616c6c6f7765642063726f737320646f6d61696e0000000000000000006064820152608401610494565b610ade868686611272565b60006110e9848484611720565b506110f486866117ce565b5060019695505050505050565b6000908152600760205260409020546001600160a01b0316151590565b600081815260096020526040902080546001600160a01b0319166001600160a01b038416908117909155819061115382610aea565b6001600160a01b03167f8c5be1e5ebec7d5bd14f71427d1e84f3dd0314c0f7b2291e5b200ac8c7c3b92560405160405180910390a45050565b600061119782611101565b6111f85760405162461bcd60e51b815260206004820152602c60248201527f4552433732313a206f70657261746f7220717565727920666f72206e6f6e657860448201526b34b9ba32b73a103a37b5b2b760a11b6064820152608401610494565b600061120383610aea565b9050806001600160a01b0316846001600160a01b0316148061123e5750836001600160a01b03166112338461042c565b6001600160a01b0316145b806107d757506001600160a01b038082166000908152600a602090815260408083209388168352929052205460ff166107d7565b826001600160a01b031661128582610aea565b6001600160a01b0316146112ed5760405162461bcd60e51b815260206004820152602960248201527f4552433732313a207472616e73666572206f6620746f6b656e2074686174206960448201526839903737ba1037bbb760b91b6064820152608401610494565b6001600160a01b03821661134f5760405162461bcd60e51b8152602060048201526024808201527f4552433732313a207472616e7366657220746f20746865207a65726f206164646044820152637265737360e01b6064820152608401610494565b61135a60008261111e565b6001600160a01b0383166000908152600860205260408120805460019290611383908490611fc4565b90915550506001600160a01b03821660009081526008602052604081208054600192906113b1908490611fac565b909155505060008181526007602052604080822080546001600160a01b0319166001600160a01b0386811691821790925591518493918716917fddf252ad1be2c89b69c2b068fc378daa952ba7f163c4a11628f55a4df523b3ef91a4505050565b6001600160a01b0382166114685760405162461bcd60e51b815260206004820181905260248201527f4552433732313a206d696e7420746f20746865207a65726f20616464726573736044820152606401610494565b61147181611101565b156114be5760405162461bcd60e51b815260206004820152601c60248201527f4552433732313a20746f6b656e20616c7265616479206d696e746564000000006044820152606401610494565b6001600160a01b03821660009081526008602052604081208054600192906114e7908490611fac565b909155505060008181526007602052604080822080546001600160a01b0319166001600160a01b03861690811790915590518392907fddf252ad1be2c89b69c2b068fc378daa952ba7f163c4a11628f55a4df523b3ef908290a45050565b600061155082610aea565b905061155d60008361111e565b6001600160a01b0381166000908152600860205260408120805460019290611586908490611fc4565b909155505060008281526007602052604080822080546001600160a01b0319169055518391906001600160a01b038416907fddf252ad1be2c89b69c2b068fc378daa952ba7f163c4a11628f55a4df523b3ef908390a45050565b6115eb848484611272565b6115f784848484611871565b610ed85760405162461bcd60e51b815260040161049490612020565b6060600380546103a990611ea5565b6060816116465750506040805180820190915260018152600360fc1b602082015290565b8160005b8115611670578061165a81612072565b91506116699050600a836120a3565b915061164a565b60008167ffffffffffffffff81111561168b5761168b611b48565b6040519080825280601f01601f1916602001820160405280156116b5576020820181803683370190505b5090505b84156107d7576116ca600183611fc4565b91506116d7600a866120b7565b6116e2906030611fac565b60f81b8183815181106116f7576116f7611fdb565b60200101906001600160f81b031916908160001a905350611719600a866120a3565b94506116b9565b60065460009060ff16156117885760405162461bcd60e51b815260206004820152602960248201527f4552433732313a2049742773206f6e6c792061626c6520746f20696e697469616044820152686c697a65206f6e636560b81b6064820152608401610494565b835161179b906004906020870190611973565b5082516117af906005906020860190611973565b5081516117c3906003906020850190611973565b506001949350505050565b60025460009060ff161561183c5760405162461bcd60e51b815260206004820152602f60248201527f5573657252656769737472793a2049742773206f6e6c792061626c6520746f2060448201526e696e697469616c697a65206f6e636560881b6064820152608401610494565b50600080546001600160a01b0384166001600160a01b031990911617905560018181556002805460ff19168217905592915050565b60006001600160a01b0384163b156117c357604051630a85bd0160e11b81526001600160a01b0385169063150b7a02906118b59033908990889088906004016120cb565b602060405180830381600087803b1580156118cf57600080fd5b505af19250505080156118ff575060408051601f3d908101601f191682019092526118fc91810190612108565b60015b611959573d80801561192d576040519150601f19603f3d011682016040523d82523d6000602084013e611932565b606091505b5080516119515760405162461bcd60e51b815260040161049490612020565b805181602001fd5b6001600160e01b031916630a85bd0160e11b1490506107d7565b82805461197f90611ea5565b90600052602060002090601f0160209004810192826119a157600085556119e7565b82601f106119ba57805160ff19168380011785556119e7565b828001600101855582156119e7579182015b828111156119e75782518255916020019190600101906119cc565b506119f39291506119f7565b5090565b5b808211156119f357600081556001016119f8565b6001600160e01b031981168114611a2257600080fd5b50565b600060208284031215611a3757600080fd5b8135610fa281611a0c565b60005b83811015611a5d578181015183820152602001611a45565b83811115610ed85750506000910152565b60008151808452611a86816020860160208601611a42565b601f01601f19169290920160200192915050565b602081526000610fa26020830184611a6e565b600060208284031215611abf57600080fd5b5035919050565b6001600160a01b0381168114611a2257600080fd5b60008060408385031215611aee57600080fd5b8235611af981611ac6565b946020939093013593505050565b600080600060608486031215611b1c57600080fd5b8335611b2781611ac6565b92506020840135611b3781611ac6565b929592945050506040919091013590565b634e487b7160e01b600052604160045260246000fd5b604051601f8201601f1916810167ffffffffffffffff81118282101715611b8757611b87611b48565b604052919050565b600067ffffffffffffffff831115611ba957611ba9611b48565b611bbc601f8401601f1916602001611b5e565b9050828152838383011115611bd057600080fd5b828260208301376000602084830101529392505050565b600082601f830112611bf857600080fd5b610fa283833560208501611b8f565b600060208284031215611c1957600080fd5b813567ffffffffffffffff811115611c3057600080fd5b6107d784828501611be7565b60008060408385031215611c4f57600080fd5b8235611c5a81611ac6565b915060208381013567ffffffffffffffff80821115611c7857600080fd5b818601915086601f830112611c8c57600080fd5b813581811115611c9e57611c9e611b48565b8060051b9150611caf848301611b5e565b8181529183018401918481019089841115611cc957600080fd5b938501935b83851015611ce757843582529385019390850190611cce565b8096505050505050509250929050565b600060208284031215611d0957600080fd5b8135610fa281611ac6565b60008060408385031215611d2757600080fd5b8235611d3281611ac6565b915060208301358015158114611d4757600080fd5b809150509250929050565b60008060008060808587031215611d6857600080fd5b8435611d7381611ac6565b93506020850135611d8381611ac6565b925060408501359150606085013567ffffffffffffffff811115611da657600080fd5b8501601f81018713611db757600080fd5b611dc687823560208401611b8f565b91505092959194509250565b60008060408385031215611de557600080fd5b8235611df081611ac6565b91506020830135611d4781611ac6565b600080600080600060a08688031215611e1857600080fd5b8535611e2381611ac6565b945060208601359350604086013567ffffffffffffffff80821115611e4757600080fd5b611e5389838a01611be7565b94506060880135915080821115611e6957600080fd5b611e7589838a01611be7565b93506080880135915080821115611e8b57600080fd5b50611e9888828901611be7565b9150509295509295909350565b600181811c90821680611eb957607f821691505b602082108114156106df57634e487b7160e01b600052602260045260246000fd5b60208082526031908201527f4552433732313a207472616e736665722063616c6c6572206973206e6f74206f6040820152701ddb995c881b9bdc88185c1c1c9bdd9959607a1b606082015260800190565b600060208284031215611f3d57600080fd5b8151610fa281611ac6565b6020808252602e908201527f5573657252656769737472793a204f6e6c7920616c6c6f772063616c6c20667260408201526d37b69039b0b6b2903237b6b0b4b760911b606082015260800190565b634e487b7160e01b600052601160045260246000fd5b60008219821115611fbf57611fbf611f96565b500190565b600082821015611fd657611fd6611f96565b500390565b634e487b7160e01b600052603260045260246000fd5b60008351612003818460208801611a42565b835190830190612017818360208801611a42565b01949350505050565b60208082526032908201527f4552433732313a207472616e7366657220746f206e6f6e20455243373231526560408201527131b2b4bb32b91034b6b83632b6b2b73a32b960711b606082015260800190565b600060001982141561208657612086611f96565b5060010190565b634e487b7160e01b600052601260045260246000fd5b6000826120b2576120b261208d565b500490565b6000826120c6576120c661208d565b500690565b6001600160a01b03858116825284166020820152604081018390526080606082018190526000906120fe90830184611a6e565b9695505050505050565b60006020828403121561211a57600080fd5b8151610fa281611a0c56fea2646970667358221220a828b84e2ae48dbf4cc0852af73088e265ec27bc0378b2b71260f6f7a4ebeed464736f6c63430008090033",
  "linkReferences": {},
  "deployedLinkReferences": {}
}