{
  "_format": "hh-sol-artifact-1",
  "contractName": "NFT",
  "sourceName": "contracts/infrastructure/NFT.sol",
  "abi": [
    {
      "anonymous": false,
      "inputs": [
        {
          "indexed": true,
          "internalType": "address",
          "name": "owner",
          "type": "address"
        },
        {
          "indexed": true,
          "internalType": "address",
          "name": "approved",
          "type": "address"
        },
        {
          "indexed": true,
          "internalType": "uint256",
          "name": "tokenId",
          "type": "uint256"
        }
      ],
      "name": "Approval",
      "type": "event"
    },
    {
      "anonymous": false,
      "inputs": [
        {
          "indexed": true,
          "internalType": "address",
          "name": "owner",
          "type": "address"
        },
        {
          "indexed": true,
          "internalType": "address",
          "name": "operator",
          "type": "address"
        },
        {
          "indexed": false,
          "internalType": "bool",
          "name": "approved",
          "type": "bool"
        }
      ],
      "name": "ApprovalForAll",
      "type": "event"
    },
    {
      "anonymous": false,
      "inputs": [
        {
          "indexed": true,
          "internalType": "address",
          "name": "from",
          "type": "address"
        },
        {
          "indexed": true,
          "internalType": "address",
          "name": "to",
          "type": "address"
        },
        {
          "indexed": true,
          "internalType": "uint256",
          "name": "tokenId",
          "type": "uint256"
        }
      ],
      "name": "Transfer",
      "type": "event"
    },
    {
      "inputs": [
        {
          "internalType": "address",
          "name": "to",
          "type": "address"
        },
        {
          "internalType": "uint256",
          "name": "tokenId",
          "type": "uint256"
        }
      ],
      "name": "approve",
      "outputs": [],
      "stateMutability": "nonpayable",
      "type": "function"
    },
    {
      "inputs": [
        {
          "internalType": "address",
          "name": "owner",
          "type": "address"
        }
      ],
      "name": "balanceOf",
      "outputs": [
        {
          "internalType": "uint256",
          "name": "",
          "type": "uint256"
        }
      ],
      "stateMutability": "view",
      "type": "function"
    },
    {
      "inputs": [
        {
          "internalType": "uint256",
          "name": "tokenId",
          "type": "uint256"
        }
      ],
      "name": "burn",
      "outputs": [
        {
          "internalType": "bool",
          "name": "",
          "type": "bool"
        }
      ],
      "stateMutability": "nonpayable",
      "type": "function"
    },
    {
      "inputs": [
        {
          "internalType": "string",
          "name": "uri_",
          "type": "string"
        }
      ],
      "name": "changeBaseURI",
      "outputs": [
        {
          "internalType": "bool",
          "name": "",
          "type": "bool"
        }
      ],
      "stateMutability": "nonpayable",
      "type": "function"
    },
    {
      "inputs": [
        {
          "internalType": "uint256",
          "name": "tokenId",
          "type": "uint256"
        }
      ],
      "name": "getApproved",
      "outputs": [
        {
          "internalType": "address",
          "name": "",
          "type": "address"
        }
      ],
      "stateMutability": "view",
      "type": "function"
    },
    {
      "inputs": [],
      "name": "getDomain",
      "outputs": [
        {
          "internalType": "bytes32",
          "name": "",
          "type": "bytes32"
        }
      ],
      "stateMutability": "view",
      "type": "function"
    },
    {
      "inputs": [],
      "name": "getRegistry",
      "outputs": [
        {
          "internalType": "address",
          "name": "",
          "type": "address"
        }
      ],
      "stateMutability": "view",
      "type": "function"
    },
    {
      "inputs": [
        {
          "internalType": "address",
          "name": "registry_",
          "type": "address"
        },
        {
          "internalType": "bytes32",
          "name": "domain_",
          "type": "bytes32"
        },
        {
          "internalType": "string",
          "name": "name_",
          "type": "string"
        },
        {
          "internalType": "string",
          "name": "symbol_",
          "type": "string"
        },
        {
          "internalType": "string",
          "name": "uri_",
          "type": "string"
        }
      ],
      "name": "init",
      "outputs": [
        {
          "internalType": "bool",
          "name": "",
          "type": "bool"
        }
      ],
      "stateMutability": "nonpayable",
      "type": "function"
    },
    {
      "inputs": [
        {
          "internalType": "address",
          "name": "owner",
          "type": "address"
        },
        {
          "internalType": "address",
          "name": "operator",
          "type": "address"
        }
      ],
      "name": "isApprovedForAll",
      "outputs": [
        {
          "internalType": "bool",
          "name": "",
          "type": "bool"
        }
      ],
      "stateMutability": "view",
      "type": "function"
    },
    {
      "inputs": [
        {
          "internalType": "address",
          "name": "to",
          "type": "address"
        },
        {
          "internalType": "uint256",
          "name": "tokenId",
          "type": "uint256"
        }
      ],
      "name": "mint",
      "outputs": [
        {
          "internalType": "bool",
          "name": "",
          "type": "bool"
        }
      ],
      "stateMutability": "nonpayable",
      "type": "function"
    },
    {
      "inputs": [],
      "name": "name",
      "outputs": [
        {
          "internalType": "string",
          "name": "",
          "type": "string"
        }
      ],
      "stateMutability": "view",
      "type": "function"
    },
    {
      "inputs": [
        {
          "internalType": "uint256",
          "name": "tokenId",
          "type": "uint256"
        }
      ],
      "name": "ownerOf",
      "outputs": [
        {
          "internalType": "address",
          "name": "",
          "type": "address"
        }
      ],
      "stateMutability": "view",
      "type": "function"
    },
    {
      "inputs": [
        {
          "internalType": "address",
          "name": "from",
          "type": "address"
        },
        {
          "internalType": "address",
          "name": "to",
          "type": "address"
        },
        {
          "internalType": "uint256",
          "name": "tokenId",
          "type": "uint256"
        }
      ],
      "name": "safeTransfer",
      "outputs": [
        {
          "internalType": "bool",
          "name": "",
          "type": "bool"
        }
      ],
      "stateMutability": "nonpayable",
      "type": "function"
    },
    {
      "inputs": [
        {
          "internalType": "address",
          "name": "from",
          "type": "address"
        },
        {
          "internalType": "address",
          "name": "to",
          "type": "address"
        },
        {
          "internalType": "uint256",
          "name": "tokenId",
          "type": "uint256"
        }
      ],
      "name": "safeTransferFrom",
      "outputs": [],
      "stateMutability": "nonpayable",
      "type": "function"
    },
    {
      "inputs": [
        {
          "internalType": "address",
          "name": "from",
          "type": "address"
        },
        {
          "internalType": "address",
          "name": "to",
          "type": "address"
        },
        {
          "internalType": "uint256",
          "name": "tokenId",
          "type": "uint256"
        },
        {
          "internalType": "bytes",
          "name": "_data",
          "type": "bytes"
        }
      ],
      "name": "safeTransferFrom",
      "outputs": [],
      "stateMutability": "nonpayable",
      "type": "function"
    },
    {
      "inputs": [
        {
          "internalType": "address",
          "name": "operator",
          "type": "address"
        },
        {
          "internalType": "bool",
          "name": "approved",
          "type": "bool"
        }
      ],
      "name": "setApprovalForAll",
      "outputs": [],
      "stateMutability": "nonpayable",
      "type": "function"
    },
    {
      "inputs": [
        {
          "internalType": "bytes4",
          "name": "interfaceId",
          "type": "bytes4"
        }
      ],
      "name": "supportsInterface",
      "outputs": [
        {
          "internalType": "bool",
          "name": "",
          "type": "bool"
        }
      ],
      "stateMutability": "view",
      "type": "function"
    },
    {
      "inputs": [],
      "name": "symbol",
      "outputs": [
        {
          "internalType": "string",
          "name": "",
          "type": "string"
        }
      ],
      "stateMutability": "view",
      "type": "function"
    },
    {
      "inputs": [
        {
          "internalType": "uint256",
          "name": "tokenId",
          "type": "uint256"
        }
      ],
      "name": "tokenURI",
      "outputs": [
        {
          "internalType": "string",
          "name": "",
          "type": "string"
        }
      ],
      "stateMutability": "view",
      "type": "function"
    },
    {
      "inputs": [],
      "name": "totalSupply",
      "outputs": [
        {
          "internalType": "uint256",
          "name": "",
          "type": "uint256"
        }
      ],
      "stateMutability": "view",
      "type": "function"
    },
    {
      "inputs": [
        {
          "internalType": "address",
          "name": "from",
          "type": "address"
        },
        {
          "internalType": "address",
          "name": "to",
          "type": "address"
        },
        {
          "internalType": "uint256",
          "name": "tokenId",
          "type": "uint256"
        }
      ],
      "name": "transferFrom",
      "outputs": [],
      "stateMutability": "nonpayable",
      "type": "function"
    }
  ],
  "bytecode": "0x60806040526002805460ff1990811690915560068054909116905534801561002657600080fd5b50611cce806100366000396000f3fe608060405234801561001057600080fd5b50600436106101375760003560e01c80635ab1bd53116100b8578063b68d18091161007c578063b68d18091461027c578063b88d4fde14610284578063c87b56dd14610297578063d1660f99146102aa578063e985e9c5146102bd578063f45a9b07146102f957600080fd5b80635ab1bd531461022a5780636352211e1461023b57806370a082311461024e57806395d89b4114610261578063a22cb4651461026957600080fd5b806323b872dd116100ff57806323b872dd146101cb57806339a0c6f9146101de57806340c10f19146101f157806342842e0e1461020457806342966c681461021757600080fd5b806301ffc9a71461013c57806306fdde0314610164578063081812fc14610179578063095ea7b3146101a457806318160ddd146101b9575b600080fd5b61014f61014a366004611666565b61030c565b60405190151581526020015b60405180910390f35b61016c61035e565b60405161015b91906116db565b61018c6101873660046116ee565b6103f0565b6040516001600160a01b03909116815260200161015b565b6101b76101b236600461171c565b61047d565b005b600b545b60405190815260200161015b565b6101b76101d9366004611748565b610593565b61014f6101ec366004611835565b6105c4565b61014f6101ff36600461171c565b6106a9565b6101b7610212366004611748565b6107a3565b61014f6102253660046116ee565b6107be565b6000546001600160a01b031661018c565b61018c6102493660046116ee565b610909565b6101bd61025c36600461186a565b610980565b61016c610a07565b6101b7610277366004611887565b610a16565b6001546101bd565b6101b76102923660046118c5565b610adb565b61016c6102a53660046116ee565b610b13565b61014f6102b8366004611748565b610bde565b61014f6102cb366004611945565b6001600160a01b039182166000908152600a6020908152604080832093909416825291909152205460ff1690565b61014f610307366004611973565b610d1d565b60006001600160e01b031982166380ac58cd60e01b148061033d57506001600160e01b03198216635b5e139f60e01b145b8061035857506301ffc9a760e01b6001600160e01b03198316145b92915050565b60606004805461036d90611a18565b80601f016020809104026020016040519081016040528092919081815260200182805461039990611a18565b80156103e65780601f106103bb576101008083540402835291602001916103e6565b820191906000526020600020905b8154815290600101906020018083116103c957829003601f168201915b5050505050905090565b60006103fb82610d42565b6104615760405162461bcd60e51b815260206004820152602c60248201527f4552433732313a20617070726f76656420717565727920666f72206e6f6e657860448201526b34b9ba32b73a103a37b5b2b760a11b60648201526084015b60405180910390fd5b506000908152600960205260409020546001600160a01b031690565b600061048882610909565b9050806001600160a01b0316836001600160a01b031614156104f65760405162461bcd60e51b815260206004820152602160248201527f4552433732313a20617070726f76616c20746f2063757272656e74206f776e656044820152603960f91b6064820152608401610458565b336001600160a01b0382161480610512575061051281336102cb565b6105845760405162461bcd60e51b815260206004820152603860248201527f4552433732313a20617070726f76652063616c6c6572206973206e6f74206f7760448201527f6e6572206e6f7220617070726f76656420666f7220616c6c00000000000000006064820152608401610458565b61058e8383610d5f565b505050565b61059d3382610dcd565b6105b95760405162461bcd60e51b815260040161045890611a4d565b61058e838383610eb3565b600080546001546040516369d1cb4360e11b815260048101919091526a2234b9ba3934b13aba37b960a91b60248201819052916001600160a01b03169063d3a396869060440160206040518083038186803b15801561062257600080fd5b505afa158015610636573d6000803e3d6000fd5b505050506040513d601f19601f8201168201806040525081019061065a9190611a9e565b6001600160a01b0316336001600160a01b03161461068a5760405162461bcd60e51b815260040161045890611abb565b825161069d9060039060208601906115b4565b50600191505b50919050565b600080546001546040516369d1cb4360e11b815260048101919091526a2234b9ba3934b13aba37b960a91b60248201819052916001600160a01b03169063d3a396869060440160206040518083038186803b15801561070757600080fd5b505afa15801561071b573d6000803e3d6000fd5b505050506040513d601f19601f8201168201806040525081019061073f9190611a9e565b6001600160a01b0316336001600160a01b03161461076f5760405162461bcd60e51b815260040161045890611abb565b6001600b60008282546107829190611b1f565b9091555061079290508484611053565b61079b83610d42565b949350505050565b61058e83838360405180602001604052806000815250610adb565b600080546001546040516369d1cb4360e11b815260048101919091526a2234b9ba3934b13aba37b960a91b60248201819052916001600160a01b03169063d3a396869060440160206040518083038186803b15801561081c57600080fd5b505afa158015610830573d6000803e3d6000fd5b505050506040513d601f19601f820116820180604052508101906108549190611a9e565b6001600160a01b0316336001600160a01b0316146108845760405162461bcd60e51b815260040161045890611abb565b6000600b54116108d65760405162461bcd60e51b815260206004820152601760248201527f4e46543a20556e646572666c6f772064657465637465640000000000000000006044820152606401610458565b6001600b60008282546108e99190611b37565b909155506108f8905083611186565b61090183610d42565b159392505050565b6000818152600760205260408120546001600160a01b0316806103585760405162461bcd60e51b815260206004820152602960248201527f4552433732313a206f776e657220717565727920666f72206e6f6e657869737460448201526832b73a103a37b5b2b760b91b6064820152608401610458565b60006001600160a01b0382166109eb5760405162461bcd60e51b815260206004820152602a60248201527f4552433732313a2062616c616e636520717565727920666f7220746865207a65604482015269726f206164647265737360b01b6064820152608401610458565b506001600160a01b031660009081526008602052604090205490565b60606005805461036d90611a18565b6001600160a01b038216331415610a6f5760405162461bcd60e51b815260206004820152601960248201527f4552433732313a20617070726f766520746f2063616c6c6572000000000000006044820152606401610458565b336000818152600a602090815260408083206001600160a01b03871680855290835292819020805460ff191686151590811790915590519081529192917f17307eab39ab6107e8899845ad3d59bd9653f200f220920489ca2b5937696c31910160405180910390a35050565b610ae53383610dcd565b610b015760405162461bcd60e51b815260040161045890611a4d565b610b0d84848484611221565b50505050565b6060610b1e82610d42565b610b825760405162461bcd60e51b815260206004820152602f60248201527f4552433732314d657461646174613a2055524920717565727920666f72206e6f60448201526e3732bc34b9ba32b73a103a37b5b2b760891b6064820152608401610458565b6000610b8c611254565b90506000815111610bac5760405180602001604052806000815250610bd7565b80610bb684611263565b604051602001610bc7929190611b4e565b6040516020818303038152906040525b9392505050565b600080546040516369d1cb4360e11b81526d496e66726173747275637475726560901b60048201819052630537761760e41b60248301819052909290916001600160a01b039091169063d3a396869060440160206040518083038186803b158015610c4857600080fd5b505afa158015610c5c573d6000803e3d6000fd5b505050506040513d601f19601f82011682018060405250810190610c809190611a9e565b6001600160a01b0316336001600160a01b031614610d065760405162461bcd60e51b815260206004820152603760248201527f5573657252656769737472793a204f6e6c7920616c6c6f772063616c6c20667260448201527f6f6d20616c6c6f7765642063726f737320646f6d61696e0000000000000000006064820152608401610458565b610d11868686610eb3565b50600195945050505050565b6000610d2a848484611361565b50610d35868661140f565b5060019695505050505050565b6000908152600760205260409020546001600160a01b0316151590565b600081815260096020526040902080546001600160a01b0319166001600160a01b0384169081179091558190610d9482610909565b6001600160a01b03167f8c5be1e5ebec7d5bd14f71427d1e84f3dd0314c0f7b2291e5b200ac8c7c3b92560405160405180910390a45050565b6000610dd882610d42565b610e395760405162461bcd60e51b815260206004820152602c60248201527f4552433732313a206f70657261746f7220717565727920666f72206e6f6e657860448201526b34b9ba32b73a103a37b5b2b760a11b6064820152608401610458565b6000610e4483610909565b9050806001600160a01b0316846001600160a01b03161480610e7f5750836001600160a01b0316610e74846103f0565b6001600160a01b0316145b8061079b57506001600160a01b038082166000908152600a602090815260408083209388168352929052205460ff1661079b565b826001600160a01b0316610ec682610909565b6001600160a01b031614610f2e5760405162461bcd60e51b815260206004820152602960248201527f4552433732313a207472616e73666572206f6620746f6b656e2074686174206960448201526839903737ba1037bbb760b91b6064820152608401610458565b6001600160a01b038216610f905760405162461bcd60e51b8152602060048201526024808201527f4552433732313a207472616e7366657220746f20746865207a65726f206164646044820152637265737360e01b6064820152608401610458565b610f9b600082610d5f565b6001600160a01b0383166000908152600860205260408120805460019290610fc4908490611b37565b90915550506001600160a01b0382166000908152600860205260408120805460019290610ff2908490611b1f565b909155505060008181526007602052604080822080546001600160a01b0319166001600160a01b0386811691821790925591518493918716917fddf252ad1be2c89b69c2b068fc378daa952ba7f163c4a11628f55a4df523b3ef91a4505050565b6001600160a01b0382166110a95760405162461bcd60e51b815260206004820181905260248201527f4552433732313a206d696e7420746f20746865207a65726f20616464726573736044820152606401610458565b6110b281610d42565b156110ff5760405162461bcd60e51b815260206004820152601c60248201527f4552433732313a20746f6b656e20616c7265616479206d696e746564000000006044820152606401610458565b6001600160a01b0382166000908152600860205260408120805460019290611128908490611b1f565b909155505060008181526007602052604080822080546001600160a01b0319166001600160a01b03861690811790915590518392907fddf252ad1be2c89b69c2b068fc378daa952ba7f163c4a11628f55a4df523b3ef908290a45050565b600061119182610909565b905061119e600083610d5f565b6001600160a01b03811660009081526008602052604081208054600192906111c7908490611b37565b909155505060008281526007602052604080822080546001600160a01b0319169055518391906001600160a01b038416907fddf252ad1be2c89b69c2b068fc378daa952ba7f163c4a11628f55a4df523b3ef908390a45050565b61122c848484610eb3565b611238848484846114b2565b610b0d5760405162461bcd60e51b815260040161045890611b7d565b60606003805461036d90611a18565b6060816112875750506040805180820190915260018152600360fc1b602082015290565b8160005b81156112b1578061129b81611bcf565b91506112aa9050600a83611c00565b915061128b565b60008167ffffffffffffffff8111156112cc576112cc611789565b6040519080825280601f01601f1916602001820160405280156112f6576020820181803683370190505b5090505b841561079b5761130b600183611b37565b9150611318600a86611c14565b611323906030611b1f565b60f81b81838151811061133857611338611c28565b60200101906001600160f81b031916908160001a90535061135a600a86611c00565b94506112fa565b60065460009060ff16156113c95760405162461bcd60e51b815260206004820152602960248201527f4552433732313a2049742773206f6e6c792061626c6520746f20696e697469616044820152686c697a65206f6e636560b81b6064820152608401610458565b83516113dc9060049060208701906115b4565b5082516113f09060059060208601906115b4565b5081516114049060039060208501906115b4565b506001949350505050565b60025460009060ff161561147d5760405162461bcd60e51b815260206004820152602f60248201527f5573657252656769737472793a2049742773206f6e6c792061626c6520746f2060448201526e696e697469616c697a65206f6e636560881b6064820152608401610458565b50600080546001600160a01b0384166001600160a01b031990911617905560018181556002805460ff19168217905592915050565b60006001600160a01b0384163b1561140457604051630a85bd0160e11b81526001600160a01b0385169063150b7a02906114f6903390899088908890600401611c3e565b602060405180830381600087803b15801561151057600080fd5b505af1925050508015611540575060408051601f3d908101601f1916820190925261153d91810190611c7b565b60015b61159a573d80801561156e576040519150601f19603f3d011682016040523d82523d6000602084013e611573565b606091505b5080516115925760405162461bcd60e51b815260040161045890611b7d565b805181602001fd5b6001600160e01b031916630a85bd0160e11b14905061079b565b8280546115c090611a18565b90600052602060002090601f0160209004810192826115e25760008555611628565b82601f106115fb57805160ff1916838001178555611628565b82800160010185558215611628579182015b8281111561162857825182559160200191906001019061160d565b50611634929150611638565b5090565b5b808211156116345760008155600101611639565b6001600160e01b03198116811461166357600080fd5b50565b60006020828403121561167857600080fd5b8135610bd78161164d565b60005b8381101561169e578181015183820152602001611686565b83811115610b0d5750506000910152565b600081518084526116c7816020860160208601611683565b601f01601f19169290920160200192915050565b602081526000610bd760208301846116af565b60006020828403121561170057600080fd5b5035919050565b6001600160a01b038116811461166357600080fd5b6000806040838503121561172f57600080fd5b823561173a81611707565b946020939093013593505050565b60008060006060848603121561175d57600080fd5b833561176881611707565b9250602084013561177881611707565b929592945050506040919091013590565b634e487b7160e01b600052604160045260246000fd5b600067ffffffffffffffff808411156117ba576117ba611789565b604051601f8501601f19908116603f011681019082821181831017156117e2576117e2611789565b816040528093508581528686860111156117fb57600080fd5b858560208301376000602087830101525050509392505050565b600082601f83011261182657600080fd5b610bd78383356020850161179f565b60006020828403121561184757600080fd5b813567ffffffffffffffff81111561185e57600080fd5b61079b84828501611815565b60006020828403121561187c57600080fd5b8135610bd781611707565b6000806040838503121561189a57600080fd5b82356118a581611707565b9150602083013580151581146118ba57600080fd5b809150509250929050565b600080600080608085870312156118db57600080fd5b84356118e681611707565b935060208501356118f681611707565b925060408501359150606085013567ffffffffffffffff81111561191957600080fd5b8501601f8101871361192a57600080fd5b6119398782356020840161179f565b91505092959194509250565b6000806040838503121561195857600080fd5b823561196381611707565b915060208301356118ba81611707565b600080600080600060a0868803121561198b57600080fd5b853561199681611707565b945060208601359350604086013567ffffffffffffffff808211156119ba57600080fd5b6119c689838a01611815565b945060608801359150808211156119dc57600080fd5b6119e889838a01611815565b935060808801359150808211156119fe57600080fd5b50611a0b88828901611815565b9150509295509295909350565b600181811c90821680611a2c57607f821691505b602082108114156106a357634e487b7160e01b600052602260045260246000fd5b60208082526031908201527f4552433732313a207472616e736665722063616c6c6572206973206e6f74206f6040820152701ddb995c881b9bdc88185c1c1c9bdd9959607a1b606082015260800190565b600060208284031215611ab057600080fd5b8151610bd781611707565b6020808252602e908201527f5573657252656769737472793a204f6e6c7920616c6c6f772063616c6c20667260408201526d37b69039b0b6b2903237b6b0b4b760911b606082015260800190565b634e487b7160e01b600052601160045260246000fd5b60008219821115611b3257611b32611b09565b500190565b600082821015611b4957611b49611b09565b500390565b60008351611b60818460208801611683565b835190830190611b74818360208801611683565b01949350505050565b60208082526032908201527f4552433732313a207472616e7366657220746f206e6f6e20455243373231526560408201527131b2b4bb32b91034b6b83632b6b2b73a32b960711b606082015260800190565b6000600019821415611be357611be3611b09565b5060010190565b634e487b7160e01b600052601260045260246000fd5b600082611c0f57611c0f611bea565b500490565b600082611c2357611c23611bea565b500690565b634e487b7160e01b600052603260045260246000fd5b6001600160a01b0385811682528416602082015260408101839052608060608201819052600090611c71908301846116af565b9695505050505050565b600060208284031215611c8d57600080fd5b8151610bd78161164d56fea2646970667358221220e48593b429f909853e1ad3ef7b533c0196488ed566cee44073d78a57782628ce64736f6c63430008090033",
  "linkReferences": {},
  "deployedLinkReferences": {}
}