{
  "_format": "hh-sol-artifact-1",
  "contractName": "NFT",
  "sourceName": "contracts/infrastructure/NFT.sol",
  "abi": [
    {
      "inputs": [
        {
          "internalType": "address",
          "name": "_registry",
          "type": "address"
        },
        {
          "internalType": "bytes32",
          "name": "_domain",
          "type": "bytes32"
        }
      ],
      "stateMutability": "nonpayable",
      "type": "constructor"
    },
    {
      "anonymous": false,
      "inputs": [
        {
          "indexed": true,
          "internalType": "address",
          "name": "owner",
          "type": "address"
        },
        {
          "indexed": true,
          "internalType": "address",
          "name": "approved",
          "type": "address"
        },
        {
          "indexed": true,
          "internalType": "uint256",
          "name": "tokenId",
          "type": "uint256"
        }
      ],
      "name": "Approval",
      "type": "event"
    },
    {
      "anonymous": false,
      "inputs": [
        {
          "indexed": true,
          "internalType": "address",
          "name": "owner",
          "type": "address"
        },
        {
          "indexed": true,
          "internalType": "address",
          "name": "operator",
          "type": "address"
        },
        {
          "indexed": false,
          "internalType": "bool",
          "name": "approved",
          "type": "bool"
        }
      ],
      "name": "ApprovalForAll",
      "type": "event"
    },
    {
      "anonymous": false,
      "inputs": [
        {
          "indexed": true,
          "internalType": "address",
          "name": "from",
          "type": "address"
        },
        {
          "indexed": true,
          "internalType": "address",
          "name": "to",
          "type": "address"
        },
        {
          "indexed": true,
          "internalType": "uint256",
          "name": "tokenId",
          "type": "uint256"
        }
      ],
      "name": "Transfer",
      "type": "event"
    },
    {
      "inputs": [
        {
          "internalType": "address",
          "name": "to",
          "type": "address"
        },
        {
          "internalType": "uint256",
          "name": "tokenId",
          "type": "uint256"
        }
      ],
      "name": "approve",
      "outputs": [],
      "stateMutability": "nonpayable",
      "type": "function"
    },
    {
      "inputs": [
        {
          "internalType": "address",
          "name": "owner",
          "type": "address"
        }
      ],
      "name": "balanceOf",
      "outputs": [
        {
          "internalType": "uint256",
          "name": "",
          "type": "uint256"
        }
      ],
      "stateMutability": "view",
      "type": "function"
    },
    {
      "inputs": [
        {
          "internalType": "uint256",
          "name": "tokenId",
          "type": "uint256"
        }
      ],
      "name": "getApproved",
      "outputs": [
        {
          "internalType": "address",
          "name": "",
          "type": "address"
        }
      ],
      "stateMutability": "view",
      "type": "function"
    },
    {
      "inputs": [],
      "name": "getDomain",
      "outputs": [
        {
          "internalType": "bytes32",
          "name": "",
          "type": "bytes32"
        }
      ],
      "stateMutability": "view",
      "type": "function"
    },
    {
      "inputs": [],
      "name": "getRegistry",
      "outputs": [
        {
          "internalType": "address",
          "name": "",
          "type": "address"
        }
      ],
      "stateMutability": "view",
      "type": "function"
    },
    {
      "inputs": [
        {
          "internalType": "address",
          "name": "owner",
          "type": "address"
        },
        {
          "internalType": "address",
          "name": "operator",
          "type": "address"
        }
      ],
      "name": "isApprovedForAll",
      "outputs": [
        {
          "internalType": "bool",
          "name": "",
          "type": "bool"
        }
      ],
      "stateMutability": "view",
      "type": "function"
    },
    {
      "inputs": [
        {
          "internalType": "address",
          "name": "to",
          "type": "address"
        },
        {
          "internalType": "uint256",
          "name": "tokenId",
          "type": "uint256"
        }
      ],
      "name": "mint",
      "outputs": [
        {
          "internalType": "bool",
          "name": "",
          "type": "bool"
        }
      ],
      "stateMutability": "nonpayable",
      "type": "function"
    },
    {
      "inputs": [],
      "name": "name",
      "outputs": [
        {
          "internalType": "string",
          "name": "",
          "type": "string"
        }
      ],
      "stateMutability": "view",
      "type": "function"
    },
    {
      "inputs": [
        {
          "internalType": "uint256",
          "name": "tokenId",
          "type": "uint256"
        }
      ],
      "name": "ownerOf",
      "outputs": [
        {
          "internalType": "address",
          "name": "",
          "type": "address"
        }
      ],
      "stateMutability": "view",
      "type": "function"
    },
    {
      "inputs": [
        {
          "internalType": "address",
          "name": "from",
          "type": "address"
        },
        {
          "internalType": "address",
          "name": "to",
          "type": "address"
        },
        {
          "internalType": "uint256",
          "name": "tokenId",
          "type": "uint256"
        }
      ],
      "name": "safeTransfer",
      "outputs": [
        {
          "internalType": "bool",
          "name": "",
          "type": "bool"
        }
      ],
      "stateMutability": "nonpayable",
      "type": "function"
    },
    {
      "inputs": [
        {
          "internalType": "address",
          "name": "from",
          "type": "address"
        },
        {
          "internalType": "address",
          "name": "to",
          "type": "address"
        },
        {
          "internalType": "uint256",
          "name": "tokenId",
          "type": "uint256"
        }
      ],
      "name": "safeTransferFrom",
      "outputs": [],
      "stateMutability": "nonpayable",
      "type": "function"
    },
    {
      "inputs": [
        {
          "internalType": "address",
          "name": "from",
          "type": "address"
        },
        {
          "internalType": "address",
          "name": "to",
          "type": "address"
        },
        {
          "internalType": "uint256",
          "name": "tokenId",
          "type": "uint256"
        },
        {
          "internalType": "bytes",
          "name": "_data",
          "type": "bytes"
        }
      ],
      "name": "safeTransferFrom",
      "outputs": [],
      "stateMutability": "nonpayable",
      "type": "function"
    },
    {
      "inputs": [
        {
          "internalType": "address",
          "name": "operator",
          "type": "address"
        },
        {
          "internalType": "bool",
          "name": "approved",
          "type": "bool"
        }
      ],
      "name": "setApprovalForAll",
      "outputs": [],
      "stateMutability": "nonpayable",
      "type": "function"
    },
    {
      "inputs": [
        {
          "internalType": "bytes4",
          "name": "interfaceId",
          "type": "bytes4"
        }
      ],
      "name": "supportsInterface",
      "outputs": [
        {
          "internalType": "bool",
          "name": "",
          "type": "bool"
        }
      ],
      "stateMutability": "view",
      "type": "function"
    },
    {
      "inputs": [],
      "name": "symbol",
      "outputs": [
        {
          "internalType": "string",
          "name": "",
          "type": "string"
        }
      ],
      "stateMutability": "view",
      "type": "function"
    },
    {
      "inputs": [
        {
          "internalType": "uint256",
          "name": "tokenId",
          "type": "uint256"
        }
      ],
      "name": "tokenURI",
      "outputs": [
        {
          "internalType": "string",
          "name": "",
          "type": "string"
        }
      ],
      "stateMutability": "view",
      "type": "function"
    },
    {
      "inputs": [
        {
          "internalType": "address",
          "name": "from",
          "type": "address"
        },
        {
          "internalType": "address",
          "name": "to",
          "type": "address"
        },
        {
          "internalType": "uint256",
          "name": "tokenId",
          "type": "uint256"
        }
      ],
      "name": "transferFrom",
      "outputs": [],
      "stateMutability": "nonpayable",
      "type": "function"
    }
  ],
  "bytecode": "0x60806040523480156200001157600080fd5b506040516200189b3803806200189b8339810160408190526200003491620001f6565b604080518082018252600b81526a444b44414f204974656d7360a81b602080830191825283518085019094526006845265444b44414f4960d01b908401528151919291620000859160029162000150565b5080516200009b90600390602084019062000150565b505050620000b08282620000b960201b60201c565b5050506200026f565b600154600090158015620000d657506000546001600160a01b0316155b620001275760405162461bcd60e51b815260206004820181905260248201527f557365723a2049742773206f6e6c792061626c6520746f20736574206f6e6365604482015260640160405180910390fd5b50600080546001600160a01b0384166001600160a01b0319909116179055600181815592915050565b8280546200015e9062000232565b90600052602060002090601f016020900481019282620001825760008555620001cd565b82601f106200019d57805160ff1916838001178555620001cd565b82800160010185558215620001cd579182015b82811115620001cd578251825591602001919060010190620001b0565b50620001db929150620001df565b5090565b5b80821115620001db5760008155600101620001e0565b600080604083850312156200020a57600080fd5b82516001600160a01b03811681146200022257600080fd5b6020939093015192949293505050565b600181811c908216806200024757607f821691505b602082108114156200026957634e487b7160e01b600052602260045260246000fd5b50919050565b61161c806200027f6000396000f3fe608060405234801561001057600080fd5b506004361061010b5760003560e01c80636352211e116100a2578063b68d180911610071578063b68d180914610226578063b88d4fde1461022e578063c87b56dd14610241578063d1660f9914610254578063e985e9c51461026757600080fd5b80636352211e146101d757806370a08231146101ea57806395d89b411461020b578063a22cb4651461021357600080fd5b806323b872dd116100de57806323b872dd1461018d57806340c10f19146101a057806342842e0e146101b35780635ab1bd53146101c657600080fd5b806301ffc9a71461011057806306fdde0314610138578063081812fc1461014d578063095ea7b314610178575b600080fd5b61012361011e3660046112a0565b6102a3565b60405190151581526020015b60405180910390f35b6101406102f5565b60405161012f919061138b565b61016061015b3660046112da565b610387565b6040516001600160a01b03909116815260200161012f565b61018b610186366004611274565b610421565b005b61018b61019b366004611120565b610537565b6101236101ae366004611274565b610568565b61018b6101c1366004611120565b610655565b6000546001600160a01b0316610160565b6101606101e53660046112da565b610670565b6101fd6101f83660046110ad565b6106e7565b60405190815260200161012f565b61014061076e565b61018b610221366004611241565b61077d565b6001546101fd565b61018b61023c366004611161565b610842565b61014061024f3660046112da565b61087a565b610123610262366004611120565b610962565b6101236102753660046110e7565b6001600160a01b03918216600090815260076020908152604080832093909416825291909152205460ff1690565b60006001600160e01b031982166380ac58cd60e01b14806102d457506001600160e01b03198216635b5e139f60e01b145b806102ef57506301ffc9a760e01b6001600160e01b03198316145b92915050565b606060028054610304906114f6565b80601f0160208091040260200160405190810160405280929190818152602001828054610330906114f6565b801561037d5780601f106103525761010080835404028352916020019161037d565b820191906000526020600020905b81548152906001019060200180831161036057829003601f168201915b5050505050905090565b6000818152600460205260408120546001600160a01b03166104055760405162461bcd60e51b815260206004820152602c60248201527f4552433732313a20617070726f76656420717565727920666f72206e6f6e657860448201526b34b9ba32b73a103a37b5b2b760a11b60648201526084015b60405180910390fd5b506000908152600660205260409020546001600160a01b031690565b600061042c82610670565b9050806001600160a01b0316836001600160a01b0316141561049a5760405162461bcd60e51b815260206004820152602160248201527f4552433732313a20617070726f76616c20746f2063757272656e74206f776e656044820152603960f91b60648201526084016103fc565b336001600160a01b03821614806104b657506104b68133610275565b6105285760405162461bcd60e51b815260206004820152603860248201527f4552433732313a20617070726f76652063616c6c6572206973206e6f74206f7760448201527f6e6572206e6f7220617070726f76656420666f7220616c6c000000000000000060648201526084016103fc565b6105328383610a37565b505050565b6105413382610aa5565b61055d5760405162461bcd60e51b81526004016103fc90611436565b610532838383610b98565b600080546001546040516369d1cb4360e11b8152600481019190915264507265737360d81b60248201819052916001600160a01b03169063d3a396869060440160206040518083038186803b1580156105c057600080fd5b505afa1580156105d4573d6000803e3d6000fd5b505050506040513d601f19601f820116820180604052508101906105f891906110ca565b6001600160a01b0316336001600160a01b0316146106285760405162461bcd60e51b81526004016103fc906113f0565b6106328484610d38565b6000838152600460205260409020546001600160a01b031615155b949350505050565b61053283838360405180602001604052806000815250610842565b6000818152600460205260408120546001600160a01b0316806102ef5760405162461bcd60e51b815260206004820152602960248201527f4552433732313a206f776e657220717565727920666f72206e6f6e657869737460448201526832b73a103a37b5b2b760b91b60648201526084016103fc565b60006001600160a01b0382166107525760405162461bcd60e51b815260206004820152602a60248201527f4552433732313a2062616c616e636520717565727920666f7220746865207a65604482015269726f206164647265737360b01b60648201526084016103fc565b506001600160a01b031660009081526005602052604090205490565b606060038054610304906114f6565b6001600160a01b0382163314156107d65760405162461bcd60e51b815260206004820152601960248201527f4552433732313a20617070726f766520746f2063616c6c65720000000000000060448201526064016103fc565b3360008181526007602090815260408083206001600160a01b03871680855290835292819020805460ff191686151590811790915590519081529192917f17307eab39ab6107e8899845ad3d59bd9653f200f220920489ca2b5937696c31910160405180910390a35050565b61084c3383610aa5565b6108685760405162461bcd60e51b81526004016103fc90611436565b61087484848484610e7a565b50505050565b6000818152600460205260409020546060906001600160a01b03166108f95760405162461bcd60e51b815260206004820152602f60248201527f4552433732314d657461646174613a2055524920717565727920666f72206e6f60448201526e3732bc34b9ba32b73a103a37b5b2b760891b60648201526084016103fc565b600061091060408051602081019091526000815290565b90506000815111610930576040518060200160405280600081525061095b565b8061093a84610ead565b60405160200161094b92919061131f565b6040516020818303038152906040525b9392505050565b600080546001546040516369d1cb4360e11b81526004810191909152630537761760e41b60248201819052916001600160a01b03169063d3a396869060440160206040518083038186803b1580156109b957600080fd5b505afa1580156109cd573d6000803e3d6000fd5b505050506040513d601f19601f820116820180604052508101906109f191906110ca565b6001600160a01b0316336001600160a01b031614610a215760405162461bcd60e51b81526004016103fc906113f0565b610a2c858585610b98565b506001949350505050565b600081815260066020526040902080546001600160a01b0319166001600160a01b0384169081179091558190610a6c82610670565b6001600160a01b03167f8c5be1e5ebec7d5bd14f71427d1e84f3dd0314c0f7b2291e5b200ac8c7c3b92560405160405180910390a45050565b6000818152600460205260408120546001600160a01b0316610b1e5760405162461bcd60e51b815260206004820152602c60248201527f4552433732313a206f70657261746f7220717565727920666f72206e6f6e657860448201526b34b9ba32b73a103a37b5b2b760a11b60648201526084016103fc565b6000610b2983610670565b9050806001600160a01b0316846001600160a01b03161480610b645750836001600160a01b0316610b5984610387565b6001600160a01b0316145b8061064d57506001600160a01b0380821660009081526007602090815260408083209388168352929052205460ff1661064d565b826001600160a01b0316610bab82610670565b6001600160a01b031614610c135760405162461bcd60e51b815260206004820152602960248201527f4552433732313a207472616e73666572206f6620746f6b656e2074686174206960448201526839903737ba1037bbb760b91b60648201526084016103fc565b6001600160a01b038216610c755760405162461bcd60e51b8152602060048201526024808201527f4552433732313a207472616e7366657220746f20746865207a65726f206164646044820152637265737360e01b60648201526084016103fc565b610c80600082610a37565b6001600160a01b0383166000908152600560205260408120805460019290610ca99084906114b3565b90915550506001600160a01b0382166000908152600560205260408120805460019290610cd7908490611487565b909155505060008181526004602052604080822080546001600160a01b0319166001600160a01b0386811691821790925591518493918716917fddf252ad1be2c89b69c2b068fc378daa952ba7f163c4a11628f55a4df523b3ef91a4505050565b6001600160a01b038216610d8e5760405162461bcd60e51b815260206004820181905260248201527f4552433732313a206d696e7420746f20746865207a65726f206164647265737360448201526064016103fc565b6000818152600460205260409020546001600160a01b031615610df35760405162461bcd60e51b815260206004820152601c60248201527f4552433732313a20746f6b656e20616c7265616479206d696e7465640000000060448201526064016103fc565b6001600160a01b0382166000908152600560205260408120805460019290610e1c908490611487565b909155505060008181526004602052604080822080546001600160a01b0319166001600160a01b03861690811790915590518392907fddf252ad1be2c89b69c2b068fc378daa952ba7f163c4a11628f55a4df523b3ef908290a45050565b610e85848484610b98565b610e9184848484610fab565b6108745760405162461bcd60e51b81526004016103fc9061139e565b606081610ed15750506040805180820190915260018152600360fc1b602082015290565b8160005b8115610efb5780610ee581611531565b9150610ef49050600a8361149f565b9150610ed5565b60008167ffffffffffffffff811115610f1657610f166115a2565b6040519080825280601f01601f191660200182016040528015610f40576020820181803683370190505b5090505b841561064d57610f556001836114b3565b9150610f62600a8661154c565b610f6d906030611487565b60f81b818381518110610f8257610f8261158c565b60200101906001600160f81b031916908160001a905350610fa4600a8661149f565b9450610f44565b60006001600160a01b0384163b15610a2c57604051630a85bd0160e11b81526001600160a01b0385169063150b7a0290610fef90339089908890889060040161134e565b602060405180830381600087803b15801561100957600080fd5b505af1925050508015611039575060408051601f3d908101601f19168201909252611036918101906112bd565b60015b611093573d808015611067576040519150601f19603f3d011682016040523d82523d6000602084013e61106c565b606091505b50805161108b5760405162461bcd60e51b81526004016103fc9061139e565b805181602001fd5b6001600160e01b031916630a85bd0160e11b14905061064d565b6000602082840312156110bf57600080fd5b813561095b816115b8565b6000602082840312156110dc57600080fd5b815161095b816115b8565b600080604083850312156110fa57600080fd5b8235611105816115b8565b91506020830135611115816115b8565b809150509250929050565b60008060006060848603121561113557600080fd5b8335611140816115b8565b92506020840135611150816115b8565b929592945050506040919091013590565b6000806000806080858703121561117757600080fd5b8435611182816115b8565b93506020850135611192816115b8565b925060408501359150606085013567ffffffffffffffff808211156111b657600080fd5b818701915087601f8301126111ca57600080fd5b8135818111156111dc576111dc6115a2565b604051601f8201601f19908116603f01168101908382118183101715611204576112046115a2565b816040528281528a602084870101111561121d57600080fd5b82602086016020830137600060208483010152809550505050505092959194509250565b6000806040838503121561125457600080fd5b823561125f816115b8565b91506020830135801515811461111557600080fd5b6000806040838503121561128757600080fd5b8235611292816115b8565b946020939093013593505050565b6000602082840312156112b257600080fd5b813561095b816115d0565b6000602082840312156112cf57600080fd5b815161095b816115d0565b6000602082840312156112ec57600080fd5b5035919050565b6000815180845261130b8160208601602086016114ca565b601f01601f19169290920160200192915050565b600083516113318184602088016114ca565b8351908301906113458183602088016114ca565b01949350505050565b6001600160a01b0385811682528416602082015260408101839052608060608201819052600090611381908301846112f3565b9695505050505050565b60208152600061095b60208301846112f3565b60208082526032908201527f4552433732313a207472616e7366657220746f206e6f6e20455243373231526560408201527131b2b4bb32b91034b6b83632b6b2b73a32b960711b606082015260800190565b60208082526026908201527f557365723a204f6e6c7920616c6c6f772063616c6c2066726f6d2073616d65206040820152653237b6b0b4b760d11b606082015260800190565b60208082526031908201527f4552433732313a207472616e736665722063616c6c6572206973206e6f74206f6040820152701ddb995c881b9bdc88185c1c1c9bdd9959607a1b606082015260800190565b6000821982111561149a5761149a611560565b500190565b6000826114ae576114ae611576565b500490565b6000828210156114c5576114c5611560565b500390565b60005b838110156114e55781810151838201526020016114cd565b838111156108745750506000910152565b600181811c9082168061150a57607f821691505b6020821081141561152b57634e487b7160e01b600052602260045260246000fd5b50919050565b600060001982141561154557611545611560565b5060010190565b60008261155b5761155b611576565b500690565b634e487b7160e01b600052601160045260246000fd5b634e487b7160e01b600052601260045260246000fd5b634e487b7160e01b600052603260045260246000fd5b634e487b7160e01b600052604160045260246000fd5b6001600160a01b03811681146115cd57600080fd5b50565b6001600160e01b0319811681146115cd57600080fdfea2646970667358221220e1dd0c3778b4cae814624605afbc91c72cbdaec3aced1b43589b0d77cf32b26864736f6c63430008060033",
  "linkReferences": {},
  "deployedLinkReferences": {}
}