{
  "_format": "hh-sol-artifact-1",
  "contractName": "NFT",
  "sourceName": "contracts/infrastructure/NFT.sol",
  "abi": [
    {
      "inputs": [
        {
          "internalType": "address",
          "name": "_registry",
          "type": "address"
        },
        {
          "internalType": "bytes32",
          "name": "_domain",
          "type": "bytes32"
        }
      ],
      "stateMutability": "nonpayable",
      "type": "constructor"
    },
    {
      "anonymous": false,
      "inputs": [
        {
          "indexed": true,
          "internalType": "address",
          "name": "owner",
          "type": "address"
        },
        {
          "indexed": true,
          "internalType": "address",
          "name": "approved",
          "type": "address"
        },
        {
          "indexed": true,
          "internalType": "uint256",
          "name": "tokenId",
          "type": "uint256"
        }
      ],
      "name": "Approval",
      "type": "event"
    },
    {
      "anonymous": false,
      "inputs": [
        {
          "indexed": true,
          "internalType": "address",
          "name": "owner",
          "type": "address"
        },
        {
          "indexed": true,
          "internalType": "address",
          "name": "operator",
          "type": "address"
        },
        {
          "indexed": false,
          "internalType": "bool",
          "name": "approved",
          "type": "bool"
        }
      ],
      "name": "ApprovalForAll",
      "type": "event"
    },
    {
      "anonymous": false,
      "inputs": [
        {
          "indexed": true,
          "internalType": "address",
          "name": "from",
          "type": "address"
        },
        {
          "indexed": true,
          "internalType": "address",
          "name": "to",
          "type": "address"
        },
        {
          "indexed": true,
          "internalType": "uint256",
          "name": "tokenId",
          "type": "uint256"
        }
      ],
      "name": "Transfer",
      "type": "event"
    },
    {
      "inputs": [
        {
          "internalType": "address",
          "name": "to",
          "type": "address"
        },
        {
          "internalType": "uint256",
          "name": "tokenId",
          "type": "uint256"
        }
      ],
      "name": "approve",
      "outputs": [],
      "stateMutability": "nonpayable",
      "type": "function"
    },
    {
      "inputs": [
        {
          "internalType": "address",
          "name": "owner",
          "type": "address"
        }
      ],
      "name": "balanceOf",
      "outputs": [
        {
          "internalType": "uint256",
          "name": "",
          "type": "uint256"
        }
      ],
      "stateMutability": "view",
      "type": "function"
    },
    {
      "inputs": [
        {
          "internalType": "uint256",
          "name": "tokenId",
          "type": "uint256"
        }
      ],
      "name": "getApproved",
      "outputs": [
        {
          "internalType": "address",
          "name": "",
          "type": "address"
        }
      ],
      "stateMutability": "view",
      "type": "function"
    },
    {
      "inputs": [],
      "name": "getDomain",
      "outputs": [
        {
          "internalType": "bytes32",
          "name": "",
          "type": "bytes32"
        }
      ],
      "stateMutability": "view",
      "type": "function"
    },
    {
      "inputs": [],
      "name": "getRegistry",
      "outputs": [
        {
          "internalType": "address",
          "name": "",
          "type": "address"
        }
      ],
      "stateMutability": "view",
      "type": "function"
    },
    {
      "inputs": [
        {
          "internalType": "address",
          "name": "owner",
          "type": "address"
        },
        {
          "internalType": "address",
          "name": "operator",
          "type": "address"
        }
      ],
      "name": "isApprovedForAll",
      "outputs": [
        {
          "internalType": "bool",
          "name": "",
          "type": "bool"
        }
      ],
      "stateMutability": "view",
      "type": "function"
    },
    {
      "inputs": [
        {
          "internalType": "address",
          "name": "to",
          "type": "address"
        },
        {
          "internalType": "uint256",
          "name": "tokenId",
          "type": "uint256"
        }
      ],
      "name": "mint",
      "outputs": [
        {
          "internalType": "bool",
          "name": "",
          "type": "bool"
        }
      ],
      "stateMutability": "nonpayable",
      "type": "function"
    },
    {
      "inputs": [],
      "name": "name",
      "outputs": [
        {
          "internalType": "string",
          "name": "",
          "type": "string"
        }
      ],
      "stateMutability": "view",
      "type": "function"
    },
    {
      "inputs": [
        {
          "internalType": "uint256",
          "name": "tokenId",
          "type": "uint256"
        }
      ],
      "name": "ownerOf",
      "outputs": [
        {
          "internalType": "address",
          "name": "",
          "type": "address"
        }
      ],
      "stateMutability": "view",
      "type": "function"
    },
    {
      "inputs": [
        {
          "internalType": "address",
          "name": "from",
          "type": "address"
        },
        {
          "internalType": "address",
          "name": "to",
          "type": "address"
        },
        {
          "internalType": "uint256",
          "name": "tokenId",
          "type": "uint256"
        }
      ],
      "name": "safeTransferFrom",
      "outputs": [],
      "stateMutability": "nonpayable",
      "type": "function"
    },
    {
      "inputs": [
        {
          "internalType": "address",
          "name": "from",
          "type": "address"
        },
        {
          "internalType": "address",
          "name": "to",
          "type": "address"
        },
        {
          "internalType": "uint256",
          "name": "tokenId",
          "type": "uint256"
        },
        {
          "internalType": "bytes",
          "name": "_data",
          "type": "bytes"
        }
      ],
      "name": "safeTransferFrom",
      "outputs": [],
      "stateMutability": "nonpayable",
      "type": "function"
    },
    {
      "inputs": [
        {
          "internalType": "address",
          "name": "operator",
          "type": "address"
        },
        {
          "internalType": "bool",
          "name": "approved",
          "type": "bool"
        }
      ],
      "name": "setApprovalForAll",
      "outputs": [],
      "stateMutability": "nonpayable",
      "type": "function"
    },
    {
      "inputs": [
        {
          "internalType": "bytes4",
          "name": "interfaceId",
          "type": "bytes4"
        }
      ],
      "name": "supportsInterface",
      "outputs": [
        {
          "internalType": "bool",
          "name": "",
          "type": "bool"
        }
      ],
      "stateMutability": "view",
      "type": "function"
    },
    {
      "inputs": [],
      "name": "symbol",
      "outputs": [
        {
          "internalType": "string",
          "name": "",
          "type": "string"
        }
      ],
      "stateMutability": "view",
      "type": "function"
    },
    {
      "inputs": [
        {
          "internalType": "uint256",
          "name": "tokenId",
          "type": "uint256"
        }
      ],
      "name": "tokenURI",
      "outputs": [
        {
          "internalType": "string",
          "name": "",
          "type": "string"
        }
      ],
      "stateMutability": "view",
      "type": "function"
    },
    {
      "inputs": [
        {
          "internalType": "address",
          "name": "from",
          "type": "address"
        },
        {
          "internalType": "address",
          "name": "to",
          "type": "address"
        },
        {
          "internalType": "uint256",
          "name": "tokenId",
          "type": "uint256"
        }
      ],
      "name": "transferFrom",
      "outputs": [],
      "stateMutability": "nonpayable",
      "type": "function"
    }
  ],
  "bytecode": "0x60806040523480156200001157600080fd5b50604051620017ac380380620017ac8339810160408190526200003491620001f6565b604080518082018252600b81526a444b44414f204974656d7360a81b602080830191825283518085019094526006845265444b44414f4960d01b908401528151919291620000859160029162000150565b5080516200009b90600390602084019062000150565b505050620000b08282620000b960201b60201c565b5050506200026f565b600154600090158015620000d657506000546001600160a01b0316155b620001275760405162461bcd60e51b815260206004820181905260248201527f557365723a2049742773206f6e6c792061626c6520746f20736574206f6e6365604482015260640160405180910390fd5b50600080546001600160a01b0384166001600160a01b0319909116179055600181815592915050565b8280546200015e9062000232565b90600052602060002090601f016020900481019282620001825760008555620001cd565b82601f106200019d57805160ff1916838001178555620001cd565b82800160010185558215620001cd579182015b82811115620001cd578251825591602001919060010190620001b0565b50620001db929150620001df565b5090565b5b80821115620001db5760008155600101620001e0565b600080604083850312156200020a57600080fd5b82516001600160a01b03811681146200022257600080fd5b6020939093015192949293505050565b600181811c908216806200024757607f821691505b602082108114156200026957634e487b7160e01b600052602260045260246000fd5b50919050565b61152d806200027f6000396000f3fe608060405234801561001057600080fd5b50600436106101005760003560e01c80636352211e11610097578063b68d180911610066578063b68d18091461021b578063b88d4fde14610223578063c87b56dd14610236578063e985e9c51461024957600080fd5b80636352211e146101cc57806370a08231146101df57806395d89b4114610200578063a22cb4651461020857600080fd5b806323b872dd116100d357806323b872dd1461018257806340c10f191461019557806342842e0e146101a85780635ab1bd53146101bb57600080fd5b806301ffc9a71461010557806306fdde031461012d578063081812fc14610142578063095ea7b31461016d575b600080fd5b6101186101133660046111f7565b610285565b60405190151581526020015b60405180910390f35b6101356102d7565b60405161012491906112e2565b610155610150366004611231565b610369565b6040516001600160a01b039091168152602001610124565b61018061017b3660046111cb565b610403565b005b610180610190366004611077565b610519565b6101186101a33660046111cb565b61054a565b6101806101b6366004611077565b610676565b6000546001600160a01b0316610155565b6101556101da366004611231565b610691565b6101f26101ed366004611004565b610708565b604051908152602001610124565b61013561078f565b610180610216366004611198565b61079e565b6001546101f2565b6101806102313660046110b8565b610863565b610135610244366004611231565b61089b565b61011861025736600461103e565b6001600160a01b03918216600090815260076020908152604080832093909416825291909152205460ff1690565b60006001600160e01b031982166380ac58cd60e01b14806102b657506001600160e01b03198216635b5e139f60e01b145b806102d157506301ffc9a760e01b6001600160e01b03198316145b92915050565b6060600280546102e690611407565b80601f016020809104026020016040519081016040528092919081815260200182805461031290611407565b801561035f5780601f106103345761010080835404028352916020019161035f565b820191906000526020600020905b81548152906001019060200180831161034257829003601f168201915b5050505050905090565b6000818152600460205260408120546001600160a01b03166103e75760405162461bcd60e51b815260206004820152602c60248201527f4552433732313a20617070726f76656420717565727920666f72206e6f6e657860448201526b34b9ba32b73a103a37b5b2b760a11b60648201526084015b60405180910390fd5b506000908152600660205260409020546001600160a01b031690565b600061040e82610691565b9050806001600160a01b0316836001600160a01b0316141561047c5760405162461bcd60e51b815260206004820152602160248201527f4552433732313a20617070726f76616c20746f2063757272656e74206f776e656044820152603960f91b60648201526084016103de565b336001600160a01b038216148061049857506104988133610257565b61050a5760405162461bcd60e51b815260206004820152603860248201527f4552433732313a20617070726f76652063616c6c6572206973206e6f74206f7760448201527f6e6572206e6f7220617070726f76656420666f7220616c6c000000000000000060648201526084016103de565b6105148383610983565b505050565b61052333826109f1565b61053f5760405162461bcd60e51b81526004016103de90611347565b610514838383610ae4565b600080546001546040516369d1cb4360e11b8152600481019190915264507265737360d81b60248201819052916001600160a01b03169063d3a396869060440160206040518083038186803b1580156105a257600080fd5b505afa1580156105b6573d6000803e3d6000fd5b505050506040513d601f19601f820116820180604052508101906105da9190611021565b6001600160a01b0316336001600160a01b0316146106495760405162461bcd60e51b815260206004820152602660248201527f557365723a204f6e6c7920616c6c6f772063616c6c2066726f6d2073616d65206044820152653237b6b0b4b760d11b60648201526084016103de565b6106538484610c84565b6000838152600460205260409020546001600160a01b031615155b949350505050565b61051483838360405180602001604052806000815250610863565b6000818152600460205260408120546001600160a01b0316806102d15760405162461bcd60e51b815260206004820152602960248201527f4552433732313a206f776e657220717565727920666f72206e6f6e657869737460448201526832b73a103a37b5b2b760b91b60648201526084016103de565b60006001600160a01b0382166107735760405162461bcd60e51b815260206004820152602a60248201527f4552433732313a2062616c616e636520717565727920666f7220746865207a65604482015269726f206164647265737360b01b60648201526084016103de565b506001600160a01b031660009081526005602052604090205490565b6060600380546102e690611407565b6001600160a01b0382163314156107f75760405162461bcd60e51b815260206004820152601960248201527f4552433732313a20617070726f766520746f2063616c6c65720000000000000060448201526064016103de565b3360008181526007602090815260408083206001600160a01b03871680855290835292819020805460ff191686151590811790915590519081529192917f17307eab39ab6107e8899845ad3d59bd9653f200f220920489ca2b5937696c31910160405180910390a35050565b61086d33836109f1565b6108895760405162461bcd60e51b81526004016103de90611347565b61089584848484610dc6565b50505050565b6000818152600460205260409020546060906001600160a01b031661091a5760405162461bcd60e51b815260206004820152602f60248201527f4552433732314d657461646174613a2055524920717565727920666f72206e6f60448201526e3732bc34b9ba32b73a103a37b5b2b760891b60648201526084016103de565b600061093160408051602081019091526000815290565b90506000815111610951576040518060200160405280600081525061097c565b8061095b84610df9565b60405160200161096c929190611276565b6040516020818303038152906040525b9392505050565b600081815260066020526040902080546001600160a01b0319166001600160a01b03841690811790915581906109b882610691565b6001600160a01b03167f8c5be1e5ebec7d5bd14f71427d1e84f3dd0314c0f7b2291e5b200ac8c7c3b92560405160405180910390a45050565b6000818152600460205260408120546001600160a01b0316610a6a5760405162461bcd60e51b815260206004820152602c60248201527f4552433732313a206f70657261746f7220717565727920666f72206e6f6e657860448201526b34b9ba32b73a103a37b5b2b760a11b60648201526084016103de565b6000610a7583610691565b9050806001600160a01b0316846001600160a01b03161480610ab05750836001600160a01b0316610aa584610369565b6001600160a01b0316145b8061066e57506001600160a01b0380821660009081526007602090815260408083209388168352929052205460ff1661066e565b826001600160a01b0316610af782610691565b6001600160a01b031614610b5f5760405162461bcd60e51b815260206004820152602960248201527f4552433732313a207472616e73666572206f6620746f6b656e2074686174206960448201526839903737ba1037bbb760b91b60648201526084016103de565b6001600160a01b038216610bc15760405162461bcd60e51b8152602060048201526024808201527f4552433732313a207472616e7366657220746f20746865207a65726f206164646044820152637265737360e01b60648201526084016103de565b610bcc600082610983565b6001600160a01b0383166000908152600560205260408120805460019290610bf59084906113c4565b90915550506001600160a01b0382166000908152600560205260408120805460019290610c23908490611398565b909155505060008181526004602052604080822080546001600160a01b0319166001600160a01b0386811691821790925591518493918716917fddf252ad1be2c89b69c2b068fc378daa952ba7f163c4a11628f55a4df523b3ef91a4505050565b6001600160a01b038216610cda5760405162461bcd60e51b815260206004820181905260248201527f4552433732313a206d696e7420746f20746865207a65726f206164647265737360448201526064016103de565b6000818152600460205260409020546001600160a01b031615610d3f5760405162461bcd60e51b815260206004820152601c60248201527f4552433732313a20746f6b656e20616c7265616479206d696e7465640000000060448201526064016103de565b6001600160a01b0382166000908152600560205260408120805460019290610d68908490611398565b909155505060008181526004602052604080822080546001600160a01b0319166001600160a01b03861690811790915590518392907fddf252ad1be2c89b69c2b068fc378daa952ba7f163c4a11628f55a4df523b3ef908290a45050565b610dd1848484610ae4565b610ddd84848484610ef7565b6108955760405162461bcd60e51b81526004016103de906112f5565b606081610e1d5750506040805180820190915260018152600360fc1b602082015290565b8160005b8115610e475780610e3181611442565b9150610e409050600a836113b0565b9150610e21565b60008167ffffffffffffffff811115610e6257610e626114b3565b6040519080825280601f01601f191660200182016040528015610e8c576020820181803683370190505b5090505b841561066e57610ea16001836113c4565b9150610eae600a8661145d565b610eb9906030611398565b60f81b818381518110610ece57610ece61149d565b60200101906001600160f81b031916908160001a905350610ef0600a866113b0565b9450610e90565b60006001600160a01b0384163b15610ff957604051630a85bd0160e11b81526001600160a01b0385169063150b7a0290610f3b9033908990889088906004016112a5565b602060405180830381600087803b158015610f5557600080fd5b505af1925050508015610f85575060408051601f3d908101601f19168201909252610f8291810190611214565b60015b610fdf573d808015610fb3576040519150601f19603f3d011682016040523d82523d6000602084013e610fb8565b606091505b508051610fd75760405162461bcd60e51b81526004016103de906112f5565b805181602001fd5b6001600160e01b031916630a85bd0160e11b14905061066e565b506001949350505050565b60006020828403121561101657600080fd5b813561097c816114c9565b60006020828403121561103357600080fd5b815161097c816114c9565b6000806040838503121561105157600080fd5b823561105c816114c9565b9150602083013561106c816114c9565b809150509250929050565b60008060006060848603121561108c57600080fd5b8335611097816114c9565b925060208401356110a7816114c9565b929592945050506040919091013590565b600080600080608085870312156110ce57600080fd5b84356110d9816114c9565b935060208501356110e9816114c9565b925060408501359150606085013567ffffffffffffffff8082111561110d57600080fd5b818701915087601f83011261112157600080fd5b813581811115611133576111336114b3565b604051601f8201601f19908116603f0116810190838211818310171561115b5761115b6114b3565b816040528281528a602084870101111561117457600080fd5b82602086016020830137600060208483010152809550505050505092959194509250565b600080604083850312156111ab57600080fd5b82356111b6816114c9565b91506020830135801515811461106c57600080fd5b600080604083850312156111de57600080fd5b82356111e9816114c9565b946020939093013593505050565b60006020828403121561120957600080fd5b813561097c816114e1565b60006020828403121561122657600080fd5b815161097c816114e1565b60006020828403121561124357600080fd5b5035919050565b600081518084526112628160208601602086016113db565b601f01601f19169290920160200192915050565b600083516112888184602088016113db565b83519083019061129c8183602088016113db565b01949350505050565b6001600160a01b03858116825284166020820152604081018390526080606082018190526000906112d89083018461124a565b9695505050505050565b60208152600061097c602083018461124a565b60208082526032908201527f4552433732313a207472616e7366657220746f206e6f6e20455243373231526560408201527131b2b4bb32b91034b6b83632b6b2b73a32b960711b606082015260800190565b60208082526031908201527f4552433732313a207472616e736665722063616c6c6572206973206e6f74206f6040820152701ddb995c881b9bdc88185c1c1c9bdd9959607a1b606082015260800190565b600082198211156113ab576113ab611471565b500190565b6000826113bf576113bf611487565b500490565b6000828210156113d6576113d6611471565b500390565b60005b838110156113f65781810151838201526020016113de565b838111156108955750506000910152565b600181811c9082168061141b57607f821691505b6020821081141561143c57634e487b7160e01b600052602260045260246000fd5b50919050565b600060001982141561145657611456611471565b5060010190565b60008261146c5761146c611487565b500690565b634e487b7160e01b600052601160045260246000fd5b634e487b7160e01b600052601260045260246000fd5b634e487b7160e01b600052603260045260246000fd5b634e487b7160e01b600052604160045260246000fd5b6001600160a01b03811681146114de57600080fd5b50565b6001600160e01b0319811681146114de57600080fdfea26469706673582212200a018d86f39c91f9afaee8ee18c69ec2afb31f0b2b7092866bcecfad6bb755d164736f6c63430008060033",
  "linkReferences": {},
  "deployedLinkReferences": {}
}