{
  "_format": "hh-sol-artifact-1",
  "contractName": "NFT",
  "sourceName": "contracts/infrastructure/NFT.sol",
  "abi": [
    {
      "inputs": [
        {
          "internalType": "address",
          "name": "_registry",
          "type": "address"
        },
        {
          "internalType": "bytes32",
          "name": "_domain",
          "type": "bytes32"
        }
      ],
      "stateMutability": "nonpayable",
      "type": "constructor"
    },
    {
      "anonymous": false,
      "inputs": [
        {
          "indexed": true,
          "internalType": "address",
          "name": "owner",
          "type": "address"
        },
        {
          "indexed": true,
          "internalType": "address",
          "name": "approved",
          "type": "address"
        },
        {
          "indexed": true,
          "internalType": "uint256",
          "name": "tokenId",
          "type": "uint256"
        }
      ],
      "name": "Approval",
      "type": "event"
    },
    {
      "anonymous": false,
      "inputs": [
        {
          "indexed": true,
          "internalType": "address",
          "name": "owner",
          "type": "address"
        },
        {
          "indexed": true,
          "internalType": "address",
          "name": "operator",
          "type": "address"
        },
        {
          "indexed": false,
          "internalType": "bool",
          "name": "approved",
          "type": "bool"
        }
      ],
      "name": "ApprovalForAll",
      "type": "event"
    },
    {
      "anonymous": false,
      "inputs": [
        {
          "indexed": true,
          "internalType": "address",
          "name": "previousOwner",
          "type": "address"
        },
        {
          "indexed": true,
          "internalType": "address",
          "name": "newOwner",
          "type": "address"
        }
      ],
      "name": "OwnershipTransferred",
      "type": "event"
    },
    {
      "anonymous": false,
      "inputs": [
        {
          "indexed": true,
          "internalType": "address",
          "name": "from",
          "type": "address"
        },
        {
          "indexed": true,
          "internalType": "address",
          "name": "to",
          "type": "address"
        },
        {
          "indexed": true,
          "internalType": "uint256",
          "name": "tokenId",
          "type": "uint256"
        }
      ],
      "name": "Transfer",
      "type": "event"
    },
    {
      "inputs": [
        {
          "internalType": "address",
          "name": "to",
          "type": "address"
        },
        {
          "internalType": "uint256",
          "name": "tokenId",
          "type": "uint256"
        }
      ],
      "name": "approve",
      "outputs": [],
      "stateMutability": "nonpayable",
      "type": "function"
    },
    {
      "inputs": [
        {
          "internalType": "address",
          "name": "owner",
          "type": "address"
        }
      ],
      "name": "balanceOf",
      "outputs": [
        {
          "internalType": "uint256",
          "name": "",
          "type": "uint256"
        }
      ],
      "stateMutability": "view",
      "type": "function"
    },
    {
      "inputs": [
        {
          "internalType": "string",
          "name": "uri_",
          "type": "string"
        }
      ],
      "name": "changeBaseURI",
      "outputs": [
        {
          "internalType": "bool",
          "name": "",
          "type": "bool"
        }
      ],
      "stateMutability": "nonpayable",
      "type": "function"
    },
    {
      "inputs": [
        {
          "internalType": "uint256",
          "name": "tokenId",
          "type": "uint256"
        }
      ],
      "name": "getApproved",
      "outputs": [
        {
          "internalType": "address",
          "name": "",
          "type": "address"
        }
      ],
      "stateMutability": "view",
      "type": "function"
    },
    {
      "inputs": [],
      "name": "getDomain",
      "outputs": [
        {
          "internalType": "bytes32",
          "name": "",
          "type": "bytes32"
        }
      ],
      "stateMutability": "view",
      "type": "function"
    },
    {
      "inputs": [],
      "name": "getRegistry",
      "outputs": [
        {
          "internalType": "address",
          "name": "",
          "type": "address"
        }
      ],
      "stateMutability": "view",
      "type": "function"
    },
    {
      "inputs": [
        {
          "internalType": "address",
          "name": "owner",
          "type": "address"
        },
        {
          "internalType": "address",
          "name": "operator",
          "type": "address"
        }
      ],
      "name": "isApprovedForAll",
      "outputs": [
        {
          "internalType": "bool",
          "name": "",
          "type": "bool"
        }
      ],
      "stateMutability": "view",
      "type": "function"
    },
    {
      "inputs": [
        {
          "internalType": "uint256",
          "name": "tokenId",
          "type": "uint256"
        }
      ],
      "name": "migrate",
      "outputs": [
        {
          "internalType": "bool",
          "name": "",
          "type": "bool"
        }
      ],
      "stateMutability": "nonpayable",
      "type": "function"
    },
    {
      "inputs": [
        {
          "internalType": "address",
          "name": "to",
          "type": "address"
        },
        {
          "internalType": "uint256",
          "name": "tokenId",
          "type": "uint256"
        }
      ],
      "name": "mint",
      "outputs": [
        {
          "internalType": "bool",
          "name": "",
          "type": "bool"
        }
      ],
      "stateMutability": "nonpayable",
      "type": "function"
    },
    {
      "inputs": [],
      "name": "name",
      "outputs": [
        {
          "internalType": "string",
          "name": "",
          "type": "string"
        }
      ],
      "stateMutability": "view",
      "type": "function"
    },
    {
      "inputs": [],
      "name": "owner",
      "outputs": [
        {
          "internalType": "address",
          "name": "",
          "type": "address"
        }
      ],
      "stateMutability": "view",
      "type": "function"
    },
    {
      "inputs": [
        {
          "internalType": "uint256",
          "name": "tokenId",
          "type": "uint256"
        }
      ],
      "name": "ownerOf",
      "outputs": [
        {
          "internalType": "address",
          "name": "",
          "type": "address"
        }
      ],
      "stateMutability": "view",
      "type": "function"
    },
    {
      "inputs": [],
      "name": "renounceOwnership",
      "outputs": [],
      "stateMutability": "nonpayable",
      "type": "function"
    },
    {
      "inputs": [
        {
          "internalType": "address",
          "name": "from",
          "type": "address"
        },
        {
          "internalType": "address",
          "name": "to",
          "type": "address"
        },
        {
          "internalType": "uint256",
          "name": "tokenId",
          "type": "uint256"
        }
      ],
      "name": "safeTransfer",
      "outputs": [
        {
          "internalType": "bool",
          "name": "",
          "type": "bool"
        }
      ],
      "stateMutability": "nonpayable",
      "type": "function"
    },
    {
      "inputs": [
        {
          "internalType": "address",
          "name": "from",
          "type": "address"
        },
        {
          "internalType": "address",
          "name": "to",
          "type": "address"
        },
        {
          "internalType": "uint256",
          "name": "tokenId",
          "type": "uint256"
        }
      ],
      "name": "safeTransferFrom",
      "outputs": [],
      "stateMutability": "nonpayable",
      "type": "function"
    },
    {
      "inputs": [
        {
          "internalType": "address",
          "name": "from",
          "type": "address"
        },
        {
          "internalType": "address",
          "name": "to",
          "type": "address"
        },
        {
          "internalType": "uint256",
          "name": "tokenId",
          "type": "uint256"
        },
        {
          "internalType": "bytes",
          "name": "_data",
          "type": "bytes"
        }
      ],
      "name": "safeTransferFrom",
      "outputs": [],
      "stateMutability": "nonpayable",
      "type": "function"
    },
    {
      "inputs": [
        {
          "internalType": "address",
          "name": "operator",
          "type": "address"
        },
        {
          "internalType": "bool",
          "name": "approved",
          "type": "bool"
        }
      ],
      "name": "setApprovalForAll",
      "outputs": [],
      "stateMutability": "nonpayable",
      "type": "function"
    },
    {
      "inputs": [
        {
          "internalType": "bytes4",
          "name": "interfaceId",
          "type": "bytes4"
        }
      ],
      "name": "supportsInterface",
      "outputs": [
        {
          "internalType": "bool",
          "name": "",
          "type": "bool"
        }
      ],
      "stateMutability": "view",
      "type": "function"
    },
    {
      "inputs": [],
      "name": "symbol",
      "outputs": [
        {
          "internalType": "string",
          "name": "",
          "type": "string"
        }
      ],
      "stateMutability": "view",
      "type": "function"
    },
    {
      "inputs": [
        {
          "internalType": "uint256",
          "name": "tokenId",
          "type": "uint256"
        }
      ],
      "name": "tokenURI",
      "outputs": [
        {
          "internalType": "string",
          "name": "",
          "type": "string"
        }
      ],
      "stateMutability": "view",
      "type": "function"
    },
    {
      "inputs": [],
      "name": "totalSupply",
      "outputs": [
        {
          "internalType": "uint256",
          "name": "",
          "type": "uint256"
        }
      ],
      "stateMutability": "view",
      "type": "function"
    },
    {
      "inputs": [
        {
          "internalType": "address",
          "name": "from",
          "type": "address"
        },
        {
          "internalType": "address",
          "name": "to",
          "type": "address"
        },
        {
          "internalType": "uint256",
          "name": "tokenId",
          "type": "uint256"
        }
      ],
      "name": "transferFrom",
      "outputs": [],
      "stateMutability": "nonpayable",
      "type": "function"
    },
    {
      "inputs": [
        {
          "internalType": "address",
          "name": "newOwner",
          "type": "address"
        }
      ],
      "name": "transferOwnership",
      "outputs": [],
      "stateMutability": "nonpayable",
      "type": "function"
    }
  ],
  "bytecode": "0x60806040523480156200001157600080fd5b5060405162001d6338038062001d63833981016040819052620000349162000291565b604080518082018252600b81526a444b44414f204974656d7360a81b602080830191825283518085019094526006845265444b44414f4960d01b9084015281519192916200008591600291620001eb565b5080516200009b906003906020840190620001eb565b505050620000b8620000b2620000fe60201b60201c565b62000102565b60405180606001604052806025815260200162001d3e602591398051620000e891600991602090910190620001eb565b50620000f5828262000154565b5050506200030a565b3390565b600880546001600160a01b038381166001600160a01b0319831681179093556040519116919082907f8be0079c531659141344cd1fd0a4f28419497f9722a3daafe3b4186f6b6457e090600090a35050565b6001546000901580156200017157506000546001600160a01b0316155b620001c25760405162461bcd60e51b815260206004820181905260248201527f557365723a2049742773206f6e6c792061626c6520746f20736574206f6e6365604482015260640160405180910390fd5b50600080546001600160a01b0384166001600160a01b0319909116179055600181815592915050565b828054620001f990620002cd565b90600052602060002090601f0160209004810192826200021d576000855562000268565b82601f106200023857805160ff191683800117855562000268565b8280016001018555821562000268579182015b82811115620002685782518255916020019190600101906200024b565b50620002769291506200027a565b5090565b5b808211156200027657600081556001016200027b565b60008060408385031215620002a557600080fd5b82516001600160a01b0381168114620002bd57600080fd5b6020939093015192949293505050565b600181811c90821680620002e257607f821691505b602082108114156200030457634e487b7160e01b600052602260045260246000fd5b50919050565b611a24806200031a6000396000f3fe608060405234801561001057600080fd5b506004361061014d5760003560e01c80636352211e116100c3578063b68d18091161007c578063b68d1809146102ab578063b88d4fde146102b3578063c87b56dd146102c6578063d1660f99146102d9578063e985e9c5146102ec578063f2fde38b1461032857600080fd5b80636352211e1461025157806370a0823114610264578063715018a6146102775780638da5cb5b1461027f57806395d89b4114610290578063a22cb4651461029857600080fd5b806323b872dd1161011557806323b872dd146101e157806339a0c6f9146101f457806340c10f191461020757806342842e0e1461021a578063454b06081461022d5780635ab1bd531461024057600080fd5b806301ffc9a71461015257806306fdde031461017a578063081812fc1461018f578063095ea7b3146101ba57806318160ddd146101cf575b600080fd5b61016561016036600461162d565b61033b565b60405190151581526020015b60405180910390f35b61018261038d565b6040516101719190611761565b6101a261019d3660046116b0565b61041f565b6040516001600160a01b039091168152602001610171565b6101cd6101c8366004611601565b6104b9565b005b600a545b604051908152602001610171565b6101cd6101ef36600461150d565b6105cf565b610165610202366004611667565b610600565b610165610215366004611601565b610649565b6101cd61022836600461150d565b61074f565b61016561023b3660046116b0565b61076a565b6000546001600160a01b03166101a2565b6101a261025f3660046116b0565b610829565b6101d361027236600461149a565b6108a0565b6101cd610927565b6008546001600160a01b03166101a2565b61018261095d565b6101cd6102a63660046115ce565b61096c565b6001546101d3565b6101cd6102c136600461154e565b610a31565b6101826102d43660046116b0565b610a69565b6101656102e736600461150d565b610b44565b6101656102fa3660046114d4565b6001600160a01b03918216600090815260076020908152604080832093909416825291909152205460ff1690565b6101cd61033636600461149a565b610c19565b60006001600160e01b031982166380ac58cd60e01b148061036c57506001600160e01b03198216635b5e139f60e01b145b8061038757506301ffc9a760e01b6001600160e01b03198316145b92915050565b60606002805461039c90611901565b80601f01602080910402602001604051908101604052809291908181526020018280546103c890611901565b80156104155780601f106103ea57610100808354040283529160200191610415565b820191906000526020600020905b8154815290600101906020018083116103f857829003601f168201915b5050505050905090565b6000818152600460205260408120546001600160a01b031661049d5760405162461bcd60e51b815260206004820152602c60248201527f4552433732313a20617070726f76656420717565727920666f72206e6f6e657860448201526b34b9ba32b73a103a37b5b2b760a11b60648201526084015b60405180910390fd5b506000908152600660205260409020546001600160a01b031690565b60006104c482610829565b9050806001600160a01b0316836001600160a01b031614156105325760405162461bcd60e51b815260206004820152602160248201527f4552433732313a20617070726f76616c20746f2063757272656e74206f776e656044820152603960f91b6064820152608401610494565b336001600160a01b038216148061054e575061054e81336102fa565b6105c05760405162461bcd60e51b815260206004820152603860248201527f4552433732313a20617070726f76652063616c6c6572206973206e6f74206f7760448201527f6e6572206e6f7220617070726f76656420666f7220616c6c00000000000000006064820152608401610494565b6105ca8383610cb4565b505050565b6105d93382610d22565b6105f55760405162461bcd60e51b815260040161049490611841565b6105ca838383610e15565b6008546000906001600160a01b0316331461062d5760405162461bcd60e51b81526004016104949061180c565b815161064090600990602085019061138b565b50600192915050565b600080546001546040516369d1cb4360e11b8152600481019190915264507265737360d81b60248201819052916001600160a01b03169063d3a396869060440160206040518083038186803b1580156106a157600080fd5b505afa1580156106b5573d6000803e3d6000fd5b505050506040513d601f19601f820116820180604052508101906106d991906114b7565b6001600160a01b0316336001600160a01b0316146107095760405162461bcd60e51b8152600401610494906117c6565b6001600a600082825461071c9190611892565b9091555061072c90508484610fb5565b6000838152600460205260409020546001600160a01b031615155b949350505050565b6105ca83838360405180602001604052806000815250610a31565b6008546000906001600160a01b031633146107975760405162461bcd60e51b81526004016104949061180c565b6040516331a9108f60e11b815260048101839052600090736ef3c1aa349d621d495be98c7678ee49107b7ec290636352211e9060240160206040518083038186803b1580156107e557600080fd5b505afa1580156107f9573d6000803e3d6000fd5b505050506040513d601f19601f8201168201806040525081019061081d91906114b7565b90506106408184610fb5565b6000818152600460205260408120546001600160a01b0316806103875760405162461bcd60e51b815260206004820152602960248201527f4552433732313a206f776e657220717565727920666f72206e6f6e657869737460448201526832b73a103a37b5b2b760b91b6064820152608401610494565b60006001600160a01b03821661090b5760405162461bcd60e51b815260206004820152602a60248201527f4552433732313a2062616c616e636520717565727920666f7220746865207a65604482015269726f206164647265737360b01b6064820152608401610494565b506001600160a01b031660009081526005602052604090205490565b6008546001600160a01b031633146109515760405162461bcd60e51b81526004016104949061180c565b61095b60006110f7565b565b60606003805461039c90611901565b6001600160a01b0382163314156109c55760405162461bcd60e51b815260206004820152601960248201527f4552433732313a20617070726f766520746f2063616c6c6572000000000000006044820152606401610494565b3360008181526007602090815260408083206001600160a01b03871680855290835292819020805460ff191686151590811790915590519081529192917f17307eab39ab6107e8899845ad3d59bd9653f200f220920489ca2b5937696c31910160405180910390a35050565b610a3b3383610d22565b610a575760405162461bcd60e51b815260040161049490611841565b610a6384848484611149565b50505050565b6000818152600460205260409020546060906001600160a01b0316610ae85760405162461bcd60e51b815260206004820152602f60248201527f4552433732314d657461646174613a2055524920717565727920666f72206e6f60448201526e3732bc34b9ba32b73a103a37b5b2b760891b6064820152608401610494565b6000610af261117c565b90506000815111610b125760405180602001604052806000815250610b3d565b80610b1c8461118b565b604051602001610b2d9291906116f5565b6040516020818303038152906040525b9392505050565b600080546001546040516369d1cb4360e11b81526004810191909152630537761760e41b60248201819052916001600160a01b03169063d3a396869060440160206040518083038186803b158015610b9b57600080fd5b505afa158015610baf573d6000803e3d6000fd5b505050506040513d601f19601f82011682018060405250810190610bd391906114b7565b6001600160a01b0316336001600160a01b031614610c035760405162461bcd60e51b8152600401610494906117c6565b610c0e858585610e15565b506001949350505050565b6008546001600160a01b03163314610c435760405162461bcd60e51b81526004016104949061180c565b6001600160a01b038116610ca85760405162461bcd60e51b815260206004820152602660248201527f4f776e61626c653a206e6577206f776e657220697320746865207a65726f206160448201526564647265737360d01b6064820152608401610494565b610cb1816110f7565b50565b600081815260066020526040902080546001600160a01b0319166001600160a01b0384169081179091558190610ce982610829565b6001600160a01b03167f8c5be1e5ebec7d5bd14f71427d1e84f3dd0314c0f7b2291e5b200ac8c7c3b92560405160405180910390a45050565b6000818152600460205260408120546001600160a01b0316610d9b5760405162461bcd60e51b815260206004820152602c60248201527f4552433732313a206f70657261746f7220717565727920666f72206e6f6e657860448201526b34b9ba32b73a103a37b5b2b760a11b6064820152608401610494565b6000610da683610829565b9050806001600160a01b0316846001600160a01b03161480610de15750836001600160a01b0316610dd68461041f565b6001600160a01b0316145b8061074757506001600160a01b0380821660009081526007602090815260408083209388168352929052205460ff16610747565b826001600160a01b0316610e2882610829565b6001600160a01b031614610e905760405162461bcd60e51b815260206004820152602960248201527f4552433732313a207472616e73666572206f6620746f6b656e2074686174206960448201526839903737ba1037bbb760b91b6064820152608401610494565b6001600160a01b038216610ef25760405162461bcd60e51b8152602060048201526024808201527f4552433732313a207472616e7366657220746f20746865207a65726f206164646044820152637265737360e01b6064820152608401610494565b610efd600082610cb4565b6001600160a01b0383166000908152600560205260408120805460019290610f269084906118be565b90915550506001600160a01b0382166000908152600560205260408120805460019290610f54908490611892565b909155505060008181526004602052604080822080546001600160a01b0319166001600160a01b0386811691821790925591518493918716917fddf252ad1be2c89b69c2b068fc378daa952ba7f163c4a11628f55a4df523b3ef91a4505050565b6001600160a01b03821661100b5760405162461bcd60e51b815260206004820181905260248201527f4552433732313a206d696e7420746f20746865207a65726f20616464726573736044820152606401610494565b6000818152600460205260409020546001600160a01b0316156110705760405162461bcd60e51b815260206004820152601c60248201527f4552433732313a20746f6b656e20616c7265616479206d696e746564000000006044820152606401610494565b6001600160a01b0382166000908152600560205260408120805460019290611099908490611892565b909155505060008181526004602052604080822080546001600160a01b0319166001600160a01b03861690811790915590518392907fddf252ad1be2c89b69c2b068fc378daa952ba7f163c4a11628f55a4df523b3ef908290a45050565b600880546001600160a01b038381166001600160a01b0319831681179093556040519116919082907f8be0079c531659141344cd1fd0a4f28419497f9722a3daafe3b4186f6b6457e090600090a35050565b611154848484610e15565b61116084848484611289565b610a635760405162461bcd60e51b815260040161049490611774565b60606009805461039c90611901565b6060816111af5750506040805180820190915260018152600360fc1b602082015290565b8160005b81156111d957806111c38161193c565b91506111d29050600a836118aa565b91506111b3565b60008167ffffffffffffffff8111156111f4576111f46119ad565b6040519080825280601f01601f19166020018201604052801561121e576020820181803683370190505b5090505b8415610747576112336001836118be565b9150611240600a86611957565b61124b906030611892565b60f81b81838151811061126057611260611997565b60200101906001600160f81b031916908160001a905350611282600a866118aa565b9450611222565b60006001600160a01b0384163b15610c0e57604051630a85bd0160e11b81526001600160a01b0385169063150b7a02906112cd903390899088908890600401611724565b602060405180830381600087803b1580156112e757600080fd5b505af1925050508015611317575060408051601f3d908101601f191682019092526113149181019061164a565b60015b611371573d808015611345576040519150601f19603f3d011682016040523d82523d6000602084013e61134a565b606091505b5080516113695760405162461bcd60e51b815260040161049490611774565b805181602001fd5b6001600160e01b031916630a85bd0160e11b149050610747565b82805461139790611901565b90600052602060002090601f0160209004810192826113b957600085556113ff565b82601f106113d257805160ff19168380011785556113ff565b828001600101855582156113ff579182015b828111156113ff5782518255916020019190600101906113e4565b5061140b92915061140f565b5090565b5b8082111561140b5760008155600101611410565b600067ffffffffffffffff8084111561143f5761143f6119ad565b604051601f8501601f19908116603f01168101908282118183101715611467576114676119ad565b8160405280935085815286868601111561148057600080fd5b858560208301376000602087830101525050509392505050565b6000602082840312156114ac57600080fd5b8135610b3d816119c3565b6000602082840312156114c957600080fd5b8151610b3d816119c3565b600080604083850312156114e757600080fd5b82356114f2816119c3565b91506020830135611502816119c3565b809150509250929050565b60008060006060848603121561152257600080fd5b833561152d816119c3565b9250602084013561153d816119c3565b929592945050506040919091013590565b6000806000806080858703121561156457600080fd5b843561156f816119c3565b9350602085013561157f816119c3565b925060408501359150606085013567ffffffffffffffff8111156115a257600080fd5b8501601f810187136115b357600080fd5b6115c287823560208401611424565b91505092959194509250565b600080604083850312156115e157600080fd5b82356115ec816119c3565b91506020830135801515811461150257600080fd5b6000806040838503121561161457600080fd5b823561161f816119c3565b946020939093013593505050565b60006020828403121561163f57600080fd5b8135610b3d816119d8565b60006020828403121561165c57600080fd5b8151610b3d816119d8565b60006020828403121561167957600080fd5b813567ffffffffffffffff81111561169057600080fd5b8201601f810184136116a157600080fd5b61074784823560208401611424565b6000602082840312156116c257600080fd5b5035919050565b600081518084526116e18160208601602086016118d5565b601f01601f19169290920160200192915050565b600083516117078184602088016118d5565b83519083019061171b8183602088016118d5565b01949350505050565b6001600160a01b0385811682528416602082015260408101839052608060608201819052600090611757908301846116c9565b9695505050505050565b602081526000610b3d60208301846116c9565b60208082526032908201527f4552433732313a207472616e7366657220746f206e6f6e20455243373231526560408201527131b2b4bb32b91034b6b83632b6b2b73a32b960711b606082015260800190565b60208082526026908201527f557365723a204f6e6c7920616c6c6f772063616c6c2066726f6d2073616d65206040820152653237b6b0b4b760d11b606082015260800190565b6020808252818101527f4f776e61626c653a2063616c6c6572206973206e6f7420746865206f776e6572604082015260600190565b60208082526031908201527f4552433732313a207472616e736665722063616c6c6572206973206e6f74206f6040820152701ddb995c881b9bdc88185c1c1c9bdd9959607a1b606082015260800190565b600082198211156118a5576118a561196b565b500190565b6000826118b9576118b9611981565b500490565b6000828210156118d0576118d061196b565b500390565b60005b838110156118f05781810151838201526020016118d8565b83811115610a635750506000910152565b600181811c9082168061191557607f821691505b6020821081141561193657634e487b7160e01b600052602260045260246000fd5b50919050565b60006000198214156119505761195061196b565b5060010190565b60008261196657611966611981565b500690565b634e487b7160e01b600052601160045260246000fd5b634e487b7160e01b600052601260045260246000fd5b634e487b7160e01b600052603260045260246000fd5b634e487b7160e01b600052604160045260246000fd5b6001600160a01b0381168114610cb157600080fd5b6001600160e01b031981168114610cb157600080fdfea2646970667358221220f71397343b06a813cc1da36ecb29455940321a9587c161aba682e2b72cca6e2f64736f6c6343000806003368747470733a2f2f6d657461646174612e646b64616f2e6e6574776f726b2f746f6b656e2f",
  "linkReferences": {},
  "deployedLinkReferences": {}
}