{
  "_format": "hh-sol-artifact-1",
  "contractName": "OracleProxy",
  "sourceName": "contracts/libraries/OracleProxy.sol",
  "abi": [
    {
      "anonymous": false,
      "inputs": [
        {
          "indexed": true,
          "internalType": "address",
          "name": "addr",
          "type": "address"
        }
      ],
      "name": "DelistAddress",
      "type": "event"
    },
    {
      "anonymous": false,
      "inputs": [
        {
          "indexed": true,
          "internalType": "address",
          "name": "addr",
          "type": "address"
        }
      ],
      "name": "ListAddress",
      "type": "event"
    },
    {
      "anonymous": false,
      "inputs": [
        {
          "indexed": true,
          "internalType": "address",
          "name": "previousOwner",
          "type": "address"
        },
        {
          "indexed": true,
          "internalType": "address",
          "name": "newOwner",
          "type": "address"
        }
      ],
      "name": "OwnershipTransferred",
      "type": "event"
    },
    {
      "inputs": [
        {
          "internalType": "address",
          "name": "controllerAddr",
          "type": "address"
        }
      ],
      "name": "addController",
      "outputs": [
        {
          "internalType": "bool",
          "name": "",
          "type": "bool"
        }
      ],
      "stateMutability": "nonpayable",
      "type": "function"
    },
    {
      "inputs": [],
      "name": "owner",
      "outputs": [
        {
          "internalType": "address",
          "name": "",
          "type": "address"
        }
      ],
      "stateMutability": "view",
      "type": "function"
    },
    {
      "inputs": [
        {
          "internalType": "address",
          "name": "controllerAddr",
          "type": "address"
        }
      ],
      "name": "removeController",
      "outputs": [
        {
          "internalType": "bool",
          "name": "",
          "type": "bool"
        }
      ],
      "stateMutability": "nonpayable",
      "type": "function"
    },
    {
      "inputs": [],
      "name": "renounceOwnership",
      "outputs": [],
      "stateMutability": "nonpayable",
      "type": "function"
    },
    {
      "inputs": [
        {
          "internalType": "address",
          "name": "target",
          "type": "address"
        },
        {
          "internalType": "uint256",
          "name": "value",
          "type": "uint256"
        },
        {
          "internalType": "bytes",
          "name": "data",
          "type": "bytes"
        }
      ],
      "name": "safeCall",
      "outputs": [
        {
          "internalType": "bool",
          "name": "",
          "type": "bool"
        }
      ],
      "stateMutability": "nonpayable",
      "type": "function"
    },
    {
      "inputs": [
        {
          "internalType": "address",
          "name": "target",
          "type": "address"
        },
        {
          "internalType": "bytes",
          "name": "data",
          "type": "bytes"
        }
      ],
      "name": "safeDelegateCall",
      "outputs": [
        {
          "internalType": "bool",
          "name": "",
          "type": "bool"
        }
      ],
      "stateMutability": "nonpayable",
      "type": "function"
    },
    {
      "inputs": [
        {
          "internalType": "address",
          "name": "newOwner",
          "type": "address"
        }
      ],
      "name": "transferOwnership",
      "outputs": [],
      "stateMutability": "nonpayable",
      "type": "function"
    }
  ],
  "bytecode": "0x608060405234801561001057600080fd5b5061001a3361001f565b61006f565b600080546001600160a01b038381166001600160a01b0319831681178455604051919092169283917f8be0079c531659141344cd1fd0a4f28419497f9722a3daafe3b4186f6b6457e09190a35050565b61098b8061007e6000396000f3fe608060405234801561001057600080fd5b506004361061007d5760003560e01c80638da5cb5b1161005b5780638da5cb5b146100c7578063a7fc7a07146100e2578063f2fde38b146100f5578063f6a74ed71461010857600080fd5b80631e8c24f5146100825780634acc9343146100aa578063715018a6146100bd575b600080fd5b61009561009036600461075a565b61011b565b60405190151581526020015b60405180910390f35b6100956100b83660046106d7565b610174565b6100c56101ed565b005b6000546040516001600160a01b0390911681526020016100a1565b6100956100f03660046106bc565b610253565b6100c56101033660046106bc565b6102ab565b6100956101163660046106bc565b610376565b3360009081526001602052604081205460ff166101535760405162461bcd60e51b815260040161014a90610874565b60405180910390fd5b6101676001600160a01b03851683856103c8565b50600190505b9392505050565b3360009081526001602052604081205460ff166101a35760405162461bcd60e51b815260040161014a90610874565b61016783838080601f016020809104026020016040519081016040528093929190818152602001838380828437600092019190915250506001600160a01b038816929150506103f6565b6000546001600160a01b031633146102475760405162461bcd60e51b815260206004820181905260248201527f4f776e61626c653a2063616c6c6572206973206e6f7420746865206f776e6572604482015260640161014a565b610251600061041b565b565b6001600160a01b0381166000818152600160208190526040808320805460ff1916909217909155519091907f03655ce91a7cf77732faaebc67930ba7b2415eef3cbed0a47e1b871866a13b0a908390a2506001919050565b6000546001600160a01b031633146103055760405162461bcd60e51b815260206004820181905260248201527f4f776e61626c653a2063616c6c6572206973206e6f7420746865206f776e6572604482015260640161014a565b6001600160a01b03811661036a5760405162461bcd60e51b815260206004820152602660248201527f4f776e61626c653a206e6577206f776e657220697320746865207a65726f206160448201526564647265737360d01b606482015260840161014a565b6103738161041b565b50565b6001600160a01b038116600081815260016020526040808220805460ff19169055519091907fbc0354a07907e33038c7c213946b5d8ba870c6703996a462bd1e2b2e37e13874908390a2506001919050565b60606103ee8484846040518060600160405280602981526020016109066029913961046b565b949350505050565b606061016d838360405180606001604052806027815260200161092f60279139610593565b600080546001600160a01b038381166001600160a01b0319831681178455604051919092169283917f8be0079c531659141344cd1fd0a4f28419497f9722a3daafe3b4186f6b6457e09190a35050565b6060824710156104cc5760405162461bcd60e51b815260206004820152602660248201527f416464726573733a20696e73756666696369656e742062616c616e636520666f6044820152651c8818d85b1b60d21b606482015260840161014a565b843b61051a5760405162461bcd60e51b815260206004820152601d60248201527f416464726573733a2063616c6c20746f206e6f6e2d636f6e7472616374000000604482015260640161014a565b600080866001600160a01b031685876040516105369190610825565b60006040518083038185875af1925050503d8060008114610573576040519150601f19603f3d011682016040523d82523d6000602084013e610578565b606091505b5091509150610588828286610667565b979650505050505050565b6060833b6105f25760405162461bcd60e51b815260206004820152602660248201527f416464726573733a2064656c65676174652063616c6c20746f206e6f6e2d636f6044820152651b9d1c9858dd60d21b606482015260840161014a565b600080856001600160a01b03168560405161060d9190610825565b600060405180830381855af49150503d8060008114610648576040519150601f19603f3d011682016040523d82523d6000602084013e61064d565b606091505b509150915061065d828286610667565b9695505050505050565b6060831561067657508161016d565b8251156106865782518084602001fd5b8160405162461bcd60e51b815260040161014a9190610841565b80356001600160a01b03811681146106b757600080fd5b919050565b6000602082840312156106ce57600080fd5b61016d826106a0565b6000806000604084860312156106ec57600080fd5b6106f5846106a0565b9250602084013567ffffffffffffffff8082111561071257600080fd5b818601915086601f83011261072657600080fd5b81358181111561073557600080fd5b87602082850101111561074757600080fd5b6020830194508093505050509250925092565b60008060006060848603121561076f57600080fd5b610778846106a0565b925060208401359150604084013567ffffffffffffffff8082111561079c57600080fd5b818601915086601f8301126107b057600080fd5b8135818111156107c2576107c26108ef565b604051601f8201601f19908116603f011681019083821181831017156107ea576107ea6108ef565b8160405282815289602084870101111561080357600080fd5b8260208601602083013760006020848301015280955050505050509250925092565b600082516108378184602087016108bf565b9190910192915050565b60208152600082518060208401526108608160408501602087016108bf565b601f01601f19169190910160400192915050565b6020808252602b908201527f4f7261636c6550726f78793a20436f6e74726f6c6c657220776173206e6f742060408201526a1a5b881d1a19481b1a5cdd60aa1b606082015260800190565b60005b838110156108da5781810151838201526020016108c2565b838111156108e9576000848401525b50505050565b634e487b7160e01b600052604160045260246000fdfe416464726573733a206c6f772d6c6576656c2063616c6c20776974682076616c7565206661696c6564416464726573733a206c6f772d6c6576656c2064656c65676174652063616c6c206661696c6564a2646970667358221220d1d003e7e91753dca18a4931d1e853ae9365c8c9b26e3e58faa5248a5ade871e64736f6c63430008060033",
  "linkReferences": {},
  "deployedLinkReferences": {}
}