{
  "_format": "hh-sol-artifact-1",
  "contractName": "OracleProxy",
  "sourceName": "contracts/libraries/OracleProxy.sol",
  "abi": [
    {
      "inputs": [
        {
          "internalType": "address",
          "name": "registry_",
          "type": "address"
        },
        {
          "internalType": "bytes32",
          "name": "domain_",
          "type": "bytes32"
        }
      ],
      "stateMutability": "nonpayable",
      "type": "constructor"
    },
    {
      "anonymous": false,
      "inputs": [
        {
          "indexed": true,
          "internalType": "address",
          "name": "addr",
          "type": "address"
        }
      ],
      "name": "DelistAddress",
      "type": "event"
    },
    {
      "anonymous": false,
      "inputs": [
        {
          "indexed": true,
          "internalType": "address",
          "name": "addr",
          "type": "address"
        }
      ],
      "name": "ListAddress",
      "type": "event"
    },
    {
      "inputs": [
        {
          "internalType": "address",
          "name": "controllerAddr",
          "type": "address"
        }
      ],
      "name": "addController",
      "outputs": [
        {
          "internalType": "bool",
          "name": "",
          "type": "bool"
        }
      ],
      "stateMutability": "nonpayable",
      "type": "function"
    },
    {
      "inputs": [],
      "name": "getDomain",
      "outputs": [
        {
          "internalType": "bytes32",
          "name": "",
          "type": "bytes32"
        }
      ],
      "stateMutability": "view",
      "type": "function"
    },
    {
      "inputs": [],
      "name": "getRegistry",
      "outputs": [
        {
          "internalType": "address",
          "name": "",
          "type": "address"
        }
      ],
      "stateMutability": "view",
      "type": "function"
    },
    {
      "inputs": [
        {
          "internalType": "uint256",
          "name": "timeout",
          "type": "uint256"
        },
        {
          "internalType": "uint256",
          "name": "randomNonce",
          "type": "uint256"
        }
      ],
      "name": "getValidTimeNonce",
      "outputs": [
        {
          "internalType": "uint256",
          "name": "",
          "type": "uint256"
        }
      ],
      "stateMutability": "view",
      "type": "function"
    },
    {
      "inputs": [
        {
          "internalType": "address",
          "name": "inputAddress",
          "type": "address"
        }
      ],
      "name": "isController",
      "outputs": [
        {
          "internalType": "bool",
          "name": "",
          "type": "bool"
        }
      ],
      "stateMutability": "view",
      "type": "function"
    },
    {
      "inputs": [
        {
          "internalType": "address",
          "name": "controllerAddr",
          "type": "address"
        }
      ],
      "name": "removeController",
      "outputs": [
        {
          "internalType": "bool",
          "name": "",
          "type": "bool"
        }
      ],
      "stateMutability": "nonpayable",
      "type": "function"
    },
    {
      "inputs": [
        {
          "internalType": "bytes",
          "name": "proof",
          "type": "bytes"
        },
        {
          "internalType": "address",
          "name": "target",
          "type": "address"
        },
        {
          "internalType": "uint256",
          "name": "value",
          "type": "uint256"
        },
        {
          "internalType": "bytes",
          "name": "data",
          "type": "bytes"
        }
      ],
      "name": "safeCall",
      "outputs": [
        {
          "internalType": "bool",
          "name": "",
          "type": "bool"
        }
      ],
      "stateMutability": "nonpayable",
      "type": "function"
    },
    {
      "inputs": [
        {
          "internalType": "bytes",
          "name": "proof",
          "type": "bytes"
        },
        {
          "internalType": "address",
          "name": "target",
          "type": "address"
        },
        {
          "internalType": "bytes",
          "name": "data",
          "type": "bytes"
        }
      ],
      "name": "safeDelegateCall",
      "outputs": [
        {
          "internalType": "bool",
          "name": "",
          "type": "bool"
        }
      ],
      "stateMutability": "nonpayable",
      "type": "function"
    }
  ],
  "bytecode": "0x60806040526002805460ff1916905534801561001a57600080fd5b50604051611337380380611337833981016040819052610039916100f2565b610043828261004b565b50505061012c565b60025460009060ff16156100bd5760405162461bcd60e51b815260206004820152602f60248201527f5573657252656769737472793a2049742773206f6e6c792061626c6520746f2060448201526e696e697469616c697a65206f6e636560881b606482015260840160405180910390fd5b50600080546001600160a01b0384166001600160a01b031990911617905560018181556002805460ff19168217905592915050565b6000806040838503121561010557600080fd5b82516001600160a01b038116811461011c57600080fd5b6020939093015192949293505050565b6111fc8061013b6000396000f3fe608060405234801561001057600080fd5b50600436106100885760003560e01c8063ad6fcd6a1161005b578063ad6fcd6a146100f6578063b429afeb14610117578063b68d180914610143578063f6a74ed71461014b57600080fd5b80635ab1bd531461008d5780636de01939146100ad578063a0a35fb6146100d0578063a7fc7a07146100e3575b600080fd5b6000546040516001600160a01b0390911681526020015b60405180910390f35b6100c06100bb366004610d17565b61015e565b60405190151581526020016100a4565b6100c06100de366004610dbd565b61048d565b6100c06100f1366004610e3f565b61076b565b610109610104366004610e5c565b610880565b6040519081526020016100a4565b6100c0610125366004610e3f565b6001600160a01b031660009081526003602052604090205460ff1690565b600154610109565b6100c0610159366004610e3f565b610899565b600084805160611461018b5760405162461bcd60e51b815260040161018290610e7e565b60405180910390fd5b60405163afa3102d60e01b815260009073__$8b56843b825aa1dc3815df035c53fdeeb9$__9063afa3102d906101ca9085908590604190600401610f2c565b60006040518083038186803b1580156101e257600080fd5b505af41580156101f6573d6000803e3d6000fd5b505050506040513d6000823e601f3d908101601f1916820160405261021e9190810190610f51565b60405163afa3102d60e01b815290915060009073__$8b56843b825aa1dc3815df035c53fdeeb9$__9063afa3102d90610261908690604190602090600401610f2c565b60006040518083038186803b15801561027957600080fd5b505af415801561028d573d6000803e3d6000fd5b505050506040513d6000823e601f3d908101601f191682016040526102b59190810190610f51565b604051632c4c269960e21b815290915060009073__$ca16e0b792657a32558476bf538e730956$__9063b1309a64906102f49085908790600401610fc8565b60206040518083038186803b15801561030c57600080fd5b505af4158015610320573d6000803e3d6000fd5b505050506040513d601f19601f820116820180604052508101906103449190610fed565b60405163e02da32760e01b815290915060009073__$8b56843b825aa1dc3815df035c53fdeeb9$__9063e02da32790610383908690859060040161100a565b60206040518083038186803b15801561039b57600080fd5b505af41580156103af573d6000803e3d6000fd5b505050506040513d601f19601f820116820180604052508101906103d3919061102c565b9050608081901c4281116103f95760405162461bcd60e51b815260040161018290611045565b6001600160a01b03831660009081526003602052604090205460ff166104315760405162461bcd60e51b815260040161018290611088565b61047b89898080601f016020809104026020016040519081016040528093929190818152602001838380828437600092019190915250506001600160a01b038e16929150506109ab565b5060019b9a5050505050505050505050565b60008480516061146104b15760405162461bcd60e51b815260040161018290610e7e565b60405163afa3102d60e01b815260009073__$8b56843b825aa1dc3815df035c53fdeeb9$__9063afa3102d906104f09085908590604190600401610f2c565b60006040518083038186803b15801561050857600080fd5b505af415801561051c573d6000803e3d6000fd5b505050506040513d6000823e601f3d908101601f191682016040526105449190810190610f51565b60405163afa3102d60e01b815290915060009073__$8b56843b825aa1dc3815df035c53fdeeb9$__9063afa3102d90610587908690604190602090600401610f2c565b60006040518083038186803b15801561059f57600080fd5b505af41580156105b3573d6000803e3d6000fd5b505050506040513d6000823e601f3d908101601f191682016040526105db9190810190610f51565b604051632c4c269960e21b815290915060009073__$ca16e0b792657a32558476bf538e730956$__9063b1309a649061061a9085908790600401610fc8565b60206040518083038186803b15801561063257600080fd5b505af4158015610646573d6000803e3d6000fd5b505050506040513d601f19601f8201168201806040525081019061066a9190610fed565b60405163e02da32760e01b815290915060009073__$8b56843b825aa1dc3815df035c53fdeeb9$__9063e02da327906106a9908690859060040161100a565b60206040518083038186803b1580156106c157600080fd5b505af41580156106d5573d6000803e3d6000fd5b505050506040513d601f19601f820116820180604052508101906106f9919061102c565b9050608081901c42811161071f5760405162461bcd60e51b815260040161018290611045565b6001600160a01b03831660009081526003602052604090205460ff166107575760405162461bcd60e51b815260040161018290611088565b61047b6001600160a01b038b16898b6109d7565b600080546001546040516369d1cb4360e11b815260048101919091526727b832b930ba37b960c11b60248201819052916001600160a01b03169063d3a396869060440160206040518083038186803b1580156107c657600080fd5b505afa1580156107da573d6000803e3d6000fd5b505050506040513d601f19601f820116820180604052508101906107fe9190610fed565b6001600160a01b0316336001600160a01b03161461082e5760405162461bcd60e51b8152600401610182906110d3565b6001600160a01b038316600081815260036020526040808220805460ff19166001179055517f03655ce91a7cf77732faaebc67930ba7b2415eef3cbed0a47e1b871866a13b0a9190a250600192915050565b600081608061088f8542611121565b901b179392505050565b600080546001546040516369d1cb4360e11b815260048101919091526727b832b930ba37b960c11b60248201819052916001600160a01b03169063d3a396869060440160206040518083038186803b1580156108f457600080fd5b505afa158015610908573d6000803e3d6000fd5b505050506040513d601f19601f8201168201806040525081019061092c9190610fed565b6001600160a01b0316336001600160a01b03161461095c5760405162461bcd60e51b8152600401610182906110d3565b6001600160a01b038316600081815260036020526040808220805460ff19169055517fbc0354a07907e33038c7c213946b5d8ba870c6703996a462bd1e2b2e37e138749190a250600192915050565b60606109d083836040518060600160405280602781526020016111a060279139610a05565b9392505050565b60606109fd84848460405180606001604052806029815260200161117760299139610ad9565b949350505050565b6060833b610a645760405162461bcd60e51b815260206004820152602660248201527f416464726573733a2064656c65676174652063616c6c20746f206e6f6e2d636f6044820152651b9d1c9858dd60d21b6064820152608401610182565b600080856001600160a01b031685604051610a7f9190611147565b600060405180830381855af49150503d8060008114610aba576040519150601f19603f3d011682016040523d82523d6000602084013e610abf565b606091505b5091509150610acf828286610c01565b9695505050505050565b606082471015610b3a5760405162461bcd60e51b815260206004820152602660248201527f416464726573733a20696e73756666696369656e742062616c616e636520666f6044820152651c8818d85b1b60d21b6064820152608401610182565b843b610b885760405162461bcd60e51b815260206004820152601d60248201527f416464726573733a2063616c6c20746f206e6f6e2d636f6e74726163740000006044820152606401610182565b600080866001600160a01b03168587604051610ba49190611147565b60006040518083038185875af1925050503d8060008114610be1576040519150601f19603f3d011682016040523d82523d6000602084013e610be6565b606091505b5091509150610bf6828286610c01565b979650505050505050565b60608315610c105750816109d0565b825115610c205782518084602001fd5b8160405162461bcd60e51b81526004016101829190611163565b634e487b7160e01b600052604160045260246000fd5b604051601f8201601f1916810167ffffffffffffffff81118282101715610c7957610c79610c3a565b604052919050565b600067ffffffffffffffff821115610c9b57610c9b610c3a565b50601f01601f191660200190565b600082601f830112610cba57600080fd5b8135610ccd610cc882610c81565b610c50565b818152846020838601011115610ce257600080fd5b816020850160208301376000918101602001919091529392505050565b6001600160a01b0381168114610d1457600080fd5b50565b60008060008060608587031215610d2d57600080fd5b843567ffffffffffffffff80821115610d4557600080fd5b610d5188838901610ca9565b955060208701359150610d6382610cff565b90935060408601359080821115610d7957600080fd5b818701915087601f830112610d8d57600080fd5b813581811115610d9c57600080fd5b886020828501011115610dae57600080fd5b95989497505060200194505050565b60008060008060808587031215610dd357600080fd5b843567ffffffffffffffff80821115610deb57600080fd5b610df788838901610ca9565b955060208701359150610e0982610cff565b9093506040860135925060608601359080821115610e2657600080fd5b50610e3387828801610ca9565b91505092959194509250565b600060208284031215610e5157600080fd5b81356109d081610cff565b60008060408385031215610e6f57600080fd5b50508035926020909101359150565b60208082526032908201527f537761703a2057726f6e672073697a65206f66207468652070726f6f662c206960408201527174206d75737420626520393720627974657360701b606082015260800190565b60005b83811015610eeb578181015183820152602001610ed3565b83811115610efa576000848401525b50505050565b60008151808452610f18816020860160208601610ed0565b601f01601f19169290920160200192915050565b606081526000610f3f6060830186610f00565b60208301949094525060400152919050565b600060208284031215610f6357600080fd5b815167ffffffffffffffff811115610f7a57600080fd5b8201601f81018413610f8b57600080fd5b8051610f99610cc882610c81565b818152856020838501011115610fae57600080fd5b610fbf826020830160208601610ed0565b95945050505050565b604081526000610fdb6040830185610f00565b8281036020840152610fbf8185610f00565b600060208284031215610fff57600080fd5b81516109d081610cff565b60408152600061101d6040830185610f00565b90508260208301529392505050565b60006020828403121561103e57600080fd5b5051919050565b60208082526023908201527f4f7261636c6550726f78793a20546869732070726f6f662077617320657870696040820152621c995960ea1b606082015260800190565b6020808252602b908201527f4f7261636c6550726f78793a20436f6e74726f6c6c657220776173206e6f742060408201526a1a5b881d1a19481b1a5cdd60aa1b606082015260800190565b6020808252602e908201527f5573657252656769737472793a204f6e6c7920616c6c6f772063616c6c20667260408201526d37b69039b0b6b2903237b6b0b4b760911b606082015260800190565b6000821982111561114257634e487b7160e01b600052601160045260246000fd5b500190565b60008251611159818460208701610ed0565b9190910192915050565b6020815260006109d06020830184610f0056fe416464726573733a206c6f772d6c6576656c2063616c6c20776974682076616c7565206661696c6564416464726573733a206c6f772d6c6576656c2064656c65676174652063616c6c206661696c6564a2646970667358221220cbc0b4b30ed938c2750397c076f35f4af3fbac183fc4a2b12539bc2966a07bc064736f6c63430008090033",
  "linkReferences": {
    "contracts/libraries/Bytes.sol": {
      "Bytes": [
        {
          "length": 20,
          "start": 728
        },
        {
          "length": 20,
          "start": 878
        },
        {
          "length": 20,
          "start": 1172
        },
        {
          "length": 20,
          "start": 1534
        },
        {
          "length": 20,
          "start": 1684
        },
        {
          "length": 20,
          "start": 1978
        }
      ]
    },
    "contracts/libraries/Verifier.sol": {
      "Verifier": [
        {
          "length": 20,
          "start": 1029
        },
        {
          "length": 20,
          "start": 1835
        }
      ]
    }
  },
  "deployedLinkReferences": {
    "contracts/libraries/Bytes.sol": {
      "Bytes": [
        {
          "length": 20,
          "start": 413
        },
        {
          "length": 20,
          "start": 563
        },
        {
          "length": 20,
          "start": 857
        },
        {
          "length": 20,
          "start": 1219
        },
        {
          "length": 20,
          "start": 1369
        },
        {
          "length": 20,
          "start": 1663
        }
      ]
    },
    "contracts/libraries/Verifier.sol": {
      "Verifier": [
        {
          "length": 20,
          "start": 714
        },
        {
          "length": 20,
          "start": 1520
        }
      ]
    }
  }
}