{
  "_format": "hh-sol-artifact-1",
  "contractName": "Registry",
  "sourceName": "contracts/infrastructure/Registry.sol",
  "abi": [
    {
      "inputs": [],
      "stateMutability": "nonpayable",
      "type": "constructor"
    },
    {
      "anonymous": false,
      "inputs": [
        {
          "indexed": false,
          "internalType": "bytes32",
          "name": "domain",
          "type": "bytes32"
        },
        {
          "indexed": true,
          "internalType": "bytes32",
          "name": "name",
          "type": "bytes32"
        },
        {
          "indexed": true,
          "internalType": "address",
          "name": "addr",
          "type": "address"
        }
      ],
      "name": "RecordSet",
      "type": "event"
    },
    {
      "anonymous": false,
      "inputs": [
        {
          "indexed": false,
          "internalType": "bytes32",
          "name": "domain",
          "type": "bytes32"
        },
        {
          "indexed": true,
          "internalType": "bytes32",
          "name": "name",
          "type": "bytes32"
        },
        {
          "indexed": true,
          "internalType": "address",
          "name": "addr",
          "type": "address"
        }
      ],
      "name": "Registered",
      "type": "event"
    },
    {
      "inputs": [
        {
          "internalType": "bytes32[]",
          "name": "domains",
          "type": "bytes32[]"
        },
        {
          "internalType": "bytes32[]",
          "name": "names",
          "type": "bytes32[]"
        },
        {
          "internalType": "address[]",
          "name": "addrs",
          "type": "address[]"
        }
      ],
      "name": "batchSet",
      "outputs": [
        {
          "internalType": "bool",
          "name": "",
          "type": "bool"
        }
      ],
      "stateMutability": "nonpayable",
      "type": "function"
    },
    {
      "inputs": [
        {
          "internalType": "bytes32",
          "name": "domain",
          "type": "bytes32"
        },
        {
          "internalType": "bytes32",
          "name": "name",
          "type": "bytes32"
        }
      ],
      "name": "getAddress",
      "outputs": [
        {
          "internalType": "address",
          "name": "",
          "type": "address"
        }
      ],
      "stateMutability": "view",
      "type": "function"
    },
    {
      "inputs": [],
      "name": "getDomain",
      "outputs": [
        {
          "internalType": "bytes32",
          "name": "",
          "type": "bytes32"
        }
      ],
      "stateMutability": "view",
      "type": "function"
    },
    {
      "inputs": [
        {
          "internalType": "address",
          "name": "addr",
          "type": "address"
        }
      ],
      "name": "getDomainAndName",
      "outputs": [
        {
          "internalType": "bytes32",
          "name": "",
          "type": "bytes32"
        },
        {
          "internalType": "bytes32",
          "name": "",
          "type": "bytes32"
        }
      ],
      "stateMutability": "view",
      "type": "function"
    },
    {
      "inputs": [],
      "name": "getRegistry",
      "outputs": [
        {
          "internalType": "address",
          "name": "",
          "type": "address"
        }
      ],
      "stateMutability": "view",
      "type": "function"
    },
    {
      "inputs": [
        {
          "internalType": "bytes32",
          "name": "domain",
          "type": "bytes32"
        },
        {
          "internalType": "bytes32",
          "name": "name",
          "type": "bytes32"
        }
      ],
      "name": "isExistRecord",
      "outputs": [
        {
          "internalType": "bool",
          "name": "",
          "type": "bool"
        }
      ],
      "stateMutability": "view",
      "type": "function"
    },
    {
      "inputs": [
        {
          "internalType": "bytes32",
          "name": "domain",
          "type": "bytes32"
        },
        {
          "internalType": "bytes32",
          "name": "name",
          "type": "bytes32"
        },
        {
          "internalType": "address",
          "name": "addr",
          "type": "address"
        }
      ],
      "name": "set",
      "outputs": [
        {
          "internalType": "bool",
          "name": "",
          "type": "bool"
        }
      ],
      "stateMutability": "nonpayable",
      "type": "function"
    }
  ],
  "bytecode": "0x60806040526002805460ff1916905534801561001a57600080fd5b506100426d496e66726173747275637475726560901b6727b832b930ba37b960c11b3361008c565b5061006a6d496e66726173747275637475726560901b67526567697374727960c01b3061008c565b50610086306d496e66726173747275637475726560901b61017f565b50610222565b60006001600160a01b0382166100f75760405162461bcd60e51b815260206004820152602560248201527f52656769737472793a20576520646f6e277420616c6c6f77207a65726f206164604482015264647265737360d81b60648201526084015b60405180910390fd5b6000848152600360209081526040808320868452825280832080546001600160a01b0319166001600160a01b0387169081179091558084526004835281842087905560058352928190208790555186815285917fd60fa0c9c0c2041be2fd694fd00d261a0d3102e584adf2c552fe56f11337d161910160405180910390a35060019392505050565b60025460009060ff16156101ed5760405162461bcd60e51b815260206004820152602f60248201527f5573657252656769737472793a2049742773206f6e6c792061626c6520746f2060448201526e696e697469616c697a65206f6e636560881b60648201526084016100ee565b50600080546001600160a01b0384166001600160a01b031990911617905560018181556002805460ff19168217905592915050565b6107ec806102316000396000f3fe608060405234801561001057600080fd5b506004361061007d5760003560e01c806367e842bc1161005b57806367e842bc1461011a578063b68d18091461012d578063d3a396861461013e578063eab7722d1461017257600080fd5b80630d46d9a91461008257806317a966ac146100aa5780635ab1bd53146100f5575b600080fd5b6100956100903660046105aa565b6101a8565b60405190151581526020015b60405180910390f35b6100e06100b83660046105e3565b6001600160a01b03166000908152600560209081526040808320546004909252909120549091565b604080519283526020830191909152016100a1565b6000546001600160a01b03165b6040516001600160a01b0390911681526020016100a1565b610095610128366004610653565b610288565b6001546040519081526020016100a1565b61010261014c3660046106ed565b60009182526003602090815260408084209284529190529020546001600160a01b031690565b6100956101803660046106ed565b60009182526003602090815260408084209284529190529020546001600160a01b0316151590565b600080546001546040516369d1cb4360e11b815260048101919091526727b832b930ba37b960c11b60248201819052916001600160a01b03169063d3a396869060440160206040518083038186803b15801561020357600080fd5b505afa158015610217573d6000803e3d6000fd5b505050506040513d601f19601f8201168201806040525081019061023b919061070f565b6001600160a01b0316336001600160a01b0316146102745760405162461bcd60e51b815260040161026b9061072c565b60405180910390fd5b61027f8585856104a4565b95945050505050565b600080546001546040516369d1cb4360e11b815260048101919091526727b832b930ba37b960c11b60248201819052916001600160a01b03169063d3a396869060440160206040518083038186803b1580156102e357600080fd5b505afa1580156102f7573d6000803e3d6000fd5b505050506040513d601f19601f8201168201806040525081019061031b919061070f565b6001600160a01b0316336001600160a01b03161461034b5760405162461bcd60e51b815260040161026b9061072c565b868514801561035957508483145b6103cb5760405162461bcd60e51b815260206004820152603860248201527f52656769737472793a204e756d626572206f66207265636f72647320616e642060448201527f6164647265736573206d757374206265206d6174636865640000000000000000606482015260840161026b565b60005b85811015610495576104378989838181106103eb576103eb61077a565b905060200201358888848181106104045761040461077a565b9050602002013587878581811061041d5761041d61077a565b905060200201602081019061043291906105e3565b6104a4565b6104835760405162461bcd60e51b815260206004820152601f60248201527f52656769737472793a20556e61626c6520746f20736574207265636f72647300604482015260640161026b565b61048e600182610790565b90506103ce565b50600198975050505050505050565b60006001600160a01b03821661050a5760405162461bcd60e51b815260206004820152602560248201527f52656769737472793a20576520646f6e277420616c6c6f77207a65726f206164604482015264647265737360d81b606482015260840161026b565b6000848152600360209081526040808320868452825280832080546001600160a01b0319166001600160a01b0387169081179091558084526004835281842087905560058352928190208790555186815285917fd60fa0c9c0c2041be2fd694fd00d261a0d3102e584adf2c552fe56f11337d161910160405180910390a35060019392505050565b6001600160a01b03811681146105a757600080fd5b50565b6000806000606084860312156105bf57600080fd5b833592506020840135915060408401356105d881610592565b809150509250925092565b6000602082840312156105f557600080fd5b813561060081610592565b9392505050565b60008083601f84011261061957600080fd5b50813567ffffffffffffffff81111561063157600080fd5b6020830191508360208260051b850101111561064c57600080fd5b9250929050565b6000806000806000806060878903121561066c57600080fd5b863567ffffffffffffffff8082111561068457600080fd5b6106908a838b01610607565b909850965060208901359150808211156106a957600080fd5b6106b58a838b01610607565b909650945060408901359150808211156106ce57600080fd5b506106db89828a01610607565b979a9699509497509295939492505050565b6000806040838503121561070057600080fd5b50508035926020909101359150565b60006020828403121561072157600080fd5b815161060081610592565b6020808252602e908201527f5573657252656769737472793a204f6e6c7920616c6c6f772063616c6c20667260408201526d37b69039b0b6b2903237b6b0b4b760911b606082015260800190565b634e487b7160e01b600052603260045260246000fd5b600082198211156107b157634e487b7160e01b600052601160045260246000fd5b50019056fea2646970667358221220b6693ea5327589891d7f573e800e6618659202ed6579b46dabc2f227d9a0ed6364736f6c63430008090033",
  "linkReferences": {},
  "deployedLinkReferences": {}
}