{
  "_format": "hh-sol-artifact-1",
  "contractName": "Registry",
  "sourceName": "contracts/infrastructure/Registry.sol",
  "abi": [
    {
      "anonymous": false,
      "inputs": [
        {
          "indexed": true,
          "internalType": "address",
          "name": "previousOwner",
          "type": "address"
        },
        {
          "indexed": true,
          "internalType": "address",
          "name": "newOwner",
          "type": "address"
        }
      ],
      "name": "OwnershipTransferred",
      "type": "event"
    },
    {
      "anonymous": false,
      "inputs": [
        {
          "indexed": false,
          "internalType": "bytes32",
          "name": "domain",
          "type": "bytes32"
        },
        {
          "indexed": true,
          "internalType": "bytes32",
          "name": "name",
          "type": "bytes32"
        },
        {
          "indexed": true,
          "internalType": "address",
          "name": "addr",
          "type": "address"
        }
      ],
      "name": "RecordSet",
      "type": "event"
    },
    {
      "inputs": [
        {
          "internalType": "bytes32[]",
          "name": "domains",
          "type": "bytes32[]"
        },
        {
          "internalType": "bytes32[]",
          "name": "names",
          "type": "bytes32[]"
        },
        {
          "internalType": "address[]",
          "name": "addrs",
          "type": "address[]"
        }
      ],
      "name": "batchSet",
      "outputs": [
        {
          "internalType": "bool",
          "name": "",
          "type": "bool"
        }
      ],
      "stateMutability": "nonpayable",
      "type": "function"
    },
    {
      "inputs": [
        {
          "internalType": "bytes32",
          "name": "domain",
          "type": "bytes32"
        },
        {
          "internalType": "bytes32",
          "name": "name",
          "type": "bytes32"
        }
      ],
      "name": "getAddress",
      "outputs": [
        {
          "internalType": "address",
          "name": "",
          "type": "address"
        }
      ],
      "stateMutability": "view",
      "type": "function"
    },
    {
      "inputs": [
        {
          "internalType": "address",
          "name": "addr",
          "type": "address"
        }
      ],
      "name": "getDomainAndName",
      "outputs": [
        {
          "internalType": "bytes32",
          "name": "",
          "type": "bytes32"
        },
        {
          "internalType": "bytes32",
          "name": "",
          "type": "bytes32"
        }
      ],
      "stateMutability": "view",
      "type": "function"
    },
    {
      "inputs": [
        {
          "internalType": "bytes32",
          "name": "domain",
          "type": "bytes32"
        },
        {
          "internalType": "bytes32",
          "name": "name",
          "type": "bytes32"
        }
      ],
      "name": "isExistRecord",
      "outputs": [
        {
          "internalType": "bool",
          "name": "",
          "type": "bool"
        }
      ],
      "stateMutability": "view",
      "type": "function"
    },
    {
      "inputs": [],
      "name": "owner",
      "outputs": [
        {
          "internalType": "address",
          "name": "",
          "type": "address"
        }
      ],
      "stateMutability": "view",
      "type": "function"
    },
    {
      "inputs": [],
      "name": "renounceOwnership",
      "outputs": [],
      "stateMutability": "nonpayable",
      "type": "function"
    },
    {
      "inputs": [
        {
          "internalType": "bytes32",
          "name": "domain",
          "type": "bytes32"
        },
        {
          "internalType": "bytes32",
          "name": "name",
          "type": "bytes32"
        },
        {
          "internalType": "address",
          "name": "addr",
          "type": "address"
        }
      ],
      "name": "set",
      "outputs": [
        {
          "internalType": "bool",
          "name": "",
          "type": "bool"
        }
      ],
      "stateMutability": "nonpayable",
      "type": "function"
    },
    {
      "inputs": [
        {
          "internalType": "address",
          "name": "newOwner",
          "type": "address"
        }
      ],
      "name": "transferOwnership",
      "outputs": [],
      "stateMutability": "nonpayable",
      "type": "function"
    }
  ],
  "bytecode": "0x608060405234801561001057600080fd5b5061001a3361001f565b61006f565b600080546001600160a01b038381166001600160a01b0319831681178455604051919092169283917f8be0079c531659141344cd1fd0a4f28419497f9722a3daafe3b4186f6b6457e09190a35050565b6107ba8061007e6000396000f3fe608060405234801561001057600080fd5b50600436106100885760003560e01c80638da5cb5b1161005b5780638da5cb5b1461011d578063d3a3968614610142578063eab7722d14610176578063f2fde38b146101ac57600080fd5b80630d46d9a91461008d57806317a966ac146100b557806367e842bc14610100578063715018a614610113575b600080fd5b6100a061009b3660046106de565b6101bf565b60405190151581526020015b60405180910390f35b6100eb6100c3366004610600565b6001600160a01b03166000908152600360209081526040808320546002909252909120549091565b604080519283526020830191909152016100ac565b6100a061010e366004610622565b610206565b61011b610389565b005b6000546001600160a01b03165b6040516001600160a01b0390911681526020016100ac565b61012a6101503660046106bc565b60009182526001602090815260408084209284529190529020546001600160a01b031690565b6100a06101843660046106bc565b60009182526001602090815260408084209284529190529020546001600160a01b0316151590565b61011b6101ba366004610600565b6103bf565b600080546001600160a01b031633146101f35760405162461bcd60e51b81526004016101ea90610713565b60405180910390fd5b6101fe84848461045a565b949350505050565b600080546001600160a01b031633146102315760405162461bcd60e51b81526004016101ea90610713565b858414801561023f57508382145b6102b15760405162461bcd60e51b815260206004820152603860248201527f52656769737472793a204e756d626572206f66207265636f72647320616e642060448201527f6164647265736573206d757374206265206d617463686564000000000000000060648201526084016101ea565b60005b8481101561037b5761031d8888838181106102d1576102d161076e565b905060200201358787848181106102ea576102ea61076e565b905060200201358686858181106103035761030361076e565b90506020020160208101906103189190610600565b61045a565b6103695760405162461bcd60e51b815260206004820152601f60248201527f52656769737472793a20556e61626c6520746f20736574207265636f7264730060448201526064016101ea565b610374600182610748565b90506102b4565b506001979650505050505050565b6000546001600160a01b031633146103b35760405162461bcd60e51b81526004016101ea90610713565b6103bd6000610548565b565b6000546001600160a01b031633146103e95760405162461bcd60e51b81526004016101ea90610713565b6001600160a01b03811661044e5760405162461bcd60e51b815260206004820152602660248201527f4f776e61626c653a206e6577206f776e657220697320746865207a65726f206160448201526564647265737360d01b60648201526084016101ea565b61045781610548565b50565b60006001600160a01b0382166104c05760405162461bcd60e51b815260206004820152602560248201527f52656769737472793a20576520646f6e277420616c6c6f77207a65726f206164604482015264647265737360d81b60648201526084016101ea565b6000848152600160209081526040808320868452825280832080546001600160a01b0319166001600160a01b0387169081179091558084526002835281842087905560038352928190208790555186815285917fd60fa0c9c0c2041be2fd694fd00d261a0d3102e584adf2c552fe56f11337d161910160405180910390a35060019392505050565b600080546001600160a01b038381166001600160a01b0319831681178455604051919092169283917f8be0079c531659141344cd1fd0a4f28419497f9722a3daafe3b4186f6b6457e09190a35050565b80356001600160a01b03811681146105af57600080fd5b919050565b60008083601f8401126105c657600080fd5b50813567ffffffffffffffff8111156105de57600080fd5b6020830191508360208260051b85010111156105f957600080fd5b9250929050565b60006020828403121561061257600080fd5b61061b82610598565b9392505050565b6000806000806000806060878903121561063b57600080fd5b863567ffffffffffffffff8082111561065357600080fd5b61065f8a838b016105b4565b9098509650602089013591508082111561067857600080fd5b6106848a838b016105b4565b9096509450604089013591508082111561069d57600080fd5b506106aa89828a016105b4565b979a9699509497509295939492505050565b600080604083850312156106cf57600080fd5b50508035926020909101359150565b6000806000606084860312156106f357600080fd5b833592506020840135915061070a60408501610598565b90509250925092565b6020808252818101527f4f776e61626c653a2063616c6c6572206973206e6f7420746865206f776e6572604082015260600190565b6000821982111561076957634e487b7160e01b600052601160045260246000fd5b500190565b634e487b7160e01b600052603260045260246000fdfea2646970667358221220357bfc4a6f9ccdfb7fd025d1819f4d81c99e11f2b4bddbd02a260783cf3dfabc64736f6c63430008060033",
  "linkReferences": {},
  "deployedLinkReferences": {}
}