{
  "_format": "hh-sol-artifact-1",
  "contractName": "RNG",
  "sourceName": "contracts/infrastructure/RNG.sol",
  "abi": [
    {
      "inputs": [
        {
          "internalType": "address",
          "name": "registry_",
          "type": "address"
        },
        {
          "internalType": "bytes32",
          "name": "domain_",
          "type": "bytes32"
        }
      ],
      "stateMutability": "nonpayable",
      "type": "constructor"
    },
    {
      "anonymous": false,
      "inputs": [
        {
          "indexed": true,
          "internalType": "uint256",
          "name": "index",
          "type": "uint256"
        },
        {
          "indexed": true,
          "internalType": "bytes32",
          "name": "digest",
          "type": "bytes32"
        }
      ],
      "name": "Committed",
      "type": "event"
    },
    {
      "anonymous": false,
      "inputs": [
        {
          "indexed": true,
          "internalType": "uint256",
          "name": "index",
          "type": "uint256"
        },
        {
          "indexed": true,
          "internalType": "uint256",
          "name": "s",
          "type": "uint256"
        },
        {
          "indexed": true,
          "internalType": "uint256",
          "name": "t",
          "type": "uint256"
        }
      ],
      "name": "Revealed",
      "type": "event"
    },
    {
      "inputs": [
        {
          "internalType": "bytes",
          "name": "digest",
          "type": "bytes"
        }
      ],
      "name": "batchCommit",
      "outputs": [
        {
          "internalType": "bool",
          "name": "",
          "type": "bool"
        }
      ],
      "stateMutability": "nonpayable",
      "type": "function"
    },
    {
      "inputs": [
        {
          "internalType": "bytes32",
          "name": "digest",
          "type": "bytes32"
        }
      ],
      "name": "commit",
      "outputs": [
        {
          "internalType": "uint256",
          "name": "",
          "type": "uint256"
        }
      ],
      "stateMutability": "nonpayable",
      "type": "function"
    },
    {
      "inputs": [
        {
          "internalType": "bytes32",
          "name": "digest",
          "type": "bytes32"
        }
      ],
      "name": "getDataByDigest",
      "outputs": [
        {
          "components": [
            {
              "internalType": "uint256",
              "name": "index",
              "type": "uint256"
            },
            {
              "internalType": "bytes32",
              "name": "digest",
              "type": "bytes32"
            },
            {
              "internalType": "bytes32",
              "name": "secret",
              "type": "bytes32"
            }
          ],
          "internalType": "struct RNG.CommitSchemeData",
          "name": "",
          "type": "tuple"
        }
      ],
      "stateMutability": "view",
      "type": "function"
    },
    {
      "inputs": [
        {
          "internalType": "uint256",
          "name": "index",
          "type": "uint256"
        }
      ],
      "name": "getDataByIndex",
      "outputs": [
        {
          "components": [
            {
              "internalType": "uint256",
              "name": "index",
              "type": "uint256"
            },
            {
              "internalType": "bytes32",
              "name": "digest",
              "type": "bytes32"
            },
            {
              "internalType": "bytes32",
              "name": "secret",
              "type": "bytes32"
            }
          ],
          "internalType": "struct RNG.CommitSchemeData",
          "name": "",
          "type": "tuple"
        }
      ],
      "stateMutability": "view",
      "type": "function"
    },
    {
      "inputs": [],
      "name": "getDomain",
      "outputs": [
        {
          "internalType": "bytes32",
          "name": "",
          "type": "bytes32"
        }
      ],
      "stateMutability": "view",
      "type": "function"
    },
    {
      "inputs": [],
      "name": "getProgress",
      "outputs": [
        {
          "components": [
            {
              "internalType": "uint256",
              "name": "remaining",
              "type": "uint256"
            },
            {
              "internalType": "uint256",
              "name": "total",
              "type": "uint256"
            }
          ],
          "internalType": "struct RNG.CommitSchemeProgress",
          "name": "",
          "type": "tuple"
        }
      ],
      "stateMutability": "view",
      "type": "function"
    },
    {
      "inputs": [],
      "name": "getRegistry",
      "outputs": [
        {
          "internalType": "address",
          "name": "",
          "type": "address"
        }
      ],
      "stateMutability": "view",
      "type": "function"
    },
    {
      "inputs": [
        {
          "internalType": "bytes",
          "name": "data",
          "type": "bytes"
        }
      ],
      "name": "reveal",
      "outputs": [
        {
          "internalType": "uint256",
          "name": "",
          "type": "uint256"
        }
      ],
      "stateMutability": "nonpayable",
      "type": "function"
    }
  ],
  "bytecode": "0x60806040526002805460ff1916905534801561001a57600080fd5b50604051611126380380611126833981016040819052610039916100f2565b610043828261004b565b50505061012c565b60025460009060ff16156100bd5760405162461bcd60e51b815260206004820152602f60248201527f5573657252656769737472793a2049742773206f6e6c792061626c6520746f2060448201526e696e697469616c697a65206f6e636560881b606482015260840160405180910390fd5b50600080546001600160a01b0384166001600160a01b031990911617905560018181556002805460ff19168217905592915050565b6000806040838503121561010557600080fd5b82516001600160a01b038116811461011c57600080fd5b6020939093015192949293505050565b610feb8061013b6000396000f3fe608060405234801561001057600080fd5b50600436106100885760003560e01c8063939c44561161005b578063939c44561461016c578063b68d1809146101aa578063f14fcbc8146101b2578063fca0a91c146101c557600080fd5b8063321489d41461008d5780635ab1bd531461010d57806372f12a5d146101285780638e5c50c514610149575b600080fd5b6100e661009b366004610b5b565b60408051606080820183526000808352602080840182905292840181905283519182018452848252848152600583528381205482840152938452600790915291819020549082015290565b60408051825181526020808401519082015291810151908201526060015b60405180910390f35b6000546040516001600160a01b039091168152602001610104565b61013b610136366004610be3565b610228565b604051908152602001610104565b61015c610157366004610c63565b6107ce565b6040519015158152602001610104565b604080518082018252600080825260209182015281518083018352600454808252600354918301918252835190815290519181019190915201610104565b60015461013b565b61013b6101c0366004610b5b565b6109fe565b6100e66101d3366004610b5b565b6040805160608082018352600080835260208084018290529284018190529384526006825282842054835191820184528082528085526005835283852054828401528452600790915291819020549082015290565b600080546001546040516369d1cb4360e11b81526004810191909152654f7261636c6560d01b60248201819052916001600160a01b03169063d3a396869060440160206040518083038186803b15801561028157600080fd5b505afa158015610295573d6000803e3d6000fd5b505050506040513d601f19601f820116820180604052508101906102b99190610cd5565b6001600160a01b0316336001600160a01b0316146102f25760405162461bcd60e51b81526004016102e990610cfe565b60405180910390fd5b6054835110156103445760405162461bcd60e51b815260206004820181905260248201527f524e473a20496e7075742064617461206861732077726f6e6720666f726d617460448201526064016102e9565b60405163f0e9da2360e01b815260009073__$8b56843b825aa1dc3815df035c53fdeeb9$__9063f0e9da23906103809087908590600401610da8565b60206040518083038186803b15801561039857600080fd5b505af41580156103ac573d6000803e3d6000fd5b505050506040513d601f19601f820116820180604052508101906103d09190610cd5565b60405163e02da32760e01b815290915060009073__$8b56843b825aa1dc3815df035c53fdeeb9$__9063e02da32790610410908890601490600401610da8565b60206040518083038186803b15801561042857600080fd5b505af415801561043c573d6000803e3d6000fd5b505050506040513d601f19601f820116820180604052508101906104609190610dca565b60405163e02da32760e01b815290915060009073__$8b56843b825aa1dc3815df035c53fdeeb9$__9063e02da327906104a0908990603490600401610da8565b60206040518083038186803b1580156104b857600080fd5b505af41580156104cc573d6000803e3d6000fd5b505050506040513d601f19601f820116820180604052508101906104f09190610dca565b90506000806001600460008282546105089190610df9565b90915550505060008381526007602052604090819020549083901c915067ffffffffffffffff8316901561057e5760405162461bcd60e51b815260206004820152601d60248201527f526e673a205468697320736563726574207761732072657665616c656400000060448201526064016102e9565b600084815260056020908152604091829020548251918201869052910160405160208183030381529060405280519060200120146105fe5760405162461bcd60e51b815260206004820181905260248201527f526e673a2053656372657420646f65736e2774206d617463682064696765737460448201526064016102e9565b60008481526007602052604090208390556001600160a01b0385161561079357846001600160a01b0316634122f9978973__$8b56843b825aa1dc3815df035c53fdeeb9$__63afa3102d90916034808e516106599190610df9565b6040518463ffffffff1660e01b815260040161067793929190610e10565b60006040518083038186803b15801561068f57600080fd5b505af41580156106a3573d6000803e3d6000fd5b505050506040513d6000823e601f3d908101601f191682016040526106cb9190810190610e35565b6040518263ffffffff1660e01b81526004016106e79190610eac565b602060405180830381600087803b15801561070157600080fd5b505af1158015610715573d6000803e3d6000fd5b505050506040513d601f19601f820116820180604052508101906107399190610ebf565b6107935760405162461bcd60e51b815260206004820152602560248201527f524e473a2043616e277420646f2063616c6c6261636b20746f20646973747269604482015264313aba37b960d91b60648201526084016102e9565b8082857f7162321ecace9c982905ec8d8000eb292887b6befedc98e18dbb27fa95e752d760405160405180910390a450919695505050505050565b600080546001546040516369d1cb4360e11b81526004810191909152654f7261636c6560d01b60248201819052916001600160a01b03169063d3a396869060440160206040518083038186803b15801561082757600080fd5b505afa15801561083b573d6000803e3d6000fd5b505050506040513d601f19601f8201168201806040525081019061085f9190610cd5565b6001600160a01b0316336001600160a01b03161461088f5760405162461bcd60e51b81526004016102e990610cfe565b600084848080601f0160208091040260200160405190810160405280939291908181526020018383808284376000920191909152505060405163a16ab39b60e01b815273__$8b56843b825aa1dc3815df035c53fdeeb9$__9363a16ab39b93506108fd925090600401610eac565b60006040518083038186803b15801561091557600080fd5b505af4158015610929573d6000803e3d6000fd5b505050506040513d6000823e601f3d908101601f191682016040526109519190810190610ee1565b905060005b81518110156109f257600061098383838151811061097657610976610f87565b6020026020010151610acf565b116109e05760405162461bcd60e51b815260206004820152602760248201527f524e473a20556e61626c6520746f206164642064696765737420746f20626c6f60448201526631b5b1b430b4b760c91b60648201526084016102e9565b6109eb600182610f9d565b9050610956565b50600195945050505050565b600080546001546040516369d1cb4360e11b81526004810191909152654f7261636c6560d01b60248201819052916001600160a01b03169063d3a396869060440160206040518083038186803b158015610a5757600080fd5b505afa158015610a6b573d6000803e3d6000fd5b505050506040513d601f19601f82011682018060405250810190610a8f9190610cd5565b6001600160a01b0316336001600160a01b031614610abf5760405162461bcd60e51b81526004016102e990610cfe565b610ac883610acf565b9392505050565b6000600160036000828254610ae49190610f9d565b92505081905550600160046000828254610afe9190610f9d565b90915550506003805460009081526005602090815260408083208690559254858352600690915282822081905591518492917f68e0867601a98978930107aee7f425665e61edd70ca594c68ca5da9e81f84c2991a3505060035490565b600060208284031215610b6d57600080fd5b5035919050565b634e487b7160e01b600052604160045260246000fd5b604051601f8201601f1916810167ffffffffffffffff81118282101715610bb357610bb3610b74565b604052919050565b600067ffffffffffffffff821115610bd557610bd5610b74565b50601f01601f191660200190565b600060208284031215610bf557600080fd5b813567ffffffffffffffff811115610c0c57600080fd5b8201601f81018413610c1d57600080fd5b8035610c30610c2b82610bbb565b610b8a565b818152856020838501011115610c4557600080fd5b81602084016020830137600091810160200191909152949350505050565b60008060208385031215610c7657600080fd5b823567ffffffffffffffff80821115610c8e57600080fd5b818501915085601f830112610ca257600080fd5b813581811115610cb157600080fd5b866020828501011115610cc357600080fd5b60209290920196919550909350505050565b600060208284031215610ce757600080fd5b81516001600160a01b0381168114610ac857600080fd5b6020808252602e908201527f5573657252656769737472793a204f6e6c7920616c6c6f772063616c6c20667260408201526d37b69039b0b6b2903237b6b0b4b760911b606082015260800190565b60005b83811015610d67578181015183820152602001610d4f565b83811115610d76576000848401525b50505050565b60008151808452610d94816020860160208601610d4c565b601f01601f19169290920160200192915050565b604081526000610dbb6040830185610d7c565b90508260208301529392505050565b600060208284031215610ddc57600080fd5b5051919050565b634e487b7160e01b600052601160045260246000fd5b600082821015610e0b57610e0b610de3565b500390565b606081526000610e236060830186610d7c565b60208301949094525060400152919050565b600060208284031215610e4757600080fd5b815167ffffffffffffffff811115610e5e57600080fd5b8201601f81018413610e6f57600080fd5b8051610e7d610c2b82610bbb565b818152856020838501011115610e9257600080fd5b610ea3826020830160208601610d4c565b95945050505050565b602081526000610ac86020830184610d7c565b600060208284031215610ed157600080fd5b81518015158114610ac857600080fd5b60006020808385031215610ef457600080fd5b825167ffffffffffffffff80821115610f0c57600080fd5b818501915085601f830112610f2057600080fd5b815181811115610f3257610f32610b74565b8060051b9150610f43848301610b8a565b8181529183018401918481019088841115610f5d57600080fd5b938501935b83851015610f7b57845182529385019390850190610f62565b98975050505050505050565b634e487b7160e01b600052603260045260246000fd5b60008219821115610fb057610fb0610de3565b50019056fea2646970667358221220a2412ea70ffdae87c58d4eb7c22aee6b3aa2914e130097d096d9837f8e395f5a64736f6c63430008090033",
  "linkReferences": {
    "contracts/libraries/Bytes.sol": {
      "Bytes": [
        {
          "length": 20,
          "start": 1169
        },
        {
          "length": 20,
          "start": 1312
        },
        {
          "length": 20,
          "start": 1456
        },
        {
          "length": 20,
          "start": 1899
        },
        {
          "length": 20,
          "start": 2575
        }
      ]
    }
  },
  "deployedLinkReferences": {
    "contracts/libraries/Bytes.sol": {
      "Bytes": [
        {
          "length": 20,
          "start": 854
        },
        {
          "length": 20,
          "start": 997
        },
        {
          "length": 20,
          "start": 1141
        },
        {
          "length": 20,
          "start": 1584
        },
        {
          "length": 20,
          "start": 2260
        }
      ]
    }
  }
}